{
	"contracts/ExceptionHandling.sol": {
		"ExceptionHandling": {
			"abi": [
				{
					"inputs": [
						{
							"internalType": "address",
							"name": "",
							"type": "address"
						}
					],
					"name": "balanceReceived",
					"outputs": [
						{
							"internalType": "uint8",
							"name": "",
							"type": "uint8"
						}
					],
					"stateMutability": "view",
					"type": "function"
				},
				{
					"inputs": [],
					"name": "receiveMoney",
					"outputs": [],
					"stateMutability": "payable",
					"type": "function"
				},
				{
					"inputs": [
						{
							"internalType": "address payable",
							"name": "_to",
							"type": "address"
						},
						{
							"internalType": "uint8",
							"name": "_amount",
							"type": "uint8"
						}
					],
					"name": "withdrawMoney",
					"outputs": [],
					"stateMutability": "nonpayable",
					"type": "function"
				}
			],
			"devdoc": {
				"kind": "dev",
				"methods": {},
				"version": 1
			},
			"evm": {
				"assembly": "    /* \"contracts/ExceptionHandling.sol\":58:560  contract ExceptionHandling {... */\n  mstore(0x40, 0x80)\n  callvalue\n  dup1\n  iszero\n  tag_1\n  jumpi\n  revert(0x00, 0x00)\ntag_1:\n  pop\n  dataSize(sub_0)\n  dup1\n  dataOffset(sub_0)\n  0x00\n  codecopy\n  0x00\n  return\nstop\n\nsub_0: assembly {\n        /* \"contracts/ExceptionHandling.sol\":58:560  contract ExceptionHandling {... */\n      mstore(0x40, 0x80)\n      jumpi(tag_1, lt(calldatasize, 0x04))\n      shr(0xe0, calldataload(0x00))\n      dup1\n      0x67c114b8\n      eq\n      tag_2\n      jumpi\n      dup1\n      0x6d26ec18\n      eq\n      tag_3\n      jumpi\n      dup1\n      0xd18a42e1\n      eq\n      tag_4\n      jumpi\n    tag_1:\n      revert(0x00, 0x00)\n        /* \"contracts/ExceptionHandling.sol\":309:558  function withdrawMoney(address payable _to, uint8 _amount) public {... */\n    tag_2:\n      callvalue\n      dup1\n      iszero\n      tag_5\n      jumpi\n      revert(0x00, 0x00)\n    tag_5:\n      pop\n      tag_6\n      0x04\n      dup1\n      calldatasize\n      sub\n      dup2\n      add\n      swap1\n      tag_7\n      swap2\n      swap1\n      tag_8\n      jump\t// in\n    tag_7:\n      tag_9\n      jump\t// in\n    tag_6:\n      stop\n        /* \"contracts/ExceptionHandling.sol\":152:303  function receiveMoney() public payable  {... */\n    tag_3:\n      tag_10\n      tag_11\n      jump\t// in\n    tag_10:\n      stop\n        /* \"contracts/ExceptionHandling.sol\":96:145  mapping (address => uint8) public balanceReceived */\n    tag_4:\n      callvalue\n      dup1\n      iszero\n      tag_12\n      jumpi\n      revert(0x00, 0x00)\n    tag_12:\n      pop\n      tag_13\n      0x04\n      dup1\n      calldatasize\n      sub\n      dup2\n      add\n      swap1\n      tag_14\n      swap2\n      swap1\n      tag_15\n      jump\t// in\n    tag_14:\n      tag_16\n      jump\t// in\n    tag_13:\n      mload(0x40)\n      tag_17\n      swap2\n      swap1\n      tag_18\n      jump\t// in\n    tag_17:\n      mload(0x40)\n      dup1\n      swap2\n      sub\n      swap1\n      return\n        /* \"contracts/ExceptionHandling.sol\":309:558  function withdrawMoney(address payable _to, uint8 _amount) public {... */\n    tag_9:\n        /* \"contracts/ExceptionHandling.sol\":404:419  balanceReceived */\n      0x00\n        /* \"contracts/ExceptionHandling.sol\":404:431  balanceReceived[msg.sender] */\n      0x00\n        /* \"contracts/ExceptionHandling.sol\":420:430  msg.sender */\n      caller\n        /* \"contracts/ExceptionHandling.sol\":404:431  balanceReceived[msg.sender] */\n      0xffffffffffffffffffffffffffffffffffffffff\n      and\n      0xffffffffffffffffffffffffffffffffffffffff\n      and\n      dup2\n      mstore\n      0x20\n      add\n      swap1\n      dup2\n      mstore\n      0x20\n      add\n      0x00\n      keccak256\n      0x00\n      swap1\n      sload\n      swap1\n      0x0100\n      exp\n      swap1\n      div\n      0xff\n      and\n        /* \"contracts/ExceptionHandling.sol\":393:431  _amount <= balanceReceived[msg.sender] */\n      0xff\n      and\n        /* \"contracts/ExceptionHandling.sol\":393:400  _amount */\n      dup2\n        /* \"contracts/ExceptionHandling.sol\":393:431  _amount <= balanceReceived[msg.sender] */\n      0xff\n      and\n      gt\n      iszero\n        /* \"contracts/ExceptionHandling.sol\":385:463  require(_amount <= balanceReceived[msg.sender], \"Not enough funds, aborting!\") */\n      tag_20\n      jumpi\n      mload(0x40)\n      0x08c379a000000000000000000000000000000000000000000000000000000000\n      dup2\n      mstore\n      0x04\n      add\n      tag_21\n      swap1\n      tag_22\n      jump\t// in\n    tag_21:\n      mload(0x40)\n      dup1\n      swap2\n      sub\n      swap1\n      revert\n    tag_20:\n        /* \"contracts/ExceptionHandling.sol\":504:511  _amount */\n      dup1\n        /* \"contracts/ExceptionHandling.sol\":473:488  balanceReceived */\n      0x00\n        /* \"contracts/ExceptionHandling.sol\":473:500  balanceReceived[msg.sender] */\n      0x00\n        /* \"contracts/ExceptionHandling.sol\":489:499  msg.sender */\n      caller\n        /* \"contracts/ExceptionHandling.sol\":473:500  balanceReceived[msg.sender] */\n      0xffffffffffffffffffffffffffffffffffffffff\n      and\n      0xffffffffffffffffffffffffffffffffffffffff\n      and\n      dup2\n      mstore\n      0x20\n      add\n      swap1\n      dup2\n      mstore\n      0x20\n      add\n      0x00\n      keccak256\n      0x00\n        /* \"contracts/ExceptionHandling.sol\":473:511  balanceReceived[msg.sender] -= _amount */\n      dup3\n      dup3\n      dup3\n      swap1\n      sload\n      swap1\n      0x0100\n      exp\n      swap1\n      div\n      0xff\n      and\n      tag_23\n      swap2\n      swap1\n      tag_24\n      jump\t// in\n    tag_23:\n      swap3\n      pop\n      0x0100\n      exp\n      dup2\n      sload\n      dup2\n      0xff\n      mul\n      not\n      and\n      swap1\n      dup4\n      0xff\n      and\n      mul\n      or\n      swap1\n      sstore\n      pop\n        /* \"contracts/ExceptionHandling.sol\":521:524  _to */\n      dup2\n        /* \"contracts/ExceptionHandling.sol\":521:533  _to.transfer */\n      0xffffffffffffffffffffffffffffffffffffffff\n      and\n        /* \"contracts/ExceptionHandling.sol\":521:542  _to.transfer(_amount) */\n      0x08fc\n        /* \"contracts/ExceptionHandling.sol\":534:541  _amount */\n      dup3\n        /* \"contracts/ExceptionHandling.sol\":521:542  _to.transfer(_amount) */\n      0xff\n      and\n      swap1\n      dup2\n      iszero\n      mul\n      swap1\n      mload(0x40)\n      0x00\n      mload(0x40)\n      dup1\n      dup4\n      sub\n      dup2\n      dup6\n      dup9\n      dup9\n      call\n      swap4\n      pop\n      pop\n      pop\n      pop\n      iszero\n      dup1\n      iszero\n      tag_26\n      jumpi\n      returndatacopy(0x00, 0x00, returndatasize)\n      revert(0x00, returndatasize)\n    tag_26:\n      pop\n        /* \"contracts/ExceptionHandling.sol\":309:558  function withdrawMoney(address payable _to, uint8 _amount) public {... */\n      pop\n      pop\n      jump\t// out\n        /* \"contracts/ExceptionHandling.sol\":152:303  function receiveMoney() public payable  {... */\n    tag_11:\n        /* \"contracts/ExceptionHandling.sol\":228:237  msg.value */\n      callvalue\n        /* \"contracts/ExceptionHandling.sol\":209:238  msg.value == uint8(msg.value) */\n      0xff\n      and\n        /* \"contracts/ExceptionHandling.sol\":209:218  msg.value */\n      callvalue\n        /* \"contracts/ExceptionHandling.sol\":209:238  msg.value == uint8(msg.value) */\n      eq\n        /* \"contracts/ExceptionHandling.sol\":202:239  assert(msg.value == uint8(msg.value)) */\n      tag_28\n      jumpi\n      tag_29\n      tag_30\n      jump\t// in\n    tag_29:\n    tag_28:\n        /* \"contracts/ExceptionHandling.sol\":286:295  msg.value */\n      callvalue\n        /* \"contracts/ExceptionHandling.sol\":249:264  balanceReceived */\n      0x00\n        /* \"contracts/ExceptionHandling.sol\":249:276  balanceReceived[msg.sender] */\n      0x00\n        /* \"contracts/ExceptionHandling.sol\":265:275  msg.sender */\n      caller\n        /* \"contracts/ExceptionHandling.sol\":249:276  balanceReceived[msg.sender] */\n      0xffffffffffffffffffffffffffffffffffffffff\n      and\n      0xffffffffffffffffffffffffffffffffffffffff\n      and\n      dup2\n      mstore\n      0x20\n      add\n      swap1\n      dup2\n      mstore\n      0x20\n      add\n      0x00\n      keccak256\n      0x00\n        /* \"contracts/ExceptionHandling.sol\":249:296  balanceReceived[msg.sender] += uint8(msg.value) */\n      dup3\n      dup3\n      dup3\n      swap1\n      sload\n      swap1\n      0x0100\n      exp\n      swap1\n      div\n      0xff\n      and\n      tag_31\n      swap2\n      swap1\n      tag_32\n      jump\t// in\n    tag_31:\n      swap3\n      pop\n      0x0100\n      exp\n      dup2\n      sload\n      dup2\n      0xff\n      mul\n      not\n      and\n      swap1\n      dup4\n      0xff\n      and\n      mul\n      or\n      swap1\n      sstore\n      pop\n        /* \"contracts/ExceptionHandling.sol\":152:303  function receiveMoney() public payable  {... */\n      jump\t// out\n        /* \"contracts/ExceptionHandling.sol\":96:145  mapping (address => uint8) public balanceReceived */\n    tag_16:\n      mstore(0x20, 0x00)\n      dup1\n      0x00\n      mstore\n      keccak256(0x00, 0x40)\n      0x00\n      swap2\n      pop\n      sload\n      swap1\n      0x0100\n      exp\n      swap1\n      div\n      0xff\n      and\n      dup2\n      jump\t// out\n        /* \"#utility.yul\":88:205   */\n    tag_34:\n        /* \"#utility.yul\":197:198   */\n      0x00\n        /* \"#utility.yul\":194:195   */\n      0x00\n        /* \"#utility.yul\":187:199   */\n      revert\n        /* \"#utility.yul\":334:460   */\n    tag_36:\n        /* \"#utility.yul\":371:378   */\n      0x00\n        /* \"#utility.yul\":411:453   */\n      0xffffffffffffffffffffffffffffffffffffffff\n        /* \"#utility.yul\":404:409   */\n      dup3\n        /* \"#utility.yul\":400:454   */\n      and\n        /* \"#utility.yul\":389:454   */\n      swap1\n      pop\n        /* \"#utility.yul\":334:460   */\n      swap2\n      swap1\n      pop\n      jump\t// out\n        /* \"#utility.yul\":466:570   */\n    tag_37:\n        /* \"#utility.yul\":511:518   */\n      0x00\n        /* \"#utility.yul\":540:564   */\n      tag_57\n        /* \"#utility.yul\":558:563   */\n      dup3\n        /* \"#utility.yul\":540:564   */\n      tag_36\n      jump\t// in\n    tag_57:\n        /* \"#utility.yul\":529:564   */\n      swap1\n      pop\n        /* \"#utility.yul\":466:570   */\n      swap2\n      swap1\n      pop\n      jump\t// out\n        /* \"#utility.yul\":576:714   */\n    tag_38:\n        /* \"#utility.yul\":657:689   */\n      tag_59\n        /* \"#utility.yul\":683:688   */\n      dup2\n        /* \"#utility.yul\":657:689   */\n      tag_37\n      jump\t// in\n    tag_59:\n        /* \"#utility.yul\":650:655   */\n      dup2\n        /* \"#utility.yul\":647:690   */\n      eq\n        /* \"#utility.yul\":637:708   */\n      tag_60\n      jumpi\n        /* \"#utility.yul\":704:705   */\n      0x00\n        /* \"#utility.yul\":701:702   */\n      0x00\n        /* \"#utility.yul\":694:706   */\n      revert\n        /* \"#utility.yul\":637:708   */\n    tag_60:\n        /* \"#utility.yul\":576:714   */\n      pop\n      jump\t// out\n        /* \"#utility.yul\":720:875   */\n    tag_39:\n        /* \"#utility.yul\":774:779   */\n      0x00\n        /* \"#utility.yul\":812:818   */\n      dup2\n        /* \"#utility.yul\":799:819   */\n      calldataload\n        /* \"#utility.yul\":790:819   */\n      swap1\n      pop\n        /* \"#utility.yul\":828:869   */\n      tag_62\n        /* \"#utility.yul\":863:868   */\n      dup2\n        /* \"#utility.yul\":828:869   */\n      tag_38\n      jump\t// in\n    tag_62:\n        /* \"#utility.yul\":720:875   */\n      swap3\n      swap2\n      pop\n      pop\n      jump\t// out\n        /* \"#utility.yul\":881:967   */\n    tag_40:\n        /* \"#utility.yul\":916:923   */\n      0x00\n        /* \"#utility.yul\":956:960   */\n      0xff\n        /* \"#utility.yul\":949:954   */\n      dup3\n        /* \"#utility.yul\":945:961   */\n      and\n        /* \"#utility.yul\":934:961   */\n      swap1\n      pop\n        /* \"#utility.yul\":881:967   */\n      swap2\n      swap1\n      pop\n      jump\t// out\n        /* \"#utility.yul\":973:1091   */\n    tag_41:\n        /* \"#utility.yul\":1044:1066   */\n      tag_65\n        /* \"#utility.yul\":1060:1065   */\n      dup2\n        /* \"#utility.yul\":1044:1066   */\n      tag_40\n      jump\t// in\n    tag_65:\n        /* \"#utility.yul\":1037:1042   */\n      dup2\n        /* \"#utility.yul\":1034:1067   */\n      eq\n        /* \"#utility.yul\":1024:1085   */\n      tag_66\n      jumpi\n        /* \"#utility.yul\":1081:1082   */\n      0x00\n        /* \"#utility.yul\":1078:1079   */\n      0x00\n        /* \"#utility.yul\":1071:1083   */\n      revert\n        /* \"#utility.yul\":1024:1085   */\n    tag_66:\n        /* \"#utility.yul\":973:1091   */\n      pop\n      jump\t// out\n        /* \"#utility.yul\":1097:1232   */\n    tag_42:\n        /* \"#utility.yul\":1141:1146   */\n      0x00\n        /* \"#utility.yul\":1179:1185   */\n      dup2\n        /* \"#utility.yul\":1166:1186   */\n      calldataload\n        /* \"#utility.yul\":1157:1186   */\n      swap1\n      pop\n        /* \"#utility.yul\":1195:1226   */\n      tag_68\n        /* \"#utility.yul\":1220:1225   */\n      dup2\n        /* \"#utility.yul\":1195:1226   */\n      tag_41\n      jump\t// in\n    tag_68:\n        /* \"#utility.yul\":1097:1232   */\n      swap3\n      swap2\n      pop\n      pop\n      jump\t// out\n        /* \"#utility.yul\":1238:1724   */\n    tag_8:\n        /* \"#utility.yul\":1312:1318   */\n      0x00\n        /* \"#utility.yul\":1320:1326   */\n      0x00\n        /* \"#utility.yul\":1369:1371   */\n      0x40\n        /* \"#utility.yul\":1357:1366   */\n      dup4\n        /* \"#utility.yul\":1348:1355   */\n      dup6\n        /* \"#utility.yul\":1344:1367   */\n      sub\n        /* \"#utility.yul\":1340:1372   */\n      slt\n        /* \"#utility.yul\":1337:1456   */\n      iszero\n      tag_70\n      jumpi\n        /* \"#utility.yul\":1375:1454   */\n      tag_71\n      tag_34\n      jump\t// in\n    tag_71:\n        /* \"#utility.yul\":1337:1456   */\n    tag_70:\n        /* \"#utility.yul\":1495:1496   */\n      0x00\n        /* \"#utility.yul\":1520:1581   */\n      tag_72\n        /* \"#utility.yul\":1573:1580   */\n      dup6\n        /* \"#utility.yul\":1564:1570   */\n      dup3\n        /* \"#utility.yul\":1553:1562   */\n      dup7\n        /* \"#utility.yul\":1549:1571   */\n      add\n        /* \"#utility.yul\":1520:1581   */\n      tag_39\n      jump\t// in\n    tag_72:\n        /* \"#utility.yul\":1510:1581   */\n      swap3\n      pop\n        /* \"#utility.yul\":1466:1591   */\n      pop\n        /* \"#utility.yul\":1630:1632   */\n      0x20\n        /* \"#utility.yul\":1656:1707   */\n      tag_73\n        /* \"#utility.yul\":1699:1706   */\n      dup6\n        /* \"#utility.yul\":1690:1696   */\n      dup3\n        /* \"#utility.yul\":1679:1688   */\n      dup7\n        /* \"#utility.yul\":1675:1697   */\n      add\n        /* \"#utility.yul\":1656:1707   */\n      tag_42\n      jump\t// in\n    tag_73:\n        /* \"#utility.yul\":1646:1707   */\n      swap2\n      pop\n        /* \"#utility.yul\":1601:1717   */\n      pop\n        /* \"#utility.yul\":1238:1724   */\n      swap3\n      pop\n      swap3\n      swap1\n      pop\n      jump\t// out\n        /* \"#utility.yul\":1730:1826   */\n    tag_43:\n        /* \"#utility.yul\":1767:1774   */\n      0x00\n        /* \"#utility.yul\":1796:1820   */\n      tag_75\n        /* \"#utility.yul\":1814:1819   */\n      dup3\n        /* \"#utility.yul\":1796:1820   */\n      tag_36\n      jump\t// in\n    tag_75:\n        /* \"#utility.yul\":1785:1820   */\n      swap1\n      pop\n        /* \"#utility.yul\":1730:1826   */\n      swap2\n      swap1\n      pop\n      jump\t// out\n        /* \"#utility.yul\":1832:1954   */\n    tag_44:\n        /* \"#utility.yul\":1905:1929   */\n      tag_77\n        /* \"#utility.yul\":1923:1928   */\n      dup2\n        /* \"#utility.yul\":1905:1929   */\n      tag_43\n      jump\t// in\n    tag_77:\n        /* \"#utility.yul\":1898:1903   */\n      dup2\n        /* \"#utility.yul\":1895:1930   */\n      eq\n        /* \"#utility.yul\":1885:1948   */\n      tag_78\n      jumpi\n        /* \"#utility.yul\":1944:1945   */\n      0x00\n        /* \"#utility.yul\":1941:1942   */\n      0x00\n        /* \"#utility.yul\":1934:1946   */\n      revert\n        /* \"#utility.yul\":1885:1948   */\n    tag_78:\n        /* \"#utility.yul\":1832:1954   */\n      pop\n      jump\t// out\n        /* \"#utility.yul\":1960:2099   */\n    tag_45:\n        /* \"#utility.yul\":2006:2011   */\n      0x00\n        /* \"#utility.yul\":2044:2050   */\n      dup2\n        /* \"#utility.yul\":2031:2051   */\n      calldataload\n        /* \"#utility.yul\":2022:2051   */\n      swap1\n      pop\n        /* \"#utility.yul\":2060:2093   */\n      tag_80\n        /* \"#utility.yul\":2087:2092   */\n      dup2\n        /* \"#utility.yul\":2060:2093   */\n      tag_44\n      jump\t// in\n    tag_80:\n        /* \"#utility.yul\":1960:2099   */\n      swap3\n      swap2\n      pop\n      pop\n      jump\t// out\n        /* \"#utility.yul\":2105:2434   */\n    tag_15:\n        /* \"#utility.yul\":2164:2170   */\n      0x00\n        /* \"#utility.yul\":2213:2215   */\n      0x20\n        /* \"#utility.yul\":2201:2210   */\n      dup3\n        /* \"#utility.yul\":2192:2199   */\n      dup5\n        /* \"#utility.yul\":2188:2211   */\n      sub\n        /* \"#utility.yul\":2184:2216   */\n      slt\n        /* \"#utility.yul\":2181:2300   */\n      iszero\n      tag_82\n      jumpi\n        /* \"#utility.yul\":2219:2298   */\n      tag_83\n      tag_34\n      jump\t// in\n    tag_83:\n        /* \"#utility.yul\":2181:2300   */\n    tag_82:\n        /* \"#utility.yul\":2339:2340   */\n      0x00\n        /* \"#utility.yul\":2364:2417   */\n      tag_84\n        /* \"#utility.yul\":2409:2416   */\n      dup5\n        /* \"#utility.yul\":2400:2406   */\n      dup3\n        /* \"#utility.yul\":2389:2398   */\n      dup6\n        /* \"#utility.yul\":2385:2407   */\n      add\n        /* \"#utility.yul\":2364:2417   */\n      tag_45\n      jump\t// in\n    tag_84:\n        /* \"#utility.yul\":2354:2417   */\n      swap2\n      pop\n        /* \"#utility.yul\":2310:2427   */\n      pop\n        /* \"#utility.yul\":2105:2434   */\n      swap3\n      swap2\n      pop\n      pop\n      jump\t// out\n        /* \"#utility.yul\":2440:2552   */\n    tag_46:\n        /* \"#utility.yul\":2523:2545   */\n      tag_86\n        /* \"#utility.yul\":2539:2544   */\n      dup2\n        /* \"#utility.yul\":2523:2545   */\n      tag_40\n      jump\t// in\n    tag_86:\n        /* \"#utility.yul\":2518:2521   */\n      dup3\n        /* \"#utility.yul\":2511:2546   */\n      mstore\n        /* \"#utility.yul\":2440:2552   */\n      pop\n      pop\n      jump\t// out\n        /* \"#utility.yul\":2558:2772   */\n    tag_18:\n        /* \"#utility.yul\":2647:2651   */\n      0x00\n        /* \"#utility.yul\":2685:2687   */\n      0x20\n        /* \"#utility.yul\":2674:2683   */\n      dup3\n        /* \"#utility.yul\":2670:2688   */\n      add\n        /* \"#utility.yul\":2662:2688   */\n      swap1\n      pop\n        /* \"#utility.yul\":2698:2765   */\n      tag_88\n        /* \"#utility.yul\":2762:2763   */\n      0x00\n        /* \"#utility.yul\":2751:2760   */\n      dup4\n        /* \"#utility.yul\":2747:2764   */\n      add\n        /* \"#utility.yul\":2738:2744   */\n      dup5\n        /* \"#utility.yul\":2698:2765   */\n      tag_46\n      jump\t// in\n    tag_88:\n        /* \"#utility.yul\":2558:2772   */\n      swap3\n      swap2\n      pop\n      pop\n      jump\t// out\n        /* \"#utility.yul\":2778:2947   */\n    tag_47:\n        /* \"#utility.yul\":2862:2873   */\n      0x00\n        /* \"#utility.yul\":2896:2902   */\n      dup3\n        /* \"#utility.yul\":2891:2894   */\n      dup3\n        /* \"#utility.yul\":2884:2903   */\n      mstore\n        /* \"#utility.yul\":2936:2940   */\n      0x20\n        /* \"#utility.yul\":2931:2934   */\n      dup3\n        /* \"#utility.yul\":2927:2941   */\n      add\n        /* \"#utility.yul\":2912:2941   */\n      swap1\n      pop\n        /* \"#utility.yul\":2778:2947   */\n      swap3\n      swap2\n      pop\n      pop\n      jump\t// out\n        /* \"#utility.yul\":2953:3130   */\n    tag_48:\n        /* \"#utility.yul\":3093:3122   */\n      0x4e6f7420656e6f7567682066756e64732c2061626f7274696e67210000000000\n        /* \"#utility.yul\":3089:3090   */\n      0x00\n        /* \"#utility.yul\":3081:3087   */\n      dup3\n        /* \"#utility.yul\":3077:3091   */\n      add\n        /* \"#utility.yul\":3070:3123   */\n      mstore\n        /* \"#utility.yul\":2953:3130   */\n      pop\n      jump\t// out\n        /* \"#utility.yul\":3136:3502   */\n    tag_49:\n        /* \"#utility.yul\":3278:3281   */\n      0x00\n        /* \"#utility.yul\":3299:3366   */\n      tag_92\n        /* \"#utility.yul\":3363:3365   */\n      0x1b\n        /* \"#utility.yul\":3358:3361   */\n      dup4\n        /* \"#utility.yul\":3299:3366   */\n      tag_47\n      jump\t// in\n    tag_92:\n        /* \"#utility.yul\":3292:3366   */\n      swap2\n      pop\n        /* \"#utility.yul\":3375:3468   */\n      tag_93\n        /* \"#utility.yul\":3464:3467   */\n      dup3\n        /* \"#utility.yul\":3375:3468   */\n      tag_48\n      jump\t// in\n    tag_93:\n        /* \"#utility.yul\":3493:3495   */\n      0x20\n        /* \"#utility.yul\":3488:3491   */\n      dup3\n        /* \"#utility.yul\":3484:3496   */\n      add\n        /* \"#utility.yul\":3477:3496   */\n      swap1\n      pop\n        /* \"#utility.yul\":3136:3502   */\n      swap2\n      swap1\n      pop\n      jump\t// out\n        /* \"#utility.yul\":3508:3927   */\n    tag_22:\n        /* \"#utility.yul\":3674:3678   */\n      0x00\n        /* \"#utility.yul\":3712:3714   */\n      0x20\n        /* \"#utility.yul\":3701:3710   */\n      dup3\n        /* \"#utility.yul\":3697:3715   */\n      add\n        /* \"#utility.yul\":3689:3715   */\n      swap1\n      pop\n        /* \"#utility.yul\":3761:3770   */\n      dup2\n        /* \"#utility.yul\":3755:3759   */\n      dup2\n        /* \"#utility.yul\":3751:3771   */\n      sub\n        /* \"#utility.yul\":3747:3748   */\n      0x00\n        /* \"#utility.yul\":3736:3745   */\n      dup4\n        /* \"#utility.yul\":3732:3749   */\n      add\n        /* \"#utility.yul\":3725:3772   */\n      mstore\n        /* \"#utility.yul\":3789:3920   */\n      tag_95\n        /* \"#utility.yul\":3915:3919   */\n      dup2\n        /* \"#utility.yul\":3789:3920   */\n      tag_49\n      jump\t// in\n    tag_95:\n        /* \"#utility.yul\":3781:3920   */\n      swap1\n      pop\n        /* \"#utility.yul\":3508:3927   */\n      swap2\n      swap1\n      pop\n      jump\t// out\n        /* \"#utility.yul\":3933:4113   */\n    tag_50:\n        /* \"#utility.yul\":3981:4058   */\n      0x4e487b7100000000000000000000000000000000000000000000000000000000\n        /* \"#utility.yul\":3978:3979   */\n      0x00\n        /* \"#utility.yul\":3971:4059   */\n      mstore\n        /* \"#utility.yul\":4078:4082   */\n      0x11\n        /* \"#utility.yul\":4075:4076   */\n      0x04\n        /* \"#utility.yul\":4068:4083   */\n      mstore\n        /* \"#utility.yul\":4102:4106   */\n      0x24\n        /* \"#utility.yul\":4099:4100   */\n      0x00\n        /* \"#utility.yul\":4092:4107   */\n      revert\n        /* \"#utility.yul\":4119:4310   */\n    tag_24:\n        /* \"#utility.yul\":4157:4161   */\n      0x00\n        /* \"#utility.yul\":4177:4195   */\n      tag_98\n        /* \"#utility.yul\":4193:4194   */\n      dup3\n        /* \"#utility.yul\":4177:4195   */\n      tag_40\n      jump\t// in\n    tag_98:\n        /* \"#utility.yul\":4172:4195   */\n      swap2\n      pop\n        /* \"#utility.yul\":4209:4227   */\n      tag_99\n        /* \"#utility.yul\":4225:4226   */\n      dup4\n        /* \"#utility.yul\":4209:4227   */\n      tag_40\n      jump\t// in\n    tag_99:\n        /* \"#utility.yul\":4204:4227   */\n      swap3\n      pop\n        /* \"#utility.yul\":4251:4252   */\n      dup3\n        /* \"#utility.yul\":4248:4249   */\n      dup3\n        /* \"#utility.yul\":4244:4253   */\n      sub\n        /* \"#utility.yul\":4236:4253   */\n      swap1\n      pop\n        /* \"#utility.yul\":4275:4279   */\n      0xff\n        /* \"#utility.yul\":4269:4273   */\n      dup2\n        /* \"#utility.yul\":4266:4280   */\n      gt\n        /* \"#utility.yul\":4263:4303   */\n      iszero\n      tag_100\n      jumpi\n        /* \"#utility.yul\":4283:4301   */\n      tag_101\n      tag_50\n      jump\t// in\n    tag_101:\n        /* \"#utility.yul\":4263:4303   */\n    tag_100:\n        /* \"#utility.yul\":4119:4310   */\n      swap3\n      swap2\n      pop\n      pop\n      jump\t// out\n        /* \"#utility.yul\":4316:4496   */\n    tag_30:\n        /* \"#utility.yul\":4364:4441   */\n      0x4e487b7100000000000000000000000000000000000000000000000000000000\n        /* \"#utility.yul\":4361:4362   */\n      0x00\n        /* \"#utility.yul\":4354:4442   */\n      mstore\n        /* \"#utility.yul\":4461:4465   */\n      0x01\n        /* \"#utility.yul\":4458:4459   */\n      0x04\n        /* \"#utility.yul\":4451:4466   */\n      mstore\n        /* \"#utility.yul\":4485:4489   */\n      0x24\n        /* \"#utility.yul\":4482:4483   */\n      0x00\n        /* \"#utility.yul\":4475:4490   */\n      revert\n        /* \"#utility.yul\":4502:4690   */\n    tag_32:\n        /* \"#utility.yul\":4540:4543   */\n      0x00\n        /* \"#utility.yul\":4559:4577   */\n      tag_104\n        /* \"#utility.yul\":4575:4576   */\n      dup3\n        /* \"#utility.yul\":4559:4577   */\n      tag_40\n      jump\t// in\n    tag_104:\n        /* \"#utility.yul\":4554:4577   */\n      swap2\n      pop\n        /* \"#utility.yul\":4591:4609   */\n      tag_105\n        /* \"#utility.yul\":4607:4608   */\n      dup4\n        /* \"#utility.yul\":4591:4609   */\n      tag_40\n      jump\t// in\n    tag_105:\n        /* \"#utility.yul\":4586:4609   */\n      swap3\n      pop\n        /* \"#utility.yul\":4632:4633   */\n      dup3\n        /* \"#utility.yul\":4629:4630   */\n      dup3\n        /* \"#utility.yul\":4625:4634   */\n      add\n        /* \"#utility.yul\":4618:4634   */\n      swap1\n      pop\n        /* \"#utility.yul\":4655:4659   */\n      0xff\n        /* \"#utility.yul\":4650:4653   */\n      dup2\n        /* \"#utility.yul\":4647:4660   */\n      gt\n        /* \"#utility.yul\":4644:4683   */\n      iszero\n      tag_106\n      jumpi\n        /* \"#utility.yul\":4663:4681   */\n      tag_107\n      tag_50\n      jump\t// in\n    tag_107:\n        /* \"#utility.yul\":4644:4683   */\n    tag_106:\n        /* \"#utility.yul\":4502:4690   */\n      swap3\n      swap2\n      pop\n      pop\n      jump\t// out\n\n    auxdata: 0xa2646970667358221220fee36f102223fcf189d02170a3ec2cac3fb84f7861ccba6c6630f354034c04ea64736f6c634300081e0033\n}\n",
				"bytecode": {
					"linkReferences": {},
					"object": "6080604052348015600e575f5ffd5b506105608061001c5f395ff3fe608060405260043610610033575f3560e01c806367c114b8146100375780636d26ec181461005f578063d18a42e114610069575b5f5ffd5b348015610042575f5ffd5b5061005d60048036038101906100589190610324565b6100a5565b005b6100676101f0565b005b348015610074575f5ffd5b5061008f600480360381019061008a919061039d565b610274565b60405161009c91906103d7565b60405180910390f35b5f5f3373ffffffffffffffffffffffffffffffffffffffff1673ffffffffffffffffffffffffffffffffffffffff1681526020019081526020015f205f9054906101000a900460ff1660ff168160ff161115610136576040517f08c379a000000000000000000000000000000000000000000000000000000000815260040161012d9061044a565b60405180910390fd5b805f5f3373ffffffffffffffffffffffffffffffffffffffff1673ffffffffffffffffffffffffffffffffffffffff1681526020019081526020015f205f8282829054906101000a900460ff1661018d9190610495565b92506101000a81548160ff021916908360ff1602179055508173ffffffffffffffffffffffffffffffffffffffff166108fc8260ff1690811502906040515f60405180830381858888f193505050501580156101eb573d5f5f3e3d5ffd5b505050565b3460ff163414610203576102026104c9565b5b345f5f3373ffffffffffffffffffffffffffffffffffffffff1673ffffffffffffffffffffffffffffffffffffffff1681526020019081526020015f205f8282829054906101000a900460ff1661025a91906104f6565b92506101000a81548160ff021916908360ff160217905550565b5f602052805f5260405f205f915054906101000a900460ff1681565b5f5ffd5b5f73ffffffffffffffffffffffffffffffffffffffff82169050919050565b5f6102bd82610294565b9050919050565b6102cd816102b3565b81146102d7575f5ffd5b50565b5f813590506102e8816102c4565b92915050565b5f60ff82169050919050565b610303816102ee565b811461030d575f5ffd5b50565b5f8135905061031e816102fa565b92915050565b5f5f6040838503121561033a57610339610290565b5b5f610347858286016102da565b925050602061035885828601610310565b9150509250929050565b5f61036c82610294565b9050919050565b61037c81610362565b8114610386575f5ffd5b50565b5f8135905061039781610373565b92915050565b5f602082840312156103b2576103b1610290565b5b5f6103bf84828501610389565b91505092915050565b6103d1816102ee565b82525050565b5f6020820190506103ea5f8301846103c8565b92915050565b5f82825260208201905092915050565b7f4e6f7420656e6f7567682066756e64732c2061626f7274696e672100000000005f82015250565b5f610434601b836103f0565b915061043f82610400565b602082019050919050565b5f6020820190508181035f83015261046181610428565b9050919050565b7f4e487b71000000000000000000000000000000000000000000000000000000005f52601160045260245ffd5b5f61049f826102ee565b91506104aa836102ee565b9250828203905060ff8111156104c3576104c2610468565b5b92915050565b7f4e487b71000000000000000000000000000000000000000000000000000000005f52600160045260245ffd5b5f610500826102ee565b915061050b836102ee565b9250828201905060ff81111561052457610523610468565b5b9291505056fea2646970667358221220fee36f102223fcf189d02170a3ec2cac3fb84f7861ccba6c6630f354034c04ea64736f6c634300081e0033",
					"opcodes": "PUSH1 0x80 PUSH1 0x40 MSTORE CALLVALUE DUP1 ISZERO PUSH1 0xE JUMPI PUSH0 PUSH0 REVERT JUMPDEST POP PUSH2 0x560 DUP1 PUSH2 0x1C PUSH0 CODECOPY PUSH0 RETURN INVALID PUSH1 0x80 PUSH1 0x40 MSTORE PUSH1 0x4 CALLDATASIZE LT PUSH2 0x33 JUMPI PUSH0 CALLDATALOAD PUSH1 0xE0 SHR DUP1 PUSH4 0x67C114B8 EQ PUSH2 0x37 JUMPI DUP1 PUSH4 0x6D26EC18 EQ PUSH2 0x5F JUMPI DUP1 PUSH4 0xD18A42E1 EQ PUSH2 0x69 JUMPI JUMPDEST PUSH0 PUSH0 REVERT JUMPDEST CALLVALUE DUP1 ISZERO PUSH2 0x42 JUMPI PUSH0 PUSH0 REVERT JUMPDEST POP PUSH2 0x5D PUSH1 0x4 DUP1 CALLDATASIZE SUB DUP2 ADD SWAP1 PUSH2 0x58 SWAP2 SWAP1 PUSH2 0x324 JUMP JUMPDEST PUSH2 0xA5 JUMP JUMPDEST STOP JUMPDEST PUSH2 0x67 PUSH2 0x1F0 JUMP JUMPDEST STOP JUMPDEST CALLVALUE DUP1 ISZERO PUSH2 0x74 JUMPI PUSH0 PUSH0 REVERT JUMPDEST POP PUSH2 0x8F PUSH1 0x4 DUP1 CALLDATASIZE SUB DUP2 ADD SWAP1 PUSH2 0x8A SWAP2 SWAP1 PUSH2 0x39D JUMP JUMPDEST PUSH2 0x274 JUMP JUMPDEST PUSH1 0x40 MLOAD PUSH2 0x9C SWAP2 SWAP1 PUSH2 0x3D7 JUMP JUMPDEST PUSH1 0x40 MLOAD DUP1 SWAP2 SUB SWAP1 RETURN JUMPDEST PUSH0 PUSH0 CALLER PUSH20 0xFFFFFFFFFFFFFFFFFFFFFFFFFFFFFFFFFFFFFFFF AND PUSH20 0xFFFFFFFFFFFFFFFFFFFFFFFFFFFFFFFFFFFFFFFF AND DUP2 MSTORE PUSH1 0x20 ADD SWAP1 DUP2 MSTORE PUSH1 0x20 ADD PUSH0 KECCAK256 PUSH0 SWAP1 SLOAD SWAP1 PUSH2 0x100 EXP SWAP1 DIV PUSH1 0xFF AND PUSH1 0xFF AND DUP2 PUSH1 0xFF AND GT ISZERO PUSH2 0x136 JUMPI PUSH1 0x40 MLOAD PUSH32 0x8C379A000000000000000000000000000000000000000000000000000000000 DUP2 MSTORE PUSH1 0x4 ADD PUSH2 0x12D SWAP1 PUSH2 0x44A JUMP JUMPDEST PUSH1 0x40 MLOAD DUP1 SWAP2 SUB SWAP1 REVERT JUMPDEST DUP1 PUSH0 PUSH0 CALLER PUSH20 0xFFFFFFFFFFFFFFFFFFFFFFFFFFFFFFFFFFFFFFFF AND PUSH20 0xFFFFFFFFFFFFFFFFFFFFFFFFFFFFFFFFFFFFFFFF AND DUP2 MSTORE PUSH1 0x20 ADD SWAP1 DUP2 MSTORE PUSH1 0x20 ADD PUSH0 KECCAK256 PUSH0 DUP3 DUP3 DUP3 SWAP1 SLOAD SWAP1 PUSH2 0x100 EXP SWAP1 DIV PUSH1 0xFF AND PUSH2 0x18D SWAP2 SWAP1 PUSH2 0x495 JUMP JUMPDEST SWAP3 POP PUSH2 0x100 EXP DUP2 SLOAD DUP2 PUSH1 0xFF MUL NOT AND SWAP1 DUP4 PUSH1 0xFF AND MUL OR SWAP1 SSTORE POP DUP2 PUSH20 0xFFFFFFFFFFFFFFFFFFFFFFFFFFFFFFFFFFFFFFFF AND PUSH2 0x8FC DUP3 PUSH1 0xFF AND SWAP1 DUP2 ISZERO MUL SWAP1 PUSH1 0x40 MLOAD PUSH0 PUSH1 0x40 MLOAD DUP1 DUP4 SUB DUP2 DUP6 DUP9 DUP9 CALL SWAP4 POP POP POP POP ISZERO DUP1 ISZERO PUSH2 0x1EB JUMPI RETURNDATASIZE PUSH0 PUSH0 RETURNDATACOPY RETURNDATASIZE PUSH0 REVERT JUMPDEST POP POP POP JUMP JUMPDEST CALLVALUE PUSH1 0xFF AND CALLVALUE EQ PUSH2 0x203 JUMPI PUSH2 0x202 PUSH2 0x4C9 JUMP JUMPDEST JUMPDEST CALLVALUE PUSH0 PUSH0 CALLER PUSH20 0xFFFFFFFFFFFFFFFFFFFFFFFFFFFFFFFFFFFFFFFF AND PUSH20 0xFFFFFFFFFFFFFFFFFFFFFFFFFFFFFFFFFFFFFFFF AND DUP2 MSTORE PUSH1 0x20 ADD SWAP1 DUP2 MSTORE PUSH1 0x20 ADD PUSH0 KECCAK256 PUSH0 DUP3 DUP3 DUP3 SWAP1 SLOAD SWAP1 PUSH2 0x100 EXP SWAP1 DIV PUSH1 0xFF AND PUSH2 0x25A SWAP2 SWAP1 PUSH2 0x4F6 JUMP JUMPDEST SWAP3 POP PUSH2 0x100 EXP DUP2 SLOAD DUP2 PUSH1 0xFF MUL NOT AND SWAP1 DUP4 PUSH1 0xFF AND MUL OR SWAP1 SSTORE POP JUMP JUMPDEST PUSH0 PUSH1 0x20 MSTORE DUP1 PUSH0 MSTORE PUSH1 0x40 PUSH0 KECCAK256 PUSH0 SWAP2 POP SLOAD SWAP1 PUSH2 0x100 EXP SWAP1 DIV PUSH1 0xFF AND DUP2 JUMP JUMPDEST PUSH0 PUSH0 REVERT JUMPDEST PUSH0 PUSH20 0xFFFFFFFFFFFFFFFFFFFFFFFFFFFFFFFFFFFFFFFF DUP3 AND SWAP1 POP SWAP2 SWAP1 POP JUMP JUMPDEST PUSH0 PUSH2 0x2BD DUP3 PUSH2 0x294 JUMP JUMPDEST SWAP1 POP SWAP2 SWAP1 POP JUMP JUMPDEST PUSH2 0x2CD DUP2 PUSH2 0x2B3 JUMP JUMPDEST DUP2 EQ PUSH2 0x2D7 JUMPI PUSH0 PUSH0 REVERT JUMPDEST POP JUMP JUMPDEST PUSH0 DUP2 CALLDATALOAD SWAP1 POP PUSH2 0x2E8 DUP2 PUSH2 0x2C4 JUMP JUMPDEST SWAP3 SWAP2 POP POP JUMP JUMPDEST PUSH0 PUSH1 0xFF DUP3 AND SWAP1 POP SWAP2 SWAP1 POP JUMP JUMPDEST PUSH2 0x303 DUP2 PUSH2 0x2EE JUMP JUMPDEST DUP2 EQ PUSH2 0x30D JUMPI PUSH0 PUSH0 REVERT JUMPDEST POP JUMP JUMPDEST PUSH0 DUP2 CALLDATALOAD SWAP1 POP PUSH2 0x31E DUP2 PUSH2 0x2FA JUMP JUMPDEST SWAP3 SWAP2 POP POP JUMP JUMPDEST PUSH0 PUSH0 PUSH1 0x40 DUP4 DUP6 SUB SLT ISZERO PUSH2 0x33A JUMPI PUSH2 0x339 PUSH2 0x290 JUMP JUMPDEST JUMPDEST PUSH0 PUSH2 0x347 DUP6 DUP3 DUP7 ADD PUSH2 0x2DA JUMP JUMPDEST SWAP3 POP POP PUSH1 0x20 PUSH2 0x358 DUP6 DUP3 DUP7 ADD PUSH2 0x310 JUMP JUMPDEST SWAP2 POP POP SWAP3 POP SWAP3 SWAP1 POP JUMP JUMPDEST PUSH0 PUSH2 0x36C DUP3 PUSH2 0x294 JUMP JUMPDEST SWAP1 POP SWAP2 SWAP1 POP JUMP JUMPDEST PUSH2 0x37C DUP2 PUSH2 0x362 JUMP JUMPDEST DUP2 EQ PUSH2 0x386 JUMPI PUSH0 PUSH0 REVERT JUMPDEST POP JUMP JUMPDEST PUSH0 DUP2 CALLDATALOAD SWAP1 POP PUSH2 0x397 DUP2 PUSH2 0x373 JUMP JUMPDEST SWAP3 SWAP2 POP POP JUMP JUMPDEST PUSH0 PUSH1 0x20 DUP3 DUP5 SUB SLT ISZERO PUSH2 0x3B2 JUMPI PUSH2 0x3B1 PUSH2 0x290 JUMP JUMPDEST JUMPDEST PUSH0 PUSH2 0x3BF DUP5 DUP3 DUP6 ADD PUSH2 0x389 JUMP JUMPDEST SWAP2 POP POP SWAP3 SWAP2 POP POP JUMP JUMPDEST PUSH2 0x3D1 DUP2 PUSH2 0x2EE JUMP JUMPDEST DUP3 MSTORE POP POP JUMP JUMPDEST PUSH0 PUSH1 0x20 DUP3 ADD SWAP1 POP PUSH2 0x3EA PUSH0 DUP4 ADD DUP5 PUSH2 0x3C8 JUMP JUMPDEST SWAP3 SWAP2 POP POP JUMP JUMPDEST PUSH0 DUP3 DUP3 MSTORE PUSH1 0x20 DUP3 ADD SWAP1 POP SWAP3 SWAP2 POP POP JUMP JUMPDEST PUSH32 0x4E6F7420656E6F7567682066756E64732C2061626F7274696E67210000000000 PUSH0 DUP3 ADD MSTORE POP JUMP JUMPDEST PUSH0 PUSH2 0x434 PUSH1 0x1B DUP4 PUSH2 0x3F0 JUMP JUMPDEST SWAP2 POP PUSH2 0x43F DUP3 PUSH2 0x400 JUMP JUMPDEST PUSH1 0x20 DUP3 ADD SWAP1 POP SWAP2 SWAP1 POP JUMP JUMPDEST PUSH0 PUSH1 0x20 DUP3 ADD SWAP1 POP DUP2 DUP2 SUB PUSH0 DUP4 ADD MSTORE PUSH2 0x461 DUP2 PUSH2 0x428 JUMP JUMPDEST SWAP1 POP SWAP2 SWAP1 POP JUMP JUMPDEST PUSH32 0x4E487B7100000000000000000000000000000000000000000000000000000000 PUSH0 MSTORE PUSH1 0x11 PUSH1 0x4 MSTORE PUSH1 0x24 PUSH0 REVERT JUMPDEST PUSH0 PUSH2 0x49F DUP3 PUSH2 0x2EE JUMP JUMPDEST SWAP2 POP PUSH2 0x4AA DUP4 PUSH2 0x2EE JUMP JUMPDEST SWAP3 POP DUP3 DUP3 SUB SWAP1 POP PUSH1 0xFF DUP2 GT ISZERO PUSH2 0x4C3 JUMPI PUSH2 0x4C2 PUSH2 0x468 JUMP JUMPDEST JUMPDEST SWAP3 SWAP2 POP POP JUMP JUMPDEST PUSH32 0x4E487B7100000000000000000000000000000000000000000000000000000000 PUSH0 MSTORE PUSH1 0x1 PUSH1 0x4 MSTORE PUSH1 0x24 PUSH0 REVERT JUMPDEST PUSH0 PUSH2 0x500 DUP3 PUSH2 0x2EE JUMP JUMPDEST SWAP2 POP PUSH2 0x50B DUP4 PUSH2 0x2EE JUMP JUMPDEST SWAP3 POP DUP3 DUP3 ADD SWAP1 POP PUSH1 0xFF DUP2 GT ISZERO PUSH2 0x524 JUMPI PUSH2 0x523 PUSH2 0x468 JUMP JUMPDEST JUMPDEST SWAP3 SWAP2 POP POP JUMP INVALID LOG2 PUSH5 0x6970667358 0x22 SLT KECCAK256 INVALID CALLF 0x6F10 0x22 0x23 0xFC CALL DUP10 0xD0 0x21 PUSH17 0xA3EC2CAC3FB84F7861CCBA6C6630F35403 0x4C DIV 0xEA PUSH5 0x736F6C6343 STOP ADDMOD 0x1E STOP CALLER "
				},
				"gasEstimates": {
					"creation": {
						"codeDepositCost": "275200",
						"executionCost": "310",
						"totalCost": "275510"
					},
					"external": {
						"balanceReceived(address)": "2854",
						"receiveMoney()": "infinite",
						"withdrawMoney(address,uint8)": "infinite"
					}
				},
				"methodIdentifiers": {
					"balanceReceived(address)": "d18a42e1",
					"receiveMoney()": "6d26ec18",
					"withdrawMoney(address,uint8)": "67c114b8"
				}
			},
			"storageLayout": {
				"storage": [
					{
						"astId": 5,
						"contract": "contracts/ExceptionHandling.sol:ExceptionHandling",
						"label": "balanceReceived",
						"offset": 0,
						"slot": "0",
						"type": "t_mapping(t_address,t_uint8)"
					}
				],
				"types": {
					"t_address": {
						"encoding": "inplace",
						"label": "address",
						"numberOfBytes": "20"
					},
					"t_mapping(t_address,t_uint8)": {
						"encoding": "mapping",
						"key": "t_address",
						"label": "mapping(address => uint8)",
						"numberOfBytes": "32",
						"value": "t_uint8"
					},
					"t_uint8": {
						"encoding": "inplace",
						"label": "uint8",
						"numberOfBytes": "1"
					}
				}
			},
			"userdoc": {
				"kind": "user",
				"methods": {},
				"version": 1
			}
		}
	}
}