{
	"contracts/DataTypes.sol": {
		"DataTypes": {
			"abi": [
				{
					"inputs": [
						{
							"internalType": "string",
							"name": "_myString",
							"type": "string"
						}
					],
					"name": "compareTwoStrings",
					"outputs": [
						{
							"internalType": "bool",
							"name": "",
							"type": "bool"
						}
					],
					"stateMutability": "view",
					"type": "function"
				},
				{
					"inputs": [],
					"name": "getAddressBalance",
					"outputs": [
						{
							"internalType": "uint256",
							"name": "",
							"type": "uint256"
						}
					],
					"stateMutability": "view",
					"type": "function"
				},
				{
					"inputs": [],
					"name": "incMyUint8",
					"outputs": [],
					"stateMutability": "nonpayable",
					"type": "function"
				},
				{
					"inputs": [],
					"name": "myAddress",
					"outputs": [
						{
							"internalType": "address",
							"name": "",
							"type": "address"
						}
					],
					"stateMutability": "view",
					"type": "function"
				},
				{
					"inputs": [
						{
							"internalType": "address",
							"name": "",
							"type": "address"
						}
					],
					"name": "myAddressMapping",
					"outputs": [
						{
							"internalType": "bool",
							"name": "",
							"type": "bool"
						}
					],
					"stateMutability": "view",
					"type": "function"
				},
				{
					"inputs": [],
					"name": "myBool",
					"outputs": [
						{
							"internalType": "bool",
							"name": "",
							"type": "bool"
						}
					],
					"stateMutability": "view",
					"type": "function"
				},
				{
					"inputs": [],
					"name": "myByte",
					"outputs": [
						{
							"internalType": "bytes",
							"name": "",
							"type": "bytes"
						}
					],
					"stateMutability": "view",
					"type": "function"
				},
				{
					"inputs": [
						{
							"internalType": "uint256",
							"name": "",
							"type": "uint256"
						}
					],
					"name": "myMapping",
					"outputs": [
						{
							"internalType": "bool",
							"name": "",
							"type": "bool"
						}
					],
					"stateMutability": "view",
					"type": "function"
				},
				{
					"inputs": [],
					"name": "myString",
					"outputs": [
						{
							"internalType": "string",
							"name": "",
							"type": "string"
						}
					],
					"stateMutability": "view",
					"type": "function"
				},
				{
					"inputs": [],
					"name": "myUint",
					"outputs": [
						{
							"internalType": "uint256",
							"name": "",
							"type": "uint256"
						}
					],
					"stateMutability": "view",
					"type": "function"
				},
				{
					"inputs": [],
					"name": "myUint8",
					"outputs": [
						{
							"internalType": "uint8",
							"name": "",
							"type": "uint8"
						}
					],
					"stateMutability": "view",
					"type": "function"
				},
				{
					"inputs": [
						{
							"internalType": "address",
							"name": "_myAddress",
							"type": "address"
						}
					],
					"name": "setAddress",
					"outputs": [],
					"stateMutability": "nonpayable",
					"type": "function"
				},
				{
					"inputs": [],
					"name": "setMyAddressToTrue",
					"outputs": [],
					"stateMutability": "nonpayable",
					"type": "function"
				},
				{
					"inputs": [
						{
							"internalType": "bool",
							"name": "_myBool",
							"type": "bool"
						}
					],
					"name": "setMyBool",
					"outputs": [],
					"stateMutability": "nonpayable",
					"type": "function"
				},
				{
					"inputs": [
						{
							"internalType": "bytes",
							"name": "_myByte",
							"type": "bytes"
						}
					],
					"name": "setMyByte",
					"outputs": [],
					"stateMutability": "nonpayable",
					"type": "function"
				},
				{
					"inputs": [
						{
							"internalType": "string",
							"name": "_myString",
							"type": "string"
						}
					],
					"name": "setMyString",
					"outputs": [],
					"stateMutability": "nonpayable",
					"type": "function"
				},
				{
					"inputs": [
						{
							"internalType": "uint256",
							"name": "_myUint",
							"type": "uint256"
						}
					],
					"name": "setMyUint",
					"outputs": [],
					"stateMutability": "nonpayable",
					"type": "function"
				},
				{
					"inputs": [
						{
							"internalType": "uint256",
							"name": "_index",
							"type": "uint256"
						}
					],
					"name": "setValue",
					"outputs": [],
					"stateMutability": "nonpayable",
					"type": "function"
				},
				{
					"inputs": [],
					"name": "someAddress",
					"outputs": [
						{
							"internalType": "address",
							"name": "",
							"type": "address"
						}
					],
					"stateMutability": "view",
					"type": "function"
				},
				{
					"inputs": [],
					"name": "updateSomeAddress",
					"outputs": [],
					"stateMutability": "nonpayable",
					"type": "function"
				}
			],
			"devdoc": {
				"kind": "dev",
				"methods": {},
				"version": 1
			},
			"evm": {
				"assembly": "    /* \"contracts/DataTypes.sol\":57:1673  contract DataTypes{... */\n  mstore(0x40, 0x80)\n    /* \"contracts/DataTypes.sol\":313:316  250 */\n  0xfa\n    /* \"contracts/DataTypes.sol\":290:316  uint8 public myUint8 = 250 */\n  0x02\n  exp(0x0100, 0x00)\n  dup2\n  sload\n  dup2\n  0xff\n  mul\n  not\n  and\n  swap1\n  dup4\n  0xff\n  and\n  mul\n  or\n  swap1\n  sstore\n  pop\n    /* \"contracts/DataTypes.sol\":520:558  string public myString = \"Hello World\" */\n  mload(0x40)\n  dup1\n  0x40\n  add\n  0x40\n  mstore\n  dup1\n  0x0b\n  dup2\n  mstore\n  0x20\n  add\n  0x48656c6c6f20576f726c64000000000000000000000000000000000000000000\n  dup2\n  mstore\n  pop\n  0x03\n  swap1\n  dup2\n  tag_1\n  swap2\n  swap1\n  tag_2\n  jump\t// in\ntag_1:\n  pop\n    /* \"contracts/DataTypes.sol\":859:894  bytes public myByte = \"Hello World\" */\n  mload(0x40)\n  dup1\n  0x40\n  add\n  0x40\n  mstore\n  dup1\n  0x0b\n  dup2\n  mstore\n  0x20\n  add\n  0x48656c6c6f20576f726c64000000000000000000000000000000000000000000\n  dup2\n  mstore\n  pop\n  0x04\n  swap1\n  dup2\n  tag_3\n  swap2\n  swap1\n  tag_4\n  jump\t// in\ntag_3:\n  pop\n    /* \"contracts/DataTypes.sol\":57:1673  contract DataTypes{... */\n  callvalue\n  dup1\n  iszero\n  tag_5\n  jumpi\n  revert(0x00, 0x00)\ntag_5:\n  pop\n  jump(tag_6)\n    /* \"#utility.yul\":7:106   */\ntag_7:\n    /* \"#utility.yul\":59:65   */\n  0x00\n    /* \"#utility.yul\":93:98   */\n  dup2\n    /* \"#utility.yul\":87:99   */\n  mload\n    /* \"#utility.yul\":77:99   */\n  swap1\n  pop\n    /* \"#utility.yul\":7:106   */\n  swap2\n  swap1\n  pop\n  jump\t// out\n    /* \"#utility.yul\":112:292   */\ntag_8:\n    /* \"#utility.yul\":160:237   */\n  0x4e487b7100000000000000000000000000000000000000000000000000000000\n    /* \"#utility.yul\":157:158   */\n  0x00\n    /* \"#utility.yul\":150:238   */\n  mstore\n    /* \"#utility.yul\":257:261   */\n  0x41\n    /* \"#utility.yul\":254:255   */\n  0x04\n    /* \"#utility.yul\":247:262   */\n  mstore\n    /* \"#utility.yul\":281:285   */\n  0x24\n    /* \"#utility.yul\":278:279   */\n  0x00\n    /* \"#utility.yul\":271:286   */\n  revert\n    /* \"#utility.yul\":298:478   */\ntag_9:\n    /* \"#utility.yul\":346:423   */\n  0x4e487b7100000000000000000000000000000000000000000000000000000000\n    /* \"#utility.yul\":343:344   */\n  0x00\n    /* \"#utility.yul\":336:424   */\n  mstore\n    /* \"#utility.yul\":443:447   */\n  0x22\n    /* \"#utility.yul\":440:441   */\n  0x04\n    /* \"#utility.yul\":433:448   */\n  mstore\n    /* \"#utility.yul\":467:471   */\n  0x24\n    /* \"#utility.yul\":464:465   */\n  0x00\n    /* \"#utility.yul\":457:472   */\n  revert\n    /* \"#utility.yul\":484:804   */\ntag_10:\n    /* \"#utility.yul\":528:534   */\n  0x00\n    /* \"#utility.yul\":565:566   */\n  0x02\n    /* \"#utility.yul\":559:563   */\n  dup3\n    /* \"#utility.yul\":555:567   */\n  div\n    /* \"#utility.yul\":545:567   */\n  swap1\n  pop\n    /* \"#utility.yul\":612:613   */\n  0x01\n    /* \"#utility.yul\":606:610   */\n  dup3\n    /* \"#utility.yul\":602:614   */\n  and\n    /* \"#utility.yul\":633:651   */\n  dup1\n    /* \"#utility.yul\":623:704   */\n  tag_34\n  jumpi\n    /* \"#utility.yul\":689:693   */\n  0x7f\n    /* \"#utility.yul\":681:687   */\n  dup3\n    /* \"#utility.yul\":677:694   */\n  and\n    /* \"#utility.yul\":667:694   */\n  swap2\n  pop\n    /* \"#utility.yul\":623:704   */\ntag_34:\n    /* \"#utility.yul\":751:753   */\n  0x20\n    /* \"#utility.yul\":743:749   */\n  dup3\n    /* \"#utility.yul\":740:754   */\n  lt\n    /* \"#utility.yul\":720:738   */\n  dup2\n    /* \"#utility.yul\":717:755   */\n  sub\n    /* \"#utility.yul\":714:798   */\n  tag_35\n  jumpi\n    /* \"#utility.yul\":770:788   */\n  tag_36\n  tag_9\n  jump\t// in\ntag_36:\n    /* \"#utility.yul\":714:798   */\ntag_35:\n    /* \"#utility.yul\":535:804   */\n  pop\n    /* \"#utility.yul\":484:804   */\n  swap2\n  swap1\n  pop\n  jump\t// out\n    /* \"#utility.yul\":810:951   */\ntag_11:\n    /* \"#utility.yul\":859:863   */\n  0x00\n    /* \"#utility.yul\":882:885   */\n  dup2\n    /* \"#utility.yul\":874:885   */\n  swap1\n  pop\n    /* \"#utility.yul\":905:908   */\n  dup2\n    /* \"#utility.yul\":902:903   */\n  0x00\n    /* \"#utility.yul\":895:909   */\n  mstore\n    /* \"#utility.yul\":939:943   */\n  0x20\n    /* \"#utility.yul\":936:937   */\n  0x00\n    /* \"#utility.yul\":926:944   */\n  keccak256\n    /* \"#utility.yul\":918:944   */\n  swap1\n  pop\n    /* \"#utility.yul\":810:951   */\n  swap2\n  swap1\n  pop\n  jump\t// out\n    /* \"#utility.yul\":957:1050   */\ntag_12:\n    /* \"#utility.yul\":994:1000   */\n  0x00\n    /* \"#utility.yul\":1041:1043   */\n  0x20\n    /* \"#utility.yul\":1036:1038   */\n  0x1f\n    /* \"#utility.yul\":1029:1034   */\n  dup4\n    /* \"#utility.yul\":1025:1039   */\n  add\n    /* \"#utility.yul\":1021:1044   */\n  div\n    /* \"#utility.yul\":1011:1044   */\n  swap1\n  pop\n    /* \"#utility.yul\":957:1050   */\n  swap2\n  swap1\n  pop\n  jump\t// out\n    /* \"#utility.yul\":1056:1163   */\ntag_13:\n    /* \"#utility.yul\":1100:1108   */\n  0x00\n    /* \"#utility.yul\":1150:1155   */\n  dup3\n    /* \"#utility.yul\":1144:1148   */\n  dup3\n    /* \"#utility.yul\":1140:1156   */\n  shl\n    /* \"#utility.yul\":1119:1156   */\n  swap1\n  pop\n    /* \"#utility.yul\":1056:1163   */\n  swap3\n  swap2\n  pop\n  pop\n  jump\t// out\n    /* \"#utility.yul\":1169:1562   */\ntag_14:\n    /* \"#utility.yul\":1238:1244   */\n  0x00\n    /* \"#utility.yul\":1288:1289   */\n  0x08\n    /* \"#utility.yul\":1276:1286   */\n  dup4\n    /* \"#utility.yul\":1272:1290   */\n  mul\n    /* \"#utility.yul\":1311:1408   */\n  tag_41\n    /* \"#utility.yul\":1341:1407   */\n  0xffffffffffffffffffffffffffffffffffffffffffffffffffffffffffffffff\n    /* \"#utility.yul\":1330:1339   */\n  dup3\n    /* \"#utility.yul\":1311:1408   */\n  tag_13\n  jump\t// in\ntag_41:\n    /* \"#utility.yul\":1429:1468   */\n  tag_42\n    /* \"#utility.yul\":1459:1467   */\n  dup7\n    /* \"#utility.yul\":1448:1457   */\n  dup4\n    /* \"#utility.yul\":1429:1468   */\n  tag_13\n  jump\t// in\ntag_42:\n    /* \"#utility.yul\":1417:1468   */\n  swap6\n  pop\n    /* \"#utility.yul\":1501:1505   */\n  dup1\n    /* \"#utility.yul\":1497:1506   */\n  not\n    /* \"#utility.yul\":1490:1495   */\n  dup5\n    /* \"#utility.yul\":1486:1507   */\n  and\n    /* \"#utility.yul\":1477:1507   */\n  swap4\n  pop\n    /* \"#utility.yul\":1550:1554   */\n  dup1\n    /* \"#utility.yul\":1540:1548   */\n  dup7\n    /* \"#utility.yul\":1536:1555   */\n  and\n    /* \"#utility.yul\":1529:1534   */\n  dup5\n    /* \"#utility.yul\":1526:1556   */\n  or\n    /* \"#utility.yul\":1516:1556   */\n  swap3\n  pop\n    /* \"#utility.yul\":1245:1562   */\n  pop\n  pop\n    /* \"#utility.yul\":1169:1562   */\n  swap4\n  swap3\n  pop\n  pop\n  pop\n  jump\t// out\n    /* \"#utility.yul\":1568:1645   */\ntag_15:\n    /* \"#utility.yul\":1605:1612   */\n  0x00\n    /* \"#utility.yul\":1634:1639   */\n  dup2\n    /* \"#utility.yul\":1623:1639   */\n  swap1\n  pop\n    /* \"#utility.yul\":1568:1645   */\n  swap2\n  swap1\n  pop\n  jump\t// out\n    /* \"#utility.yul\":1651:1711   */\ntag_16:\n    /* \"#utility.yul\":1679:1682   */\n  0x00\n    /* \"#utility.yul\":1700:1705   */\n  dup2\n    /* \"#utility.yul\":1693:1705   */\n  swap1\n  pop\n    /* \"#utility.yul\":1651:1711   */\n  swap2\n  swap1\n  pop\n  jump\t// out\n    /* \"#utility.yul\":1717:1859   */\ntag_17:\n    /* \"#utility.yul\":1767:1776   */\n  0x00\n    /* \"#utility.yul\":1800:1853   */\n  tag_46\n    /* \"#utility.yul\":1818:1852   */\n  tag_47\n    /* \"#utility.yul\":1827:1851   */\n  tag_48\n    /* \"#utility.yul\":1845:1850   */\n  dup5\n    /* \"#utility.yul\":1827:1851   */\n  tag_15\n  jump\t// in\ntag_48:\n    /* \"#utility.yul\":1818:1852   */\n  tag_16\n  jump\t// in\ntag_47:\n    /* \"#utility.yul\":1800:1853   */\n  tag_15\n  jump\t// in\ntag_46:\n    /* \"#utility.yul\":1787:1853   */\n  swap1\n  pop\n    /* \"#utility.yul\":1717:1859   */\n  swap2\n  swap1\n  pop\n  jump\t// out\n    /* \"#utility.yul\":1865:1940   */\ntag_18:\n    /* \"#utility.yul\":1908:1911   */\n  0x00\n    /* \"#utility.yul\":1929:1934   */\n  dup2\n    /* \"#utility.yul\":1922:1934   */\n  swap1\n  pop\n    /* \"#utility.yul\":1865:1940   */\n  swap2\n  swap1\n  pop\n  jump\t// out\n    /* \"#utility.yul\":1946:2215   */\ntag_19:\n    /* \"#utility.yul\":2056:2095   */\n  tag_51\n    /* \"#utility.yul\":2087:2094   */\n  dup4\n    /* \"#utility.yul\":2056:2095   */\n  tag_17\n  jump\t// in\ntag_51:\n    /* \"#utility.yul\":2117:2208   */\n  tag_52\n    /* \"#utility.yul\":2166:2207   */\n  tag_53\n    /* \"#utility.yul\":2190:2206   */\n  dup3\n    /* \"#utility.yul\":2166:2207   */\n  tag_18\n  jump\t// in\ntag_53:\n    /* \"#utility.yul\":2158:2164   */\n  dup5\n    /* \"#utility.yul\":2151:2155   */\n  dup5\n    /* \"#utility.yul\":2145:2156   */\n  sload\n    /* \"#utility.yul\":2117:2208   */\n  tag_14\n  jump\t// in\ntag_52:\n    /* \"#utility.yul\":2111:2115   */\n  dup3\n    /* \"#utility.yul\":2104:2209   */\n  sstore\n    /* \"#utility.yul\":2022:2215   */\n  pop\n    /* \"#utility.yul\":1946:2215   */\n  pop\n  pop\n  pop\n  jump\t// out\n    /* \"#utility.yul\":2221:2294   */\ntag_20:\n    /* \"#utility.yul\":2266:2269   */\n  0x00\n    /* \"#utility.yul\":2287:2288   */\n  0x00\n    /* \"#utility.yul\":2280:2288   */\n  swap1\n  pop\n    /* \"#utility.yul\":2221:2294   */\n  swap1\n  jump\t// out\n    /* \"#utility.yul\":2300:2489   */\ntag_21:\n    /* \"#utility.yul\":2377:2409   */\n  tag_56\n  tag_20\n  jump\t// in\ntag_56:\n    /* \"#utility.yul\":2418:2483   */\n  tag_57\n    /* \"#utility.yul\":2476:2482   */\n  dup2\n    /* \"#utility.yul\":2468:2474   */\n  dup5\n    /* \"#utility.yul\":2462:2466   */\n  dup5\n    /* \"#utility.yul\":2418:2483   */\n  tag_19\n  jump\t// in\ntag_57:\n    /* \"#utility.yul\":2353:2489   */\n  pop\n    /* \"#utility.yul\":2300:2489   */\n  pop\n  pop\n  jump\t// out\n    /* \"#utility.yul\":2495:2681   */\ntag_22:\n    /* \"#utility.yul\":2555:2675   */\ntag_59:\n    /* \"#utility.yul\":2572:2575   */\n  dup2\n    /* \"#utility.yul\":2565:2570   */\n  dup2\n    /* \"#utility.yul\":2562:2576   */\n  lt\n    /* \"#utility.yul\":2555:2675   */\n  iszero\n  tag_61\n  jumpi\n    /* \"#utility.yul\":2626:2665   */\n  tag_62\n    /* \"#utility.yul\":2663:2664   */\n  0x00\n    /* \"#utility.yul\":2656:2661   */\n  dup3\n    /* \"#utility.yul\":2626:2665   */\n  tag_21\n  jump\t// in\ntag_62:\n    /* \"#utility.yul\":2599:2600   */\n  0x01\n    /* \"#utility.yul\":2592:2597   */\n  dup2\n    /* \"#utility.yul\":2588:2601   */\n  add\n    /* \"#utility.yul\":2579:2601   */\n  swap1\n  pop\n    /* \"#utility.yul\":2555:2675   */\n  jump(tag_59)\ntag_61:\n    /* \"#utility.yul\":2495:2681   */\n  pop\n  pop\n  jump\t// out\n    /* \"#utility.yul\":2687:3230   */\ntag_23:\n    /* \"#utility.yul\":2788:2790   */\n  0x1f\n    /* \"#utility.yul\":2783:2786   */\n  dup3\n    /* \"#utility.yul\":2780:2791   */\n  gt\n    /* \"#utility.yul\":2777:3223   */\n  iszero\n  tag_64\n  jumpi\n    /* \"#utility.yul\":2822:2860   */\n  tag_65\n    /* \"#utility.yul\":2854:2859   */\n  dup2\n    /* \"#utility.yul\":2822:2860   */\n  tag_11\n  jump\t// in\ntag_65:\n    /* \"#utility.yul\":2906:2935   */\n  tag_66\n    /* \"#utility.yul\":2924:2934   */\n  dup5\n    /* \"#utility.yul\":2906:2935   */\n  tag_12\n  jump\t// in\ntag_66:\n    /* \"#utility.yul\":2896:2904   */\n  dup2\n    /* \"#utility.yul\":2892:2936   */\n  add\n    /* \"#utility.yul\":3089:3091   */\n  0x20\n    /* \"#utility.yul\":3077:3087   */\n  dup6\n    /* \"#utility.yul\":3074:3092   */\n  lt\n    /* \"#utility.yul\":3071:3120   */\n  iszero\n  tag_67\n  jumpi\n    /* \"#utility.yul\":3110:3118   */\n  dup2\n    /* \"#utility.yul\":3095:3118   */\n  swap1\n  pop\n    /* \"#utility.yul\":3071:3120   */\ntag_67:\n    /* \"#utility.yul\":3133:3213   */\n  tag_68\n    /* \"#utility.yul\":3189:3211   */\n  tag_69\n    /* \"#utility.yul\":3207:3210   */\n  dup6\n    /* \"#utility.yul\":3189:3211   */\n  tag_12\n  jump\t// in\ntag_69:\n    /* \"#utility.yul\":3179:3187   */\n  dup4\n    /* \"#utility.yul\":3175:3212   */\n  add\n    /* \"#utility.yul\":3162:3173   */\n  dup3\n    /* \"#utility.yul\":3133:3213   */\n  tag_22\n  jump\t// in\ntag_68:\n    /* \"#utility.yul\":2792:3223   */\n  pop\n  pop\n    /* \"#utility.yul\":2777:3223   */\ntag_64:\n    /* \"#utility.yul\":2687:3230   */\n  pop\n  pop\n  pop\n  jump\t// out\n    /* \"#utility.yul\":3236:3353   */\ntag_24:\n    /* \"#utility.yul\":3290:3298   */\n  0x00\n    /* \"#utility.yul\":3340:3345   */\n  dup3\n    /* \"#utility.yul\":3334:3338   */\n  dup3\n    /* \"#utility.yul\":3330:3346   */\n  shr\n    /* \"#utility.yul\":3309:3346   */\n  swap1\n  pop\n    /* \"#utility.yul\":3236:3353   */\n  swap3\n  swap2\n  pop\n  pop\n  jump\t// out\n    /* \"#utility.yul\":3359:3528   */\ntag_25:\n    /* \"#utility.yul\":3403:3409   */\n  0x00\n    /* \"#utility.yul\":3436:3487   */\n  tag_72\n    /* \"#utility.yul\":3484:3485   */\n  0x00\n    /* \"#utility.yul\":3480:3486   */\n  not\n    /* \"#utility.yul\":3472:3477   */\n  dup5\n    /* \"#utility.yul\":3469:3470   */\n  0x08\n    /* \"#utility.yul\":3465:3478   */\n  mul\n    /* \"#utility.yul\":3436:3487   */\n  tag_24\n  jump\t// in\ntag_72:\n    /* \"#utility.yul\":3432:3488   */\n  not\n    /* \"#utility.yul\":3517:3521   */\n  dup1\n    /* \"#utility.yul\":3511:3515   */\n  dup4\n    /* \"#utility.yul\":3507:3522   */\n  and\n    /* \"#utility.yul\":3497:3522   */\n  swap2\n  pop\n    /* \"#utility.yul\":3410:3528   */\n  pop\n    /* \"#utility.yul\":3359:3528   */\n  swap3\n  swap2\n  pop\n  pop\n  jump\t// out\n    /* \"#utility.yul\":3533:3828   */\ntag_26:\n    /* \"#utility.yul\":3609:3613   */\n  0x00\n    /* \"#utility.yul\":3755:3784   */\n  tag_74\n    /* \"#utility.yul\":3780:3783   */\n  dup4\n    /* \"#utility.yul\":3774:3778   */\n  dup4\n    /* \"#utility.yul\":3755:3784   */\n  tag_25\n  jump\t// in\ntag_74:\n    /* \"#utility.yul\":3747:3784   */\n  swap2\n  pop\n    /* \"#utility.yul\":3817:3820   */\n  dup3\n    /* \"#utility.yul\":3814:3815   */\n  0x02\n    /* \"#utility.yul\":3810:3821   */\n  mul\n    /* \"#utility.yul\":3804:3808   */\n  dup3\n    /* \"#utility.yul\":3801:3822   */\n  or\n    /* \"#utility.yul\":3793:3822   */\n  swap1\n  pop\n    /* \"#utility.yul\":3533:3828   */\n  swap3\n  swap2\n  pop\n  pop\n  jump\t// out\n    /* \"#utility.yul\":3833:5228   */\ntag_2:\n    /* \"#utility.yul\":3950:3987   */\n  tag_76\n    /* \"#utility.yul\":3983:3986   */\n  dup3\n    /* \"#utility.yul\":3950:3987   */\n  tag_7\n  jump\t// in\ntag_76:\n    /* \"#utility.yul\":4052:4070   */\n  0xffffffffffffffff\n    /* \"#utility.yul\":4044:4050   */\n  dup2\n    /* \"#utility.yul\":4041:4071   */\n  gt\n    /* \"#utility.yul\":4038:4094   */\n  iszero\n  tag_77\n  jumpi\n    /* \"#utility.yul\":4074:4092   */\n  tag_78\n  tag_8\n  jump\t// in\ntag_78:\n    /* \"#utility.yul\":4038:4094   */\ntag_77:\n    /* \"#utility.yul\":4118:4156   */\n  tag_79\n    /* \"#utility.yul\":4150:4154   */\n  dup3\n    /* \"#utility.yul\":4144:4155   */\n  sload\n    /* \"#utility.yul\":4118:4156   */\n  tag_10\n  jump\t// in\ntag_79:\n    /* \"#utility.yul\":4203:4270   */\n  tag_80\n    /* \"#utility.yul\":4263:4269   */\n  dup3\n    /* \"#utility.yul\":4255:4261   */\n  dup3\n    /* \"#utility.yul\":4249:4253   */\n  dup6\n    /* \"#utility.yul\":4203:4270   */\n  tag_23\n  jump\t// in\ntag_80:\n    /* \"#utility.yul\":4297:4298   */\n  0x00\n    /* \"#utility.yul\":4321:4325   */\n  0x20\n    /* \"#utility.yul\":4308:4325   */\n  swap1\n  pop\n    /* \"#utility.yul\":4353:4355   */\n  0x1f\n    /* \"#utility.yul\":4345:4351   */\n  dup4\n    /* \"#utility.yul\":4342:4356   */\n  gt\n    /* \"#utility.yul\":4370:4371   */\n  0x01\n    /* \"#utility.yul\":4365:4983   */\n  dup2\n  eq\n  tag_82\n  jumpi\n    /* \"#utility.yul\":5027:5028   */\n  0x00\n    /* \"#utility.yul\":5044:5050   */\n  dup5\n    /* \"#utility.yul\":5041:5118   */\n  iszero\n  tag_83\n  jumpi\n    /* \"#utility.yul\":5093:5102   */\n  dup3\n    /* \"#utility.yul\":5088:5091   */\n  dup8\n    /* \"#utility.yul\":5084:5103   */\n  add\n    /* \"#utility.yul\":5078:5104   */\n  mload\n    /* \"#utility.yul\":5069:5104   */\n  swap1\n  pop\n    /* \"#utility.yul\":5041:5118   */\ntag_83:\n    /* \"#utility.yul\":5144:5211   */\n  tag_84\n    /* \"#utility.yul\":5204:5210   */\n  dup6\n    /* \"#utility.yul\":5197:5202   */\n  dup3\n    /* \"#utility.yul\":5144:5211   */\n  tag_26\n  jump\t// in\ntag_84:\n    /* \"#utility.yul\":5138:5142   */\n  dup7\n    /* \"#utility.yul\":5131:5212   */\n  sstore\n    /* \"#utility.yul\":5000:5222   */\n  pop\n    /* \"#utility.yul\":4335:5222   */\n  jump(tag_81)\n    /* \"#utility.yul\":4365:4983   */\ntag_82:\n    /* \"#utility.yul\":4417:4421   */\n  0x1f\n    /* \"#utility.yul\":4413:4422   */\n  not\n    /* \"#utility.yul\":4405:4411   */\n  dup5\n    /* \"#utility.yul\":4401:4423   */\n  and\n    /* \"#utility.yul\":4451:4488   */\n  tag_85\n    /* \"#utility.yul\":4483:4487   */\n  dup7\n    /* \"#utility.yul\":4451:4488   */\n  tag_11\n  jump\t// in\ntag_85:\n    /* \"#utility.yul\":4510:4511   */\n  0x00\n    /* \"#utility.yul\":4524:4732   */\ntag_86:\n    /* \"#utility.yul\":4538:4545   */\n  dup3\n    /* \"#utility.yul\":4535:4536   */\n  dup2\n    /* \"#utility.yul\":4532:4546   */\n  lt\n    /* \"#utility.yul\":4524:4732   */\n  iszero\n  tag_88\n  jumpi\n    /* \"#utility.yul\":4617:4626   */\n  dup5\n    /* \"#utility.yul\":4612:4615   */\n  dup10\n    /* \"#utility.yul\":4608:4627   */\n  add\n    /* \"#utility.yul\":4602:4628   */\n  mload\n    /* \"#utility.yul\":4594:4600   */\n  dup3\n    /* \"#utility.yul\":4587:4629   */\n  sstore\n    /* \"#utility.yul\":4668:4669   */\n  0x01\n    /* \"#utility.yul\":4660:4666   */\n  dup3\n    /* \"#utility.yul\":4656:4670   */\n  add\n    /* \"#utility.yul\":4646:4670   */\n  swap2\n  pop\n    /* \"#utility.yul\":4715:4717   */\n  0x20\n    /* \"#utility.yul\":4704:4713   */\n  dup6\n    /* \"#utility.yul\":4700:4718   */\n  add\n    /* \"#utility.yul\":4687:4718   */\n  swap5\n  pop\n    /* \"#utility.yul\":4561:4565   */\n  0x20\n    /* \"#utility.yul\":4558:4559   */\n  dup2\n    /* \"#utility.yul\":4554:4566   */\n  add\n    /* \"#utility.yul\":4549:4566   */\n  swap1\n  pop\n    /* \"#utility.yul\":4524:4732   */\n  jump(tag_86)\ntag_88:\n    /* \"#utility.yul\":4760:4766   */\n  dup7\n    /* \"#utility.yul\":4751:4758   */\n  dup4\n    /* \"#utility.yul\":4748:4767   */\n  lt\n    /* \"#utility.yul\":4745:4924   */\n  iszero\n  tag_89\n  jumpi\n    /* \"#utility.yul\":4818:4827   */\n  dup5\n    /* \"#utility.yul\":4813:4816   */\n  dup10\n    /* \"#utility.yul\":4809:4828   */\n  add\n    /* \"#utility.yul\":4803:4829   */\n  mload\n    /* \"#utility.yul\":4861:4909   */\n  tag_90\n    /* \"#utility.yul\":4903:4907   */\n  0x1f\n    /* \"#utility.yul\":4895:4901   */\n  dup10\n    /* \"#utility.yul\":4891:4908   */\n  and\n    /* \"#utility.yul\":4880:4889   */\n  dup3\n    /* \"#utility.yul\":4861:4909   */\n  tag_25\n  jump\t// in\ntag_90:\n    /* \"#utility.yul\":4853:4859   */\n  dup4\n    /* \"#utility.yul\":4846:4910   */\n  sstore\n    /* \"#utility.yul\":4768:4924   */\n  pop\n    /* \"#utility.yul\":4745:4924   */\ntag_89:\n    /* \"#utility.yul\":4970:4971   */\n  0x01\n    /* \"#utility.yul\":4966:4967   */\n  0x02\n    /* \"#utility.yul\":4958:4964   */\n  dup9\n    /* \"#utility.yul\":4954:4968   */\n  mul\n    /* \"#utility.yul\":4950:4972   */\n  add\n    /* \"#utility.yul\":4944:4948   */\n  dup9\n    /* \"#utility.yul\":4937:4973   */\n  sstore\n    /* \"#utility.yul\":4372:4983   */\n  pop\n  pop\n  pop\n    /* \"#utility.yul\":4335:5222   */\ntag_81:\n  pop\n    /* \"#utility.yul\":3925:5228   */\n  pop\n  pop\n  pop\n    /* \"#utility.yul\":3833:5228   */\n  pop\n  pop\n  jump\t// out\n    /* \"#utility.yul\":5234:5374   */\ntag_27:\n    /* \"#utility.yul\":5282:5286   */\n  0x00\n    /* \"#utility.yul\":5305:5308   */\n  dup2\n    /* \"#utility.yul\":5297:5308   */\n  swap1\n  pop\n    /* \"#utility.yul\":5328:5331   */\n  dup2\n    /* \"#utility.yul\":5325:5326   */\n  0x00\n    /* \"#utility.yul\":5318:5332   */\n  mstore\n    /* \"#utility.yul\":5362:5366   */\n  0x20\n    /* \"#utility.yul\":5359:5360   */\n  0x00\n    /* \"#utility.yul\":5349:5367   */\n  keccak256\n    /* \"#utility.yul\":5341:5367   */\n  swap1\n  pop\n    /* \"#utility.yul\":5234:5374   */\n  swap2\n  swap1\n  pop\n  jump\t// out\n    /* \"#utility.yul\":5380:5921   */\ntag_28:\n    /* \"#utility.yul\":5480:5482   */\n  0x1f\n    /* \"#utility.yul\":5475:5478   */\n  dup3\n    /* \"#utility.yul\":5472:5483   */\n  gt\n    /* \"#utility.yul\":5469:5914   */\n  iszero\n  tag_93\n  jumpi\n    /* \"#utility.yul\":5514:5551   */\n  tag_94\n    /* \"#utility.yul\":5545:5550   */\n  dup2\n    /* \"#utility.yul\":5514:5551   */\n  tag_27\n  jump\t// in\ntag_94:\n    /* \"#utility.yul\":5597:5626   */\n  tag_95\n    /* \"#utility.yul\":5615:5625   */\n  dup5\n    /* \"#utility.yul\":5597:5626   */\n  tag_12\n  jump\t// in\ntag_95:\n    /* \"#utility.yul\":5587:5595   */\n  dup2\n    /* \"#utility.yul\":5583:5627   */\n  add\n    /* \"#utility.yul\":5780:5782   */\n  0x20\n    /* \"#utility.yul\":5768:5778   */\n  dup6\n    /* \"#utility.yul\":5765:5783   */\n  lt\n    /* \"#utility.yul\":5762:5811   */\n  iszero\n  tag_96\n  jumpi\n    /* \"#utility.yul\":5801:5809   */\n  dup2\n    /* \"#utility.yul\":5786:5809   */\n  swap1\n  pop\n    /* \"#utility.yul\":5762:5811   */\ntag_96:\n    /* \"#utility.yul\":5824:5904   */\n  tag_97\n    /* \"#utility.yul\":5880:5902   */\n  tag_98\n    /* \"#utility.yul\":5898:5901   */\n  dup6\n    /* \"#utility.yul\":5880:5902   */\n  tag_12\n  jump\t// in\ntag_98:\n    /* \"#utility.yul\":5870:5878   */\n  dup4\n    /* \"#utility.yul\":5866:5903   */\n  add\n    /* \"#utility.yul\":5853:5864   */\n  dup3\n    /* \"#utility.yul\":5824:5904   */\n  tag_22\n  jump\t// in\ntag_97:\n    /* \"#utility.yul\":5484:5914   */\n  pop\n  pop\n    /* \"#utility.yul\":5469:5914   */\ntag_93:\n    /* \"#utility.yul\":5380:5921   */\n  pop\n  pop\n  pop\n  jump\t// out\n    /* \"#utility.yul\":5927:7319   */\ntag_4:\n    /* \"#utility.yul\":6043:6080   */\n  tag_100\n    /* \"#utility.yul\":6076:6079   */\n  dup3\n    /* \"#utility.yul\":6043:6080   */\n  tag_7\n  jump\t// in\ntag_100:\n    /* \"#utility.yul\":6145:6163   */\n  0xffffffffffffffff\n    /* \"#utility.yul\":6137:6143   */\n  dup2\n    /* \"#utility.yul\":6134:6164   */\n  gt\n    /* \"#utility.yul\":6131:6187   */\n  iszero\n  tag_101\n  jumpi\n    /* \"#utility.yul\":6167:6185   */\n  tag_102\n  tag_8\n  jump\t// in\ntag_102:\n    /* \"#utility.yul\":6131:6187   */\ntag_101:\n    /* \"#utility.yul\":6211:6249   */\n  tag_103\n    /* \"#utility.yul\":6243:6247   */\n  dup3\n    /* \"#utility.yul\":6237:6248   */\n  sload\n    /* \"#utility.yul\":6211:6249   */\n  tag_10\n  jump\t// in\ntag_103:\n    /* \"#utility.yul\":6296:6362   */\n  tag_104\n    /* \"#utility.yul\":6355:6361   */\n  dup3\n    /* \"#utility.yul\":6347:6353   */\n  dup3\n    /* \"#utility.yul\":6341:6345   */\n  dup6\n    /* \"#utility.yul\":6296:6362   */\n  tag_28\n  jump\t// in\ntag_104:\n    /* \"#utility.yul\":6389:6390   */\n  0x00\n    /* \"#utility.yul\":6413:6417   */\n  0x20\n    /* \"#utility.yul\":6400:6417   */\n  swap1\n  pop\n    /* \"#utility.yul\":6445:6447   */\n  0x1f\n    /* \"#utility.yul\":6437:6443   */\n  dup4\n    /* \"#utility.yul\":6434:6448   */\n  gt\n    /* \"#utility.yul\":6462:6463   */\n  0x01\n    /* \"#utility.yul\":6457:7074   */\n  dup2\n  eq\n  tag_106\n  jumpi\n    /* \"#utility.yul\":7118:7119   */\n  0x00\n    /* \"#utility.yul\":7135:7141   */\n  dup5\n    /* \"#utility.yul\":7132:7209   */\n  iszero\n  tag_107\n  jumpi\n    /* \"#utility.yul\":7184:7193   */\n  dup3\n    /* \"#utility.yul\":7179:7182   */\n  dup8\n    /* \"#utility.yul\":7175:7194   */\n  add\n    /* \"#utility.yul\":7169:7195   */\n  mload\n    /* \"#utility.yul\":7160:7195   */\n  swap1\n  pop\n    /* \"#utility.yul\":7132:7209   */\ntag_107:\n    /* \"#utility.yul\":7235:7302   */\n  tag_108\n    /* \"#utility.yul\":7295:7301   */\n  dup6\n    /* \"#utility.yul\":7288:7293   */\n  dup3\n    /* \"#utility.yul\":7235:7302   */\n  tag_26\n  jump\t// in\ntag_108:\n    /* \"#utility.yul\":7229:7233   */\n  dup7\n    /* \"#utility.yul\":7222:7303   */\n  sstore\n    /* \"#utility.yul\":7091:7313   */\n  pop\n    /* \"#utility.yul\":6427:7313   */\n  jump(tag_105)\n    /* \"#utility.yul\":6457:7074   */\ntag_106:\n    /* \"#utility.yul\":6509:6513   */\n  0x1f\n    /* \"#utility.yul\":6505:6514   */\n  not\n    /* \"#utility.yul\":6497:6503   */\n  dup5\n    /* \"#utility.yul\":6493:6515   */\n  and\n    /* \"#utility.yul\":6543:6579   */\n  tag_109\n    /* \"#utility.yul\":6574:6578   */\n  dup7\n    /* \"#utility.yul\":6543:6579   */\n  tag_27\n  jump\t// in\ntag_109:\n    /* \"#utility.yul\":6601:6602   */\n  0x00\n    /* \"#utility.yul\":6615:6823   */\ntag_110:\n    /* \"#utility.yul\":6629:6636   */\n  dup3\n    /* \"#utility.yul\":6626:6627   */\n  dup2\n    /* \"#utility.yul\":6623:6637   */\n  lt\n    /* \"#utility.yul\":6615:6823   */\n  iszero\n  tag_112\n  jumpi\n    /* \"#utility.yul\":6708:6717   */\n  dup5\n    /* \"#utility.yul\":6703:6706   */\n  dup10\n    /* \"#utility.yul\":6699:6718   */\n  add\n    /* \"#utility.yul\":6693:6719   */\n  mload\n    /* \"#utility.yul\":6685:6691   */\n  dup3\n    /* \"#utility.yul\":6678:6720   */\n  sstore\n    /* \"#utility.yul\":6759:6760   */\n  0x01\n    /* \"#utility.yul\":6751:6757   */\n  dup3\n    /* \"#utility.yul\":6747:6761   */\n  add\n    /* \"#utility.yul\":6737:6761   */\n  swap2\n  pop\n    /* \"#utility.yul\":6806:6808   */\n  0x20\n    /* \"#utility.yul\":6795:6804   */\n  dup6\n    /* \"#utility.yul\":6791:6809   */\n  add\n    /* \"#utility.yul\":6778:6809   */\n  swap5\n  pop\n    /* \"#utility.yul\":6652:6656   */\n  0x20\n    /* \"#utility.yul\":6649:6650   */\n  dup2\n    /* \"#utility.yul\":6645:6657   */\n  add\n    /* \"#utility.yul\":6640:6657   */\n  swap1\n  pop\n    /* \"#utility.yul\":6615:6823   */\n  jump(tag_110)\ntag_112:\n    /* \"#utility.yul\":6851:6857   */\n  dup7\n    /* \"#utility.yul\":6842:6849   */\n  dup4\n    /* \"#utility.yul\":6839:6858   */\n  lt\n    /* \"#utility.yul\":6836:7015   */\n  iszero\n  tag_113\n  jumpi\n    /* \"#utility.yul\":6909:6918   */\n  dup5\n    /* \"#utility.yul\":6904:6907   */\n  dup10\n    /* \"#utility.yul\":6900:6919   */\n  add\n    /* \"#utility.yul\":6894:6920   */\n  mload\n    /* \"#utility.yul\":6952:7000   */\n  tag_114\n    /* \"#utility.yul\":6994:6998   */\n  0x1f\n    /* \"#utility.yul\":6986:6992   */\n  dup10\n    /* \"#utility.yul\":6982:6999   */\n  and\n    /* \"#utility.yul\":6971:6980   */\n  dup3\n    /* \"#utility.yul\":6952:7000   */\n  tag_25\n  jump\t// in\ntag_114:\n    /* \"#utility.yul\":6944:6950   */\n  dup4\n    /* \"#utility.yul\":6937:7001   */\n  sstore\n    /* \"#utility.yul\":6859:7015   */\n  pop\n    /* \"#utility.yul\":6836:7015   */\ntag_113:\n    /* \"#utility.yul\":7061:7062   */\n  0x01\n    /* \"#utility.yul\":7057:7058   */\n  0x02\n    /* \"#utility.yul\":7049:7055   */\n  dup9\n    /* \"#utility.yul\":7045:7059   */\n  mul\n    /* \"#utility.yul\":7041:7063   */\n  add\n    /* \"#utility.yul\":7035:7039   */\n  dup9\n    /* \"#utility.yul\":7028:7064   */\n  sstore\n    /* \"#utility.yul\":6464:7074   */\n  pop\n  pop\n  pop\n    /* \"#utility.yul\":6427:7313   */\ntag_105:\n  pop\n    /* \"#utility.yul\":6018:7319   */\n  pop\n  pop\n  pop\n    /* \"#utility.yul\":5927:7319   */\n  pop\n  pop\n  jump\t// out\n    /* \"contracts/DataTypes.sol\":57:1673  contract DataTypes{... */\ntag_6:\n  dataSize(sub_0)\n  dup1\n  dataOffset(sub_0)\n  0x00\n  codecopy\n  0x00\n  return\nstop\n\nsub_0: assembly {\n        /* \"contracts/DataTypes.sol\":57:1673  contract DataTypes{... */\n      mstore(0x40, 0x80)\n      callvalue\n      dup1\n      iszero\n      tag_1\n      jumpi\n      revert(0x00, 0x00)\n    tag_1:\n      pop\n      jumpi(tag_2, lt(calldatasize, 0x04))\n      shr(0xe0, calldataload(0x00))\n      dup1\n      0x75eb2ad1\n      gt\n      tag_23\n      jumpi\n      dup1\n      0xe2a4b2af\n      gt\n      tag_24\n      jumpi\n      dup1\n      0xe2a4b2af\n      eq\n      tag_18\n      jumpi\n      dup1\n      0xe30081a0\n      eq\n      tag_19\n      jumpi\n      dup1\n      0xe492fd84\n      eq\n      tag_20\n      jumpi\n      dup1\n      0xe5f199b5\n      eq\n      tag_21\n      jumpi\n      dup1\n      0xeb1b30d9\n      eq\n      tag_22\n      jumpi\n      jump(tag_2)\n    tag_24:\n      dup1\n      0x75eb2ad1\n      eq\n      tag_13\n      jumpi\n      dup1\n      0x7c668844\n      eq\n      tag_14\n      jumpi\n      dup1\n      0x82180568\n      eq\n      tag_15\n      jumpi\n      dup1\n      0x9b57e711\n      eq\n      tag_16\n      jumpi\n      dup1\n      0xb92ba3b8\n      eq\n      tag_17\n      jumpi\n      jump(tag_2)\n    tag_23:\n      dup1\n      0x55241077\n      gt\n      tag_25\n      jumpi\n      dup1\n      0x55241077\n      eq\n      tag_8\n      jumpi\n      dup1\n      0x5a4a3313\n      eq\n      tag_9\n      jumpi\n      dup1\n      0x5ce25353\n      eq\n      tag_10\n      jumpi\n      dup1\n      0x634899ce\n      eq\n      tag_11\n      jumpi\n      dup1\n      0x6deecdbe\n      eq\n      tag_12\n      jumpi\n      jump(tag_2)\n    tag_25:\n      dup1\n      0x06540f7e\n      eq\n      tag_3\n      jumpi\n      dup1\n      0x18e5f16b\n      eq\n      tag_4\n      jumpi\n      dup1\n      0x26b85ee1\n      eq\n      tag_5\n      jumpi\n      dup1\n      0x354b7f2f\n      eq\n      tag_6\n      jumpi\n      dup1\n      0x492bfa18\n      eq\n      tag_7\n      jumpi\n    tag_2:\n      revert(0x00, 0x00)\n        /* \"contracts/DataTypes.sol\":249:267  uint public myUint */\n    tag_3:\n      tag_26\n      tag_27\n      jump\t// in\n    tag_26:\n      mload(0x40)\n      tag_28\n      swap2\n      swap1\n      tag_29\n      jump\t// in\n    tag_28:\n      mload(0x40)\n      dup1\n      swap2\n      sub\n      swap1\n      return\n        /* \"contracts/DataTypes.sol\":1265:1291  address public someAddress */\n    tag_4:\n      tag_30\n      tag_31\n      jump\t// in\n    tag_30:\n      mload(0x40)\n      tag_32\n      swap2\n      swap1\n      tag_33\n      jump\t// in\n    tag_32:\n      mload(0x40)\n      dup1\n      swap2\n      sub\n      swap1\n      return\n        /* \"contracts/DataTypes.sol\":1005:1029  address public myAddress */\n    tag_5:\n      tag_34\n      tag_35\n      jump\t// in\n    tag_34:\n      mload(0x40)\n      tag_36\n      swap2\n      swap1\n      tag_33\n      jump\t// in\n    tag_36:\n      mload(0x40)\n      dup1\n      swap2\n      sub\n      swap1\n      return\n        /* \"contracts/DataTypes.sol\":403:458  function incMyUint8() public {... */\n    tag_6:\n      tag_37\n      tag_38\n      jump\t// in\n    tag_37:\n      stop\n        /* \"contracts/DataTypes.sol\":520:558  string public myString = \"Hello World\" */\n    tag_7:\n      tag_39\n      tag_40\n      jump\t// in\n    tag_39:\n      mload(0x40)\n      tag_41\n      swap2\n      swap1\n      tag_42\n      jump\t// in\n    tag_41:\n      mload(0x40)\n      dup1\n      swap2\n      sub\n      swap1\n      return\n        /* \"contracts/DataTypes.sol\":1492:1571  function setValue(uint _index) public {... */\n    tag_8:\n      tag_43\n      0x04\n      dup1\n      calldatasize\n      sub\n      dup2\n      add\n      swap1\n      tag_44\n      swap2\n      swap1\n      tag_45\n      jump\t// in\n    tag_44:\n      tag_46\n      jump\t// in\n    tag_43:\n      stop\n        /* \"contracts/DataTypes.sol\":903:984  function setMyByte(bytes memory _myByte) public {... */\n    tag_9:\n      tag_47\n      0x04\n      dup1\n      calldatasize\n      sub\n      dup2\n      add\n      swap1\n      tag_48\n      swap2\n      swap1\n      tag_49\n      jump\t// in\n    tag_48:\n      tag_50\n      jump\t// in\n    tag_47:\n      stop\n        /* \"contracts/DataTypes.sol\":660:841  function compareTwoStrings(string memory _myString) public view returns(bool) {... */\n    tag_10:\n      tag_51\n      0x04\n      dup1\n      calldatasize\n      sub\n      dup2\n      add\n      swap1\n      tag_52\n      swap2\n      swap1\n      tag_53\n      jump\t// in\n    tag_52:\n      tag_54\n      jump\t// in\n    tag_51:\n      mload(0x40)\n      tag_55\n      swap2\n      swap1\n      tag_56\n      jump\t// in\n    tag_55:\n      mload(0x40)\n      dup1\n      swap2\n      sub\n      swap1\n      return\n        /* \"contracts/DataTypes.sol\":1577:1666  function setMyAddressToTrue() public {... */\n    tag_11:\n      tag_57\n      tag_58\n      jump\t// in\n    tag_57:\n      stop\n        /* \"contracts/DataTypes.sol\":107:125  bool public myBool */\n    tag_12:\n      tag_59\n      tag_60\n      jump\t// in\n    tag_59:\n      mload(0x40)\n      tag_61\n      swap2\n      swap1\n      tag_56\n      jump\t// in\n    tag_61:\n      mload(0x40)\n      dup1\n      swap2\n      sub\n      swap1\n      return\n        /* \"contracts/DataTypes.sol\":1134:1231  function getAddressBalance() public view returns(uint) {... */\n    tag_13:\n      tag_62\n      tag_63\n      jump\t// in\n    tag_62:\n      mload(0x40)\n      tag_64\n      swap2\n      swap1\n      tag_29\n      jump\t// in\n    tag_64:\n      mload(0x40)\n      dup1\n      swap2\n      sub\n      swap1\n      return\n        /* \"contracts/DataTypes.sol\":1393:1431  mapping(uint => bool) public myMapping */\n    tag_14:\n      tag_65\n      0x04\n      dup1\n      calldatasize\n      sub\n      dup2\n      add\n      swap1\n      tag_66\n      swap2\n      swap1\n      tag_45\n      jump\t// in\n    tag_66:\n      tag_67\n      jump\t// in\n    tag_65:\n      mload(0x40)\n      tag_68\n      swap2\n      swap1\n      tag_56\n      jump\t// in\n    tag_68:\n      mload(0x40)\n      dup1\n      swap2\n      sub\n      swap1\n      return\n        /* \"contracts/DataTypes.sol\":565:654  function setMyString(string memory _myString) public{... */\n    tag_15:\n      tag_69\n      0x04\n      dup1\n      calldatasize\n      sub\n      dup2\n      add\n      swap1\n      tag_70\n      swap2\n      swap1\n      tag_53\n      jump\t// in\n    tag_70:\n      tag_71\n      jump\t// in\n    tag_69:\n      stop\n        /* \"contracts/DataTypes.sol\":1298:1375  function updateSomeAddress() public {... */\n    tag_16:\n      tag_72\n      tag_73\n      jump\t// in\n    tag_72:\n      stop\n        /* \"contracts/DataTypes.sol\":1437:1485  mapping(address => bool) public myAddressMapping */\n    tag_17:\n      tag_74\n      0x04\n      dup1\n      calldatasize\n      sub\n      dup2\n      add\n      swap1\n      tag_75\n      swap2\n      swap1\n      tag_76\n      jump\t// in\n    tag_75:\n      tag_77\n      jump\t// in\n    tag_74:\n      mload(0x40)\n      tag_78\n      swap2\n      swap1\n      tag_56\n      jump\t// in\n    tag_78:\n      mload(0x40)\n      dup1\n      swap2\n      sub\n      swap1\n      return\n        /* \"contracts/DataTypes.sol\":290:316  uint8 public myUint8 = 250 */\n    tag_18:\n      tag_79\n      tag_80\n      jump\t// in\n    tag_79:\n      mload(0x40)\n      tag_81\n      swap2\n      swap1\n      tag_82\n      jump\t// in\n    tag_81:\n      mload(0x40)\n      dup1\n      swap2\n      sub\n      swap1\n      return\n        /* \"contracts/DataTypes.sol\":1042:1128  function setAddress(address _myAddress) public {... */\n    tag_19:\n      tag_83\n      0x04\n      dup1\n      calldatasize\n      sub\n      dup2\n      add\n      swap1\n      tag_84\n      swap2\n      swap1\n      tag_76\n      jump\t// in\n    tag_84:\n      tag_85\n      jump\t// in\n    tag_83:\n      stop\n        /* \"contracts/DataTypes.sol\":323:395  function setMyUint(uint _myUint) public{... */\n    tag_20:\n      tag_86\n      0x04\n      dup1\n      calldatasize\n      sub\n      dup2\n      add\n      swap1\n      tag_87\n      swap2\n      swap1\n      tag_45\n      jump\t// in\n    tag_87:\n      tag_88\n      jump\t// in\n    tag_86:\n      stop\n        /* \"contracts/DataTypes.sol\":859:894  bytes public myByte = \"Hello World\" */\n    tag_21:\n      tag_89\n      tag_90\n      jump\t// in\n    tag_89:\n      mload(0x40)\n      tag_91\n      swap2\n      swap1\n      tag_92\n      jump\t// in\n    tag_91:\n      mload(0x40)\n      dup1\n      swap2\n      sub\n      swap1\n      return\n        /* \"contracts/DataTypes.sol\":132:205  function setMyBool(bool _myBool) public {... */\n    tag_22:\n      tag_93\n      0x04\n      dup1\n      calldatasize\n      sub\n      dup2\n      add\n      swap1\n      tag_94\n      swap2\n      swap1\n      tag_95\n      jump\t// in\n    tag_94:\n      tag_96\n      jump\t// in\n    tag_93:\n      stop\n        /* \"contracts/DataTypes.sol\":249:267  uint public myUint */\n    tag_27:\n      sload(0x01)\n      dup2\n      jump\t// out\n        /* \"contracts/DataTypes.sol\":1265:1291  address public someAddress */\n    tag_31:\n      0x06\n      0x00\n      swap1\n      sload\n      swap1\n      0x0100\n      exp\n      swap1\n      div\n      0xffffffffffffffffffffffffffffffffffffffff\n      and\n      dup2\n      jump\t// out\n        /* \"contracts/DataTypes.sol\":1005:1029  address public myAddress */\n    tag_35:\n      0x05\n      0x00\n      swap1\n      sload\n      swap1\n      0x0100\n      exp\n      swap1\n      div\n      0xffffffffffffffffffffffffffffffffffffffff\n      and\n      dup2\n      jump\t// out\n        /* \"contracts/DataTypes.sol\":403:458  function incMyUint8() public {... */\n    tag_38:\n        /* \"contracts/DataTypes.sol\":442:449  myUint8 */\n      0x02\n      0x00\n        /* \"contracts/DataTypes.sol\":442:451  myUint8++ */\n      dup2\n      dup2\n      swap1\n      sload\n      swap1\n      0x0100\n      exp\n      swap1\n      div\n      0xff\n      and\n      dup1\n      swap3\n      swap2\n      swap1\n      tag_98\n      swap1\n      tag_99\n      jump\t// in\n    tag_98:\n      swap2\n      swap1\n      0x0100\n      exp\n      dup2\n      sload\n      dup2\n      0xff\n      mul\n      not\n      and\n      swap1\n      dup4\n      0xff\n      and\n      mul\n      or\n      swap1\n      sstore\n      pop\n      pop\n        /* \"contracts/DataTypes.sol\":403:458  function incMyUint8() public {... */\n      jump\t// out\n        /* \"contracts/DataTypes.sol\":520:558  string public myString = \"Hello World\" */\n    tag_40:\n      0x03\n      dup1\n      sload\n      tag_100\n      swap1\n      tag_101\n      jump\t// in\n    tag_100:\n      dup1\n      0x1f\n      add\n      0x20\n      dup1\n      swap2\n      div\n      mul\n      0x20\n      add\n      mload(0x40)\n      swap1\n      dup2\n      add\n      0x40\n      mstore\n      dup1\n      swap3\n      swap2\n      swap1\n      dup2\n      dup2\n      mstore\n      0x20\n      add\n      dup3\n      dup1\n      sload\n      tag_102\n      swap1\n      tag_101\n      jump\t// in\n    tag_102:\n      dup1\n      iszero\n      tag_103\n      jumpi\n      dup1\n      0x1f\n      lt\n      tag_104\n      jumpi\n      0x0100\n      dup1\n      dup4\n      sload\n      div\n      mul\n      dup4\n      mstore\n      swap2\n      0x20\n      add\n      swap2\n      jump(tag_103)\n    tag_104:\n      dup3\n      add\n      swap2\n      swap1\n      0x00\n      mstore\n      keccak256(0x00, 0x20)\n      swap1\n    tag_105:\n      dup2\n      sload\n      dup2\n      mstore\n      swap1\n      0x01\n      add\n      swap1\n      0x20\n      add\n      dup1\n      dup4\n      gt\n      tag_105\n      jumpi\n      dup3\n      swap1\n      sub\n      0x1f\n      and\n      dup3\n      add\n      swap2\n    tag_103:\n      pop\n      pop\n      pop\n      pop\n      pop\n      dup2\n      jump\t// out\n        /* \"contracts/DataTypes.sol\":1492:1571  function setValue(uint _index) public {... */\n    tag_46:\n        /* \"contracts/DataTypes.sol\":1560:1564  true */\n      0x01\n        /* \"contracts/DataTypes.sol\":1540:1549  myMapping */\n      0x07\n        /* \"contracts/DataTypes.sol\":1540:1557  myMapping[_index] */\n      0x00\n        /* \"contracts/DataTypes.sol\":1550:1556  _index */\n      dup4\n        /* \"contracts/DataTypes.sol\":1540:1557  myMapping[_index] */\n      dup2\n      mstore\n      0x20\n      add\n      swap1\n      dup2\n      mstore\n      0x20\n      add\n      0x00\n      keccak256\n      0x00\n        /* \"contracts/DataTypes.sol\":1540:1564  myMapping[_index] = true */\n      0x0100\n      exp\n      dup2\n      sload\n      dup2\n      0xff\n      mul\n      not\n      and\n      swap1\n      dup4\n      iszero\n      iszero\n      mul\n      or\n      swap1\n      sstore\n      pop\n        /* \"contracts/DataTypes.sol\":1492:1571  function setValue(uint _index) public {... */\n      pop\n      jump\t// out\n        /* \"contracts/DataTypes.sol\":903:984  function setMyByte(bytes memory _myByte) public {... */\n    tag_50:\n        /* \"contracts/DataTypes.sol\":970:977  _myByte */\n      dup1\n        /* \"contracts/DataTypes.sol\":961:967  myByte */\n      0x04\n        /* \"contracts/DataTypes.sol\":961:977  myByte = _myByte */\n      swap1\n      dup2\n      tag_108\n      swap2\n      swap1\n      tag_109\n      jump\t// in\n    tag_108:\n      pop\n        /* \"contracts/DataTypes.sol\":903:984  function setMyByte(bytes memory _myByte) public {... */\n      pop\n      jump\t// out\n        /* \"contracts/DataTypes.sol\":660:841  function compareTwoStrings(string memory _myString) public view returns(bool) {... */\n    tag_54:\n        /* \"contracts/DataTypes.sol\":732:736  bool */\n      0x00\n        /* \"contracts/DataTypes.sol\":823:832  _myString */\n      dup2\n        /* \"contracts/DataTypes.sol\":806:833  abi.encodePacked(_myString) */\n      add(0x20, mload(0x40))\n      tag_111\n      swap2\n      swap1\n      tag_112\n      jump\t// in\n    tag_111:\n      mload(0x40)\n      0x20\n      dup2\n      dup4\n      sub\n      sub\n      dup2\n      mstore\n      swap1\n      0x40\n      mstore\n        /* \"contracts/DataTypes.sol\":796:834  keccak256(abi.encodePacked(_myString)) */\n      dup1\n      mload\n      swap1\n      0x20\n      add\n      keccak256\n        /* \"contracts/DataTypes.sol\":782:790  myString */\n      0x03\n        /* \"contracts/DataTypes.sol\":765:791  abi.encodePacked(myString) */\n      add(0x20, mload(0x40))\n      tag_113\n      swap2\n      swap1\n      tag_114\n      jump\t// in\n    tag_113:\n      mload(0x40)\n      0x20\n      dup2\n      dup4\n      sub\n      sub\n      dup2\n      mstore\n      swap1\n      0x40\n      mstore\n        /* \"contracts/DataTypes.sol\":755:792  keccak256(abi.encodePacked(myString)) */\n      dup1\n      mload\n      swap1\n      0x20\n      add\n      keccak256\n        /* \"contracts/DataTypes.sol\":755:834  keccak256(abi.encodePacked(myString)) == keccak256(abi.encodePacked(_myString)) */\n      eq\n        /* \"contracts/DataTypes.sol\":748:834  return keccak256(abi.encodePacked(myString)) == keccak256(abi.encodePacked(_myString)) */\n      swap1\n      pop\n        /* \"contracts/DataTypes.sol\":660:841  function compareTwoStrings(string memory _myString) public view returns(bool) {... */\n      swap2\n      swap1\n      pop\n      jump\t// out\n        /* \"contracts/DataTypes.sol\":1577:1666  function setMyAddressToTrue() public {... */\n    tag_58:\n        /* \"contracts/DataTypes.sol\":1655:1659  true */\n      0x01\n        /* \"contracts/DataTypes.sol\":1624:1640  myAddressMapping */\n      0x08\n        /* \"contracts/DataTypes.sol\":1624:1652  myAddressMapping[msg.sender] */\n      0x00\n        /* \"contracts/DataTypes.sol\":1641:1651  msg.sender */\n      caller\n        /* \"contracts/DataTypes.sol\":1624:1652  myAddressMapping[msg.sender] */\n      0xffffffffffffffffffffffffffffffffffffffff\n      and\n      0xffffffffffffffffffffffffffffffffffffffff\n      and\n      dup2\n      mstore\n      0x20\n      add\n      swap1\n      dup2\n      mstore\n      0x20\n      add\n      0x00\n      keccak256\n      0x00\n        /* \"contracts/DataTypes.sol\":1624:1659  myAddressMapping[msg.sender] = true */\n      0x0100\n      exp\n      dup2\n      sload\n      dup2\n      0xff\n      mul\n      not\n      and\n      swap1\n      dup4\n      iszero\n      iszero\n      mul\n      or\n      swap1\n      sstore\n      pop\n        /* \"contracts/DataTypes.sol\":1577:1666  function setMyAddressToTrue() public {... */\n      jump\t// out\n        /* \"contracts/DataTypes.sol\":107:125  bool public myBool */\n    tag_60:\n      0x00\n      0x00\n      swap1\n      sload\n      swap1\n      0x0100\n      exp\n      swap1\n      div\n      0xff\n      and\n      dup2\n      jump\t// out\n        /* \"contracts/DataTypes.sol\":1134:1231  function getAddressBalance() public view returns(uint) {... */\n    tag_63:\n        /* \"contracts/DataTypes.sol\":1183:1187  uint */\n      0x00\n        /* \"contracts/DataTypes.sol\":1207:1216  myAddress */\n      0x05\n      0x00\n      swap1\n      sload\n      swap1\n      0x0100\n      exp\n      swap1\n      div\n      0xffffffffffffffffffffffffffffffffffffffff\n      and\n        /* \"contracts/DataTypes.sol\":1207:1224  myAddress.balance */\n      0xffffffffffffffffffffffffffffffffffffffff\n      and\n      balance\n        /* \"contracts/DataTypes.sol\":1199:1224  return  myAddress.balance */\n      swap1\n      pop\n        /* \"contracts/DataTypes.sol\":1134:1231  function getAddressBalance() public view returns(uint) {... */\n      swap1\n      jump\t// out\n        /* \"contracts/DataTypes.sol\":1393:1431  mapping(uint => bool) public myMapping */\n    tag_67:\n      mstore(0x20, 0x07)\n      dup1\n      0x00\n      mstore\n      keccak256(0x00, 0x40)\n      0x00\n      swap2\n      pop\n      sload\n      swap1\n      0x0100\n      exp\n      swap1\n      div\n      0xff\n      and\n      dup2\n      jump\t// out\n        /* \"contracts/DataTypes.sol\":565:654  function setMyString(string memory _myString) public{... */\n    tag_71:\n        /* \"contracts/DataTypes.sol\":638:647  _myString */\n      dup1\n        /* \"contracts/DataTypes.sol\":627:635  myString */\n      0x03\n        /* \"contracts/DataTypes.sol\":627:647  myString = _myString */\n      swap1\n      dup2\n      tag_118\n      swap2\n      swap1\n      tag_119\n      jump\t// in\n    tag_118:\n      pop\n        /* \"contracts/DataTypes.sol\":565:654  function setMyString(string memory _myString) public{... */\n      pop\n      jump\t// out\n        /* \"contracts/DataTypes.sol\":1298:1375  function updateSomeAddress() public {... */\n    tag_73:\n        /* \"contracts/DataTypes.sol\":1358:1368  msg.sender */\n      caller\n        /* \"contracts/DataTypes.sol\":1344:1355  someAddress */\n      0x06\n      0x00\n        /* \"contracts/DataTypes.sol\":1344:1368  someAddress = msg.sender */\n      0x0100\n      exp\n      dup2\n      sload\n      dup2\n      0xffffffffffffffffffffffffffffffffffffffff\n      mul\n      not\n      and\n      swap1\n      dup4\n      0xffffffffffffffffffffffffffffffffffffffff\n      and\n      mul\n      or\n      swap1\n      sstore\n      pop\n        /* \"contracts/DataTypes.sol\":1298:1375  function updateSomeAddress() public {... */\n      jump\t// out\n        /* \"contracts/DataTypes.sol\":1437:1485  mapping(address => bool) public myAddressMapping */\n    tag_77:\n      mstore(0x20, 0x08)\n      dup1\n      0x00\n      mstore\n      keccak256(0x00, 0x40)\n      0x00\n      swap2\n      pop\n      sload\n      swap1\n      0x0100\n      exp\n      swap1\n      div\n      0xff\n      and\n      dup2\n      jump\t// out\n        /* \"contracts/DataTypes.sol\":290:316  uint8 public myUint8 = 250 */\n    tag_80:\n      0x02\n      0x00\n      swap1\n      sload\n      swap1\n      0x0100\n      exp\n      swap1\n      div\n      0xff\n      and\n      dup2\n      jump\t// out\n        /* \"contracts/DataTypes.sol\":1042:1128  function setAddress(address _myAddress) public {... */\n    tag_85:\n        /* \"contracts/DataTypes.sol\":1111:1121  _myAddress */\n      dup1\n        /* \"contracts/DataTypes.sol\":1099:1108  myAddress */\n      0x05\n      0x00\n        /* \"contracts/DataTypes.sol\":1099:1121  myAddress = _myAddress */\n      0x0100\n      exp\n      dup2\n      sload\n      dup2\n      0xffffffffffffffffffffffffffffffffffffffff\n      mul\n      not\n      and\n      swap1\n      dup4\n      0xffffffffffffffffffffffffffffffffffffffff\n      and\n      mul\n      or\n      swap1\n      sstore\n      pop\n        /* \"contracts/DataTypes.sol\":1042:1128  function setAddress(address _myAddress) public {... */\n      pop\n      jump\t// out\n        /* \"contracts/DataTypes.sol\":323:395  function setMyUint(uint _myUint) public{... */\n    tag_88:\n        /* \"contracts/DataTypes.sol\":381:388  _myUint */\n      dup1\n        /* \"contracts/DataTypes.sol\":372:378  myUint */\n      0x01\n        /* \"contracts/DataTypes.sol\":372:388  myUint = _myUint */\n      dup2\n      swap1\n      sstore\n      pop\n        /* \"contracts/DataTypes.sol\":323:395  function setMyUint(uint _myUint) public{... */\n      pop\n      jump\t// out\n        /* \"contracts/DataTypes.sol\":859:894  bytes public myByte = \"Hello World\" */\n    tag_90:\n      0x04\n      dup1\n      sload\n      tag_123\n      swap1\n      tag_101\n      jump\t// in\n    tag_123:\n      dup1\n      0x1f\n      add\n      0x20\n      dup1\n      swap2\n      div\n      mul\n      0x20\n      add\n      mload(0x40)\n      swap1\n      dup2\n      add\n      0x40\n      mstore\n      dup1\n      swap3\n      swap2\n      swap1\n      dup2\n      dup2\n      mstore\n      0x20\n      add\n      dup3\n      dup1\n      sload\n      tag_124\n      swap1\n      tag_101\n      jump\t// in\n    tag_124:\n      dup1\n      iszero\n      tag_125\n      jumpi\n      dup1\n      0x1f\n      lt\n      tag_126\n      jumpi\n      0x0100\n      dup1\n      dup4\n      sload\n      div\n      mul\n      dup4\n      mstore\n      swap2\n      0x20\n      add\n      swap2\n      jump(tag_125)\n    tag_126:\n      dup3\n      add\n      swap2\n      swap1\n      0x00\n      mstore\n      keccak256(0x00, 0x20)\n      swap1\n    tag_127:\n      dup2\n      sload\n      dup2\n      mstore\n      swap1\n      0x01\n      add\n      swap1\n      0x20\n      add\n      dup1\n      dup4\n      gt\n      tag_127\n      jumpi\n      dup3\n      swap1\n      sub\n      0x1f\n      and\n      dup3\n      add\n      swap2\n    tag_125:\n      pop\n      pop\n      pop\n      pop\n      pop\n      dup2\n      jump\t// out\n        /* \"contracts/DataTypes.sol\":132:205  function setMyBool(bool _myBool) public {... */\n    tag_96:\n        /* \"contracts/DataTypes.sol\":191:198  _myBool */\n      dup1\n        /* \"contracts/DataTypes.sol\":182:188  myBool */\n      0x00\n      0x00\n        /* \"contracts/DataTypes.sol\":182:198  myBool = _myBool */\n      0x0100\n      exp\n      dup2\n      sload\n      dup2\n      0xff\n      mul\n      not\n      and\n      swap1\n      dup4\n      iszero\n      iszero\n      mul\n      or\n      swap1\n      sstore\n      pop\n        /* \"contracts/DataTypes.sol\":132:205  function setMyBool(bool _myBool) public {... */\n      pop\n      jump\t// out\n        /* \"#utility.yul\":7:84   */\n    tag_129:\n        /* \"#utility.yul\":44:51   */\n      0x00\n        /* \"#utility.yul\":73:78   */\n      dup2\n        /* \"#utility.yul\":62:78   */\n      swap1\n      pop\n        /* \"#utility.yul\":7:84   */\n      swap2\n      swap1\n      pop\n      jump\t// out\n        /* \"#utility.yul\":90:208   */\n    tag_130:\n        /* \"#utility.yul\":177:201   */\n      tag_192\n        /* \"#utility.yul\":195:200   */\n      dup2\n        /* \"#utility.yul\":177:201   */\n      tag_129\n      jump\t// in\n    tag_192:\n        /* \"#utility.yul\":172:175   */\n      dup3\n        /* \"#utility.yul\":165:202   */\n      mstore\n        /* \"#utility.yul\":90:208   */\n      pop\n      pop\n      jump\t// out\n        /* \"#utility.yul\":214:436   */\n    tag_29:\n        /* \"#utility.yul\":307:311   */\n      0x00\n        /* \"#utility.yul\":345:347   */\n      0x20\n        /* \"#utility.yul\":334:343   */\n      dup3\n        /* \"#utility.yul\":330:348   */\n      add\n        /* \"#utility.yul\":322:348   */\n      swap1\n      pop\n        /* \"#utility.yul\":358:429   */\n      tag_194\n        /* \"#utility.yul\":426:427   */\n      0x00\n        /* \"#utility.yul\":415:424   */\n      dup4\n        /* \"#utility.yul\":411:428   */\n      add\n        /* \"#utility.yul\":402:408   */\n      dup5\n        /* \"#utility.yul\":358:429   */\n      tag_130\n      jump\t// in\n    tag_194:\n        /* \"#utility.yul\":214:436   */\n      swap3\n      swap2\n      pop\n      pop\n      jump\t// out\n        /* \"#utility.yul\":442:568   */\n    tag_131:\n        /* \"#utility.yul\":479:486   */\n      0x00\n        /* \"#utility.yul\":519:561   */\n      0xffffffffffffffffffffffffffffffffffffffff\n        /* \"#utility.yul\":512:517   */\n      dup3\n        /* \"#utility.yul\":508:562   */\n      and\n        /* \"#utility.yul\":497:562   */\n      swap1\n      pop\n        /* \"#utility.yul\":442:568   */\n      swap2\n      swap1\n      pop\n      jump\t// out\n        /* \"#utility.yul\":574:670   */\n    tag_132:\n        /* \"#utility.yul\":611:618   */\n      0x00\n        /* \"#utility.yul\":640:664   */\n      tag_197\n        /* \"#utility.yul\":658:663   */\n      dup3\n        /* \"#utility.yul\":640:664   */\n      tag_131\n      jump\t// in\n    tag_197:\n        /* \"#utility.yul\":629:664   */\n      swap1\n      pop\n        /* \"#utility.yul\":574:670   */\n      swap2\n      swap1\n      pop\n      jump\t// out\n        /* \"#utility.yul\":676:794   */\n    tag_133:\n        /* \"#utility.yul\":763:787   */\n      tag_199\n        /* \"#utility.yul\":781:786   */\n      dup2\n        /* \"#utility.yul\":763:787   */\n      tag_132\n      jump\t// in\n    tag_199:\n        /* \"#utility.yul\":758:761   */\n      dup3\n        /* \"#utility.yul\":751:788   */\n      mstore\n        /* \"#utility.yul\":676:794   */\n      pop\n      pop\n      jump\t// out\n        /* \"#utility.yul\":800:1022   */\n    tag_33:\n        /* \"#utility.yul\":893:897   */\n      0x00\n        /* \"#utility.yul\":931:933   */\n      0x20\n        /* \"#utility.yul\":920:929   */\n      dup3\n        /* \"#utility.yul\":916:934   */\n      add\n        /* \"#utility.yul\":908:934   */\n      swap1\n      pop\n        /* \"#utility.yul\":944:1015   */\n      tag_201\n        /* \"#utility.yul\":1012:1013   */\n      0x00\n        /* \"#utility.yul\":1001:1010   */\n      dup4\n        /* \"#utility.yul\":997:1014   */\n      add\n        /* \"#utility.yul\":988:994   */\n      dup5\n        /* \"#utility.yul\":944:1015   */\n      tag_133\n      jump\t// in\n    tag_201:\n        /* \"#utility.yul\":800:1022   */\n      swap3\n      swap2\n      pop\n      pop\n      jump\t// out\n        /* \"#utility.yul\":1028:1127   */\n    tag_134:\n        /* \"#utility.yul\":1080:1086   */\n      0x00\n        /* \"#utility.yul\":1114:1119   */\n      dup2\n        /* \"#utility.yul\":1108:1120   */\n      mload\n        /* \"#utility.yul\":1098:1120   */\n      swap1\n      pop\n        /* \"#utility.yul\":1028:1127   */\n      swap2\n      swap1\n      pop\n      jump\t// out\n        /* \"#utility.yul\":1133:1302   */\n    tag_135:\n        /* \"#utility.yul\":1217:1228   */\n      0x00\n        /* \"#utility.yul\":1251:1257   */\n      dup3\n        /* \"#utility.yul\":1246:1249   */\n      dup3\n        /* \"#utility.yul\":1239:1258   */\n      mstore\n        /* \"#utility.yul\":1291:1295   */\n      0x20\n        /* \"#utility.yul\":1286:1289   */\n      dup3\n        /* \"#utility.yul\":1282:1296   */\n      add\n        /* \"#utility.yul\":1267:1296   */\n      swap1\n      pop\n        /* \"#utility.yul\":1133:1302   */\n      swap3\n      swap2\n      pop\n      pop\n      jump\t// out\n        /* \"#utility.yul\":1308:1447   */\n    tag_136:\n        /* \"#utility.yul\":1397:1403   */\n      dup3\n        /* \"#utility.yul\":1392:1395   */\n      dup2\n        /* \"#utility.yul\":1387:1390   */\n      dup4\n        /* \"#utility.yul\":1381:1404   */\n      mcopy\n        /* \"#utility.yul\":1438:1439   */\n      0x00\n        /* \"#utility.yul\":1429:1435   */\n      dup4\n        /* \"#utility.yul\":1424:1427   */\n      dup4\n        /* \"#utility.yul\":1420:1436   */\n      add\n        /* \"#utility.yul\":1413:1440   */\n      mstore\n        /* \"#utility.yul\":1308:1447   */\n      pop\n      pop\n      pop\n      jump\t// out\n        /* \"#utility.yul\":1453:1555   */\n    tag_137:\n        /* \"#utility.yul\":1494:1500   */\n      0x00\n        /* \"#utility.yul\":1545:1547   */\n      0x1f\n        /* \"#utility.yul\":1541:1548   */\n      not\n        /* \"#utility.yul\":1536:1538   */\n      0x1f\n        /* \"#utility.yul\":1529:1534   */\n      dup4\n        /* \"#utility.yul\":1525:1539   */\n      add\n        /* \"#utility.yul\":1521:1549   */\n      and\n        /* \"#utility.yul\":1511:1549   */\n      swap1\n      pop\n        /* \"#utility.yul\":1453:1555   */\n      swap2\n      swap1\n      pop\n      jump\t// out\n        /* \"#utility.yul\":1561:1938   */\n    tag_138:\n        /* \"#utility.yul\":1649:1652   */\n      0x00\n        /* \"#utility.yul\":1677:1716   */\n      tag_207\n        /* \"#utility.yul\":1710:1715   */\n      dup3\n        /* \"#utility.yul\":1677:1716   */\n      tag_134\n      jump\t// in\n    tag_207:\n        /* \"#utility.yul\":1732:1803   */\n      tag_208\n        /* \"#utility.yul\":1796:1802   */\n      dup2\n        /* \"#utility.yul\":1791:1794   */\n      dup6\n        /* \"#utility.yul\":1732:1803   */\n      tag_135\n      jump\t// in\n    tag_208:\n        /* \"#utility.yul\":1725:1803   */\n      swap4\n      pop\n        /* \"#utility.yul\":1812:1877   */\n      tag_209\n        /* \"#utility.yul\":1870:1876   */\n      dup2\n        /* \"#utility.yul\":1865:1868   */\n      dup6\n        /* \"#utility.yul\":1858:1862   */\n      0x20\n        /* \"#utility.yul\":1851:1856   */\n      dup7\n        /* \"#utility.yul\":1847:1863   */\n      add\n        /* \"#utility.yul\":1812:1877   */\n      tag_136\n      jump\t// in\n    tag_209:\n        /* \"#utility.yul\":1902:1931   */\n      tag_210\n        /* \"#utility.yul\":1924:1930   */\n      dup2\n        /* \"#utility.yul\":1902:1931   */\n      tag_137\n      jump\t// in\n    tag_210:\n        /* \"#utility.yul\":1897:1900   */\n      dup5\n        /* \"#utility.yul\":1893:1932   */\n      add\n        /* \"#utility.yul\":1886:1932   */\n      swap2\n      pop\n        /* \"#utility.yul\":1653:1938   */\n      pop\n        /* \"#utility.yul\":1561:1938   */\n      swap3\n      swap2\n      pop\n      pop\n      jump\t// out\n        /* \"#utility.yul\":1944:2257   */\n    tag_42:\n        /* \"#utility.yul\":2057:2061   */\n      0x00\n        /* \"#utility.yul\":2095:2097   */\n      0x20\n        /* \"#utility.yul\":2084:2093   */\n      dup3\n        /* \"#utility.yul\":2080:2098   */\n      add\n        /* \"#utility.yul\":2072:2098   */\n      swap1\n      pop\n        /* \"#utility.yul\":2144:2153   */\n      dup2\n        /* \"#utility.yul\":2138:2142   */\n      dup2\n        /* \"#utility.yul\":2134:2154   */\n      sub\n        /* \"#utility.yul\":2130:2131   */\n      0x00\n        /* \"#utility.yul\":2119:2128   */\n      dup4\n        /* \"#utility.yul\":2115:2132   */\n      add\n        /* \"#utility.yul\":2108:2155   */\n      mstore\n        /* \"#utility.yul\":2172:2250   */\n      tag_212\n        /* \"#utility.yul\":2245:2249   */\n      dup2\n        /* \"#utility.yul\":2236:2242   */\n      dup5\n        /* \"#utility.yul\":2172:2250   */\n      tag_138\n      jump\t// in\n    tag_212:\n        /* \"#utility.yul\":2164:2250   */\n      swap1\n      pop\n        /* \"#utility.yul\":1944:2257   */\n      swap3\n      swap2\n      pop\n      pop\n      jump\t// out\n        /* \"#utility.yul\":2263:2338   */\n    tag_139:\n        /* \"#utility.yul\":2296:2302   */\n      0x00\n        /* \"#utility.yul\":2329:2331   */\n      0x40\n        /* \"#utility.yul\":2323:2332   */\n      mload\n        /* \"#utility.yul\":2313:2332   */\n      swap1\n      pop\n        /* \"#utility.yul\":2263:2338   */\n      swap1\n      jump\t// out\n        /* \"#utility.yul\":2344:2461   */\n    tag_140:\n        /* \"#utility.yul\":2453:2454   */\n      0x00\n        /* \"#utility.yul\":2450:2451   */\n      0x00\n        /* \"#utility.yul\":2443:2455   */\n      revert\n        /* \"#utility.yul\":2467:2584   */\n    tag_141:\n        /* \"#utility.yul\":2576:2577   */\n      0x00\n        /* \"#utility.yul\":2573:2574   */\n      0x00\n        /* \"#utility.yul\":2566:2578   */\n      revert\n        /* \"#utility.yul\":2590:2712   */\n    tag_142:\n        /* \"#utility.yul\":2663:2687   */\n      tag_217\n        /* \"#utility.yul\":2681:2686   */\n      dup2\n        /* \"#utility.yul\":2663:2687   */\n      tag_129\n      jump\t// in\n    tag_217:\n        /* \"#utility.yul\":2656:2661   */\n      dup2\n        /* \"#utility.yul\":2653:2688   */\n      eq\n        /* \"#utility.yul\":2643:2706   */\n      tag_218\n      jumpi\n        /* \"#utility.yul\":2702:2703   */\n      0x00\n        /* \"#utility.yul\":2699:2700   */\n      0x00\n        /* \"#utility.yul\":2692:2704   */\n      revert\n        /* \"#utility.yul\":2643:2706   */\n    tag_218:\n        /* \"#utility.yul\":2590:2712   */\n      pop\n      jump\t// out\n        /* \"#utility.yul\":2718:2857   */\n    tag_143:\n        /* \"#utility.yul\":2764:2769   */\n      0x00\n        /* \"#utility.yul\":2802:2808   */\n      dup2\n        /* \"#utility.yul\":2789:2809   */\n      calldataload\n        /* \"#utility.yul\":2780:2809   */\n      swap1\n      pop\n        /* \"#utility.yul\":2818:2851   */\n      tag_220\n        /* \"#utility.yul\":2845:2850   */\n      dup2\n        /* \"#utility.yul\":2818:2851   */\n      tag_142\n      jump\t// in\n    tag_220:\n        /* \"#utility.yul\":2718:2857   */\n      swap3\n      swap2\n      pop\n      pop\n      jump\t// out\n        /* \"#utility.yul\":2863:3192   */\n    tag_45:\n        /* \"#utility.yul\":2922:2928   */\n      0x00\n        /* \"#utility.yul\":2971:2973   */\n      0x20\n        /* \"#utility.yul\":2959:2968   */\n      dup3\n        /* \"#utility.yul\":2950:2957   */\n      dup5\n        /* \"#utility.yul\":2946:2969   */\n      sub\n        /* \"#utility.yul\":2942:2974   */\n      slt\n        /* \"#utility.yul\":2939:3058   */\n      iszero\n      tag_222\n      jumpi\n        /* \"#utility.yul\":2977:3056   */\n      tag_223\n      tag_140\n      jump\t// in\n    tag_223:\n        /* \"#utility.yul\":2939:3058   */\n    tag_222:\n        /* \"#utility.yul\":3097:3098   */\n      0x00\n        /* \"#utility.yul\":3122:3175   */\n      tag_224\n        /* \"#utility.yul\":3167:3174   */\n      dup5\n        /* \"#utility.yul\":3158:3164   */\n      dup3\n        /* \"#utility.yul\":3147:3156   */\n      dup6\n        /* \"#utility.yul\":3143:3165   */\n      add\n        /* \"#utility.yul\":3122:3175   */\n      tag_143\n      jump\t// in\n    tag_224:\n        /* \"#utility.yul\":3112:3175   */\n      swap2\n      pop\n        /* \"#utility.yul\":3068:3185   */\n      pop\n        /* \"#utility.yul\":2863:3192   */\n      swap3\n      swap2\n      pop\n      pop\n      jump\t// out\n        /* \"#utility.yul\":3198:3315   */\n    tag_144:\n        /* \"#utility.yul\":3307:3308   */\n      0x00\n        /* \"#utility.yul\":3304:3305   */\n      0x00\n        /* \"#utility.yul\":3297:3309   */\n      revert\n        /* \"#utility.yul\":3321:3438   */\n    tag_145:\n        /* \"#utility.yul\":3430:3431   */\n      0x00\n        /* \"#utility.yul\":3427:3428   */\n      0x00\n        /* \"#utility.yul\":3420:3432   */\n      revert\n        /* \"#utility.yul\":3444:3624   */\n    tag_146:\n        /* \"#utility.yul\":3492:3569   */\n      0x4e487b7100000000000000000000000000000000000000000000000000000000\n        /* \"#utility.yul\":3489:3490   */\n      0x00\n        /* \"#utility.yul\":3482:3570   */\n      mstore\n        /* \"#utility.yul\":3589:3593   */\n      0x41\n        /* \"#utility.yul\":3586:3587   */\n      0x04\n        /* \"#utility.yul\":3579:3594   */\n      mstore\n        /* \"#utility.yul\":3613:3617   */\n      0x24\n        /* \"#utility.yul\":3610:3611   */\n      0x00\n        /* \"#utility.yul\":3603:3618   */\n      revert\n        /* \"#utility.yul\":3630:3911   */\n    tag_147:\n        /* \"#utility.yul\":3713:3740   */\n      tag_229\n        /* \"#utility.yul\":3735:3739   */\n      dup3\n        /* \"#utility.yul\":3713:3740   */\n      tag_137\n      jump\t// in\n    tag_229:\n        /* \"#utility.yul\":3705:3711   */\n      dup2\n        /* \"#utility.yul\":3701:3741   */\n      add\n        /* \"#utility.yul\":3843:3849   */\n      dup2\n        /* \"#utility.yul\":3831:3841   */\n      dup2\n        /* \"#utility.yul\":3828:3850   */\n      lt\n        /* \"#utility.yul\":3807:3825   */\n      0xffffffffffffffff\n        /* \"#utility.yul\":3795:3805   */\n      dup3\n        /* \"#utility.yul\":3792:3826   */\n      gt\n        /* \"#utility.yul\":3789:3851   */\n      or\n        /* \"#utility.yul\":3786:3874   */\n      iszero\n      tag_230\n      jumpi\n        /* \"#utility.yul\":3854:3872   */\n      tag_231\n      tag_146\n      jump\t// in\n    tag_231:\n        /* \"#utility.yul\":3786:3874   */\n    tag_230:\n        /* \"#utility.yul\":3894:3904   */\n      dup1\n        /* \"#utility.yul\":3890:3892   */\n      0x40\n        /* \"#utility.yul\":3883:3905   */\n      mstore\n        /* \"#utility.yul\":3673:3911   */\n      pop\n        /* \"#utility.yul\":3630:3911   */\n      pop\n      pop\n      jump\t// out\n        /* \"#utility.yul\":3917:4046   */\n    tag_148:\n        /* \"#utility.yul\":3951:3957   */\n      0x00\n        /* \"#utility.yul\":3978:3998   */\n      tag_233\n      tag_139\n      jump\t// in\n    tag_233:\n        /* \"#utility.yul\":3968:3998   */\n      swap1\n      pop\n        /* \"#utility.yul\":4007:4040   */\n      tag_234\n        /* \"#utility.yul\":4035:4039   */\n      dup3\n        /* \"#utility.yul\":4027:4033   */\n      dup3\n        /* \"#utility.yul\":4007:4040   */\n      tag_147\n      jump\t// in\n    tag_234:\n        /* \"#utility.yul\":3917:4046   */\n      swap2\n      swap1\n      pop\n      jump\t// out\n        /* \"#utility.yul\":4052:4359   */\n    tag_149:\n        /* \"#utility.yul\":4113:4117   */\n      0x00\n        /* \"#utility.yul\":4203:4221   */\n      0xffffffffffffffff\n        /* \"#utility.yul\":4195:4201   */\n      dup3\n        /* \"#utility.yul\":4192:4222   */\n      gt\n        /* \"#utility.yul\":4189:4245   */\n      iszero\n      tag_236\n      jumpi\n        /* \"#utility.yul\":4225:4243   */\n      tag_237\n      tag_146\n      jump\t// in\n    tag_237:\n        /* \"#utility.yul\":4189:4245   */\n    tag_236:\n        /* \"#utility.yul\":4263:4292   */\n      tag_238\n        /* \"#utility.yul\":4285:4291   */\n      dup3\n        /* \"#utility.yul\":4263:4292   */\n      tag_137\n      jump\t// in\n    tag_238:\n        /* \"#utility.yul\":4255:4292   */\n      swap1\n      pop\n        /* \"#utility.yul\":4347:4351   */\n      0x20\n        /* \"#utility.yul\":4341:4345   */\n      dup2\n        /* \"#utility.yul\":4337:4352   */\n      add\n        /* \"#utility.yul\":4329:4352   */\n      swap1\n      pop\n        /* \"#utility.yul\":4052:4359   */\n      swap2\n      swap1\n      pop\n      jump\t// out\n        /* \"#utility.yul\":4365:4513   */\n    tag_150:\n        /* \"#utility.yul\":4463:4469   */\n      dup3\n        /* \"#utility.yul\":4458:4461   */\n      dup2\n        /* \"#utility.yul\":4453:4456   */\n      dup4\n        /* \"#utility.yul\":4440:4470   */\n      calldatacopy\n        /* \"#utility.yul\":4504:4505   */\n      0x00\n        /* \"#utility.yul\":4495:4501   */\n      dup4\n        /* \"#utility.yul\":4490:4493   */\n      dup4\n        /* \"#utility.yul\":4486:4502   */\n      add\n        /* \"#utility.yul\":4479:4506   */\n      mstore\n        /* \"#utility.yul\":4365:4513   */\n      pop\n      pop\n      pop\n      jump\t// out\n        /* \"#utility.yul\":4519:4942   */\n    tag_151:\n        /* \"#utility.yul\":4596:4601   */\n      0x00\n        /* \"#utility.yul\":4621:4686   */\n      tag_241\n        /* \"#utility.yul\":4637:4685   */\n      tag_242\n        /* \"#utility.yul\":4678:4684   */\n      dup5\n        /* \"#utility.yul\":4637:4685   */\n      tag_149\n      jump\t// in\n    tag_242:\n        /* \"#utility.yul\":4621:4686   */\n      tag_148\n      jump\t// in\n    tag_241:\n        /* \"#utility.yul\":4612:4686   */\n      swap1\n      pop\n        /* \"#utility.yul\":4709:4715   */\n      dup3\n        /* \"#utility.yul\":4702:4707   */\n      dup2\n        /* \"#utility.yul\":4695:4716   */\n      mstore\n        /* \"#utility.yul\":4747:4751   */\n      0x20\n        /* \"#utility.yul\":4740:4745   */\n      dup2\n        /* \"#utility.yul\":4736:4752   */\n      add\n        /* \"#utility.yul\":4785:4788   */\n      dup5\n        /* \"#utility.yul\":4776:4782   */\n      dup5\n        /* \"#utility.yul\":4771:4774   */\n      dup5\n        /* \"#utility.yul\":4767:4783   */\n      add\n        /* \"#utility.yul\":4764:4789   */\n      gt\n        /* \"#utility.yul\":4761:4873   */\n      iszero\n      tag_243\n      jumpi\n        /* \"#utility.yul\":4792:4871   */\n      tag_244\n      tag_145\n      jump\t// in\n    tag_244:\n        /* \"#utility.yul\":4761:4873   */\n    tag_243:\n        /* \"#utility.yul\":4882:4936   */\n      tag_245\n        /* \"#utility.yul\":4929:4935   */\n      dup5\n        /* \"#utility.yul\":4924:4927   */\n      dup3\n        /* \"#utility.yul\":4919:4922   */\n      dup6\n        /* \"#utility.yul\":4882:4936   */\n      tag_150\n      jump\t// in\n    tag_245:\n        /* \"#utility.yul\":4602:4942   */\n      pop\n        /* \"#utility.yul\":4519:4942   */\n      swap4\n      swap3\n      pop\n      pop\n      pop\n      jump\t// out\n        /* \"#utility.yul\":4961:5299   */\n    tag_152:\n        /* \"#utility.yul\":5016:5021   */\n      0x00\n        /* \"#utility.yul\":5065:5068   */\n      dup3\n        /* \"#utility.yul\":5058:5062   */\n      0x1f\n        /* \"#utility.yul\":5050:5056   */\n      dup4\n        /* \"#utility.yul\":5046:5063   */\n      add\n        /* \"#utility.yul\":5042:5069   */\n      slt\n        /* \"#utility.yul\":5032:5154   */\n      tag_247\n      jumpi\n        /* \"#utility.yul\":5073:5152   */\n      tag_248\n      tag_144\n      jump\t// in\n    tag_248:\n        /* \"#utility.yul\":5032:5154   */\n    tag_247:\n        /* \"#utility.yul\":5190:5196   */\n      dup2\n        /* \"#utility.yul\":5177:5197   */\n      calldataload\n        /* \"#utility.yul\":5215:5293   */\n      tag_249\n        /* \"#utility.yul\":5289:5292   */\n      dup5\n        /* \"#utility.yul\":5281:5287   */\n      dup3\n        /* \"#utility.yul\":5274:5278   */\n      0x20\n        /* \"#utility.yul\":5266:5272   */\n      dup7\n        /* \"#utility.yul\":5262:5279   */\n      add\n        /* \"#utility.yul\":5215:5293   */\n      tag_151\n      jump\t// in\n    tag_249:\n        /* \"#utility.yul\":5206:5293   */\n      swap2\n      pop\n        /* \"#utility.yul\":5022:5299   */\n      pop\n        /* \"#utility.yul\":4961:5299   */\n      swap3\n      swap2\n      pop\n      pop\n      jump\t// out\n        /* \"#utility.yul\":5305:5812   */\n    tag_49:\n        /* \"#utility.yul\":5373:5379   */\n      0x00\n        /* \"#utility.yul\":5422:5424   */\n      0x20\n        /* \"#utility.yul\":5410:5419   */\n      dup3\n        /* \"#utility.yul\":5401:5408   */\n      dup5\n        /* \"#utility.yul\":5397:5420   */\n      sub\n        /* \"#utility.yul\":5393:5425   */\n      slt\n        /* \"#utility.yul\":5390:5509   */\n      iszero\n      tag_251\n      jumpi\n        /* \"#utility.yul\":5428:5507   */\n      tag_252\n      tag_140\n      jump\t// in\n    tag_252:\n        /* \"#utility.yul\":5390:5509   */\n    tag_251:\n        /* \"#utility.yul\":5576:5577   */\n      0x00\n        /* \"#utility.yul\":5565:5574   */\n      dup3\n        /* \"#utility.yul\":5561:5578   */\n      add\n        /* \"#utility.yul\":5548:5579   */\n      calldataload\n        /* \"#utility.yul\":5606:5624   */\n      0xffffffffffffffff\n        /* \"#utility.yul\":5598:5604   */\n      dup2\n        /* \"#utility.yul\":5595:5625   */\n      gt\n        /* \"#utility.yul\":5592:5709   */\n      iszero\n      tag_253\n      jumpi\n        /* \"#utility.yul\":5628:5707   */\n      tag_254\n      tag_141\n      jump\t// in\n    tag_254:\n        /* \"#utility.yul\":5592:5709   */\n    tag_253:\n        /* \"#utility.yul\":5733:5795   */\n      tag_255\n        /* \"#utility.yul\":5787:5794   */\n      dup5\n        /* \"#utility.yul\":5778:5784   */\n      dup3\n        /* \"#utility.yul\":5767:5776   */\n      dup6\n        /* \"#utility.yul\":5763:5785   */\n      add\n        /* \"#utility.yul\":5733:5795   */\n      tag_152\n      jump\t// in\n    tag_255:\n        /* \"#utility.yul\":5723:5795   */\n      swap2\n      pop\n        /* \"#utility.yul\":5519:5805   */\n      pop\n        /* \"#utility.yul\":5305:5812   */\n      swap3\n      swap2\n      pop\n      pop\n      jump\t// out\n        /* \"#utility.yul\":5818:6126   */\n    tag_153:\n        /* \"#utility.yul\":5880:5884   */\n      0x00\n        /* \"#utility.yul\":5970:5988   */\n      0xffffffffffffffff\n        /* \"#utility.yul\":5962:5968   */\n      dup3\n        /* \"#utility.yul\":5959:5989   */\n      gt\n        /* \"#utility.yul\":5956:6012   */\n      iszero\n      tag_257\n      jumpi\n        /* \"#utility.yul\":5992:6010   */\n      tag_258\n      tag_146\n      jump\t// in\n    tag_258:\n        /* \"#utility.yul\":5956:6012   */\n    tag_257:\n        /* \"#utility.yul\":6030:6059   */\n      tag_259\n        /* \"#utility.yul\":6052:6058   */\n      dup3\n        /* \"#utility.yul\":6030:6059   */\n      tag_137\n      jump\t// in\n    tag_259:\n        /* \"#utility.yul\":6022:6059   */\n      swap1\n      pop\n        /* \"#utility.yul\":6114:6118   */\n      0x20\n        /* \"#utility.yul\":6108:6112   */\n      dup2\n        /* \"#utility.yul\":6104:6119   */\n      add\n        /* \"#utility.yul\":6096:6119   */\n      swap1\n      pop\n        /* \"#utility.yul\":5818:6126   */\n      swap2\n      swap1\n      pop\n      jump\t// out\n        /* \"#utility.yul\":6132:6557   */\n    tag_154:\n        /* \"#utility.yul\":6210:6215   */\n      0x00\n        /* \"#utility.yul\":6235:6301   */\n      tag_261\n        /* \"#utility.yul\":6251:6300   */\n      tag_262\n        /* \"#utility.yul\":6293:6299   */\n      dup5\n        /* \"#utility.yul\":6251:6300   */\n      tag_153\n      jump\t// in\n    tag_262:\n        /* \"#utility.yul\":6235:6301   */\n      tag_148\n      jump\t// in\n    tag_261:\n        /* \"#utility.yul\":6226:6301   */\n      swap1\n      pop\n        /* \"#utility.yul\":6324:6330   */\n      dup3\n        /* \"#utility.yul\":6317:6322   */\n      dup2\n        /* \"#utility.yul\":6310:6331   */\n      mstore\n        /* \"#utility.yul\":6362:6366   */\n      0x20\n        /* \"#utility.yul\":6355:6360   */\n      dup2\n        /* \"#utility.yul\":6351:6367   */\n      add\n        /* \"#utility.yul\":6400:6403   */\n      dup5\n        /* \"#utility.yul\":6391:6397   */\n      dup5\n        /* \"#utility.yul\":6386:6389   */\n      dup5\n        /* \"#utility.yul\":6382:6398   */\n      add\n        /* \"#utility.yul\":6379:6404   */\n      gt\n        /* \"#utility.yul\":6376:6488   */\n      iszero\n      tag_263\n      jumpi\n        /* \"#utility.yul\":6407:6486   */\n      tag_264\n      tag_145\n      jump\t// in\n    tag_264:\n        /* \"#utility.yul\":6376:6488   */\n    tag_263:\n        /* \"#utility.yul\":6497:6551   */\n      tag_265\n        /* \"#utility.yul\":6544:6550   */\n      dup5\n        /* \"#utility.yul\":6539:6542   */\n      dup3\n        /* \"#utility.yul\":6534:6537   */\n      dup6\n        /* \"#utility.yul\":6497:6551   */\n      tag_150\n      jump\t// in\n    tag_265:\n        /* \"#utility.yul\":6216:6557   */\n      pop\n        /* \"#utility.yul\":6132:6557   */\n      swap4\n      swap3\n      pop\n      pop\n      pop\n      jump\t// out\n        /* \"#utility.yul\":6577:6917   */\n    tag_155:\n        /* \"#utility.yul\":6633:6638   */\n      0x00\n        /* \"#utility.yul\":6682:6685   */\n      dup3\n        /* \"#utility.yul\":6675:6679   */\n      0x1f\n        /* \"#utility.yul\":6667:6673   */\n      dup4\n        /* \"#utility.yul\":6663:6680   */\n      add\n        /* \"#utility.yul\":6659:6686   */\n      slt\n        /* \"#utility.yul\":6649:6771   */\n      tag_267\n      jumpi\n        /* \"#utility.yul\":6690:6769   */\n      tag_268\n      tag_144\n      jump\t// in\n    tag_268:\n        /* \"#utility.yul\":6649:6771   */\n    tag_267:\n        /* \"#utility.yul\":6807:6813   */\n      dup2\n        /* \"#utility.yul\":6794:6814   */\n      calldataload\n        /* \"#utility.yul\":6832:6911   */\n      tag_269\n        /* \"#utility.yul\":6907:6910   */\n      dup5\n        /* \"#utility.yul\":6899:6905   */\n      dup3\n        /* \"#utility.yul\":6892:6896   */\n      0x20\n        /* \"#utility.yul\":6884:6890   */\n      dup7\n        /* \"#utility.yul\":6880:6897   */\n      add\n        /* \"#utility.yul\":6832:6911   */\n      tag_154\n      jump\t// in\n    tag_269:\n        /* \"#utility.yul\":6823:6911   */\n      swap2\n      pop\n        /* \"#utility.yul\":6639:6917   */\n      pop\n        /* \"#utility.yul\":6577:6917   */\n      swap3\n      swap2\n      pop\n      pop\n      jump\t// out\n        /* \"#utility.yul\":6923:7432   */\n    tag_53:\n        /* \"#utility.yul\":6992:6998   */\n      0x00\n        /* \"#utility.yul\":7041:7043   */\n      0x20\n        /* \"#utility.yul\":7029:7038   */\n      dup3\n        /* \"#utility.yul\":7020:7027   */\n      dup5\n        /* \"#utility.yul\":7016:7039   */\n      sub\n        /* \"#utility.yul\":7012:7044   */\n      slt\n        /* \"#utility.yul\":7009:7128   */\n      iszero\n      tag_271\n      jumpi\n        /* \"#utility.yul\":7047:7126   */\n      tag_272\n      tag_140\n      jump\t// in\n    tag_272:\n        /* \"#utility.yul\":7009:7128   */\n    tag_271:\n        /* \"#utility.yul\":7195:7196   */\n      0x00\n        /* \"#utility.yul\":7184:7193   */\n      dup3\n        /* \"#utility.yul\":7180:7197   */\n      add\n        /* \"#utility.yul\":7167:7198   */\n      calldataload\n        /* \"#utility.yul\":7225:7243   */\n      0xffffffffffffffff\n        /* \"#utility.yul\":7217:7223   */\n      dup2\n        /* \"#utility.yul\":7214:7244   */\n      gt\n        /* \"#utility.yul\":7211:7328   */\n      iszero\n      tag_273\n      jumpi\n        /* \"#utility.yul\":7247:7326   */\n      tag_274\n      tag_141\n      jump\t// in\n    tag_274:\n        /* \"#utility.yul\":7211:7328   */\n    tag_273:\n        /* \"#utility.yul\":7352:7415   */\n      tag_275\n        /* \"#utility.yul\":7407:7414   */\n      dup5\n        /* \"#utility.yul\":7398:7404   */\n      dup3\n        /* \"#utility.yul\":7387:7396   */\n      dup6\n        /* \"#utility.yul\":7383:7405   */\n      add\n        /* \"#utility.yul\":7352:7415   */\n      tag_155\n      jump\t// in\n    tag_275:\n        /* \"#utility.yul\":7342:7415   */\n      swap2\n      pop\n        /* \"#utility.yul\":7138:7425   */\n      pop\n        /* \"#utility.yul\":6923:7432   */\n      swap3\n      swap2\n      pop\n      pop\n      jump\t// out\n        /* \"#utility.yul\":7438:7528   */\n    tag_156:\n        /* \"#utility.yul\":7472:7479   */\n      0x00\n        /* \"#utility.yul\":7515:7520   */\n      dup2\n        /* \"#utility.yul\":7508:7521   */\n      iszero\n        /* \"#utility.yul\":7501:7522   */\n      iszero\n        /* \"#utility.yul\":7490:7522   */\n      swap1\n      pop\n        /* \"#utility.yul\":7438:7528   */\n      swap2\n      swap1\n      pop\n      jump\t// out\n        /* \"#utility.yul\":7534:7643   */\n    tag_157:\n        /* \"#utility.yul\":7615:7636   */\n      tag_278\n        /* \"#utility.yul\":7630:7635   */\n      dup2\n        /* \"#utility.yul\":7615:7636   */\n      tag_156\n      jump\t// in\n    tag_278:\n        /* \"#utility.yul\":7610:7613   */\n      dup3\n        /* \"#utility.yul\":7603:7637   */\n      mstore\n        /* \"#utility.yul\":7534:7643   */\n      pop\n      pop\n      jump\t// out\n        /* \"#utility.yul\":7649:7859   */\n    tag_56:\n        /* \"#utility.yul\":7736:7740   */\n      0x00\n        /* \"#utility.yul\":7774:7776   */\n      0x20\n        /* \"#utility.yul\":7763:7772   */\n      dup3\n        /* \"#utility.yul\":7759:7777   */\n      add\n        /* \"#utility.yul\":7751:7777   */\n      swap1\n      pop\n        /* \"#utility.yul\":7787:7852   */\n      tag_280\n        /* \"#utility.yul\":7849:7850   */\n      0x00\n        /* \"#utility.yul\":7838:7847   */\n      dup4\n        /* \"#utility.yul\":7834:7851   */\n      add\n        /* \"#utility.yul\":7825:7831   */\n      dup5\n        /* \"#utility.yul\":7787:7852   */\n      tag_157\n      jump\t// in\n    tag_280:\n        /* \"#utility.yul\":7649:7859   */\n      swap3\n      swap2\n      pop\n      pop\n      jump\t// out\n        /* \"#utility.yul\":7865:7987   */\n    tag_158:\n        /* \"#utility.yul\":7938:7962   */\n      tag_282\n        /* \"#utility.yul\":7956:7961   */\n      dup2\n        /* \"#utility.yul\":7938:7962   */\n      tag_132\n      jump\t// in\n    tag_282:\n        /* \"#utility.yul\":7931:7936   */\n      dup2\n        /* \"#utility.yul\":7928:7963   */\n      eq\n        /* \"#utility.yul\":7918:7981   */\n      tag_283\n      jumpi\n        /* \"#utility.yul\":7977:7978   */\n      0x00\n        /* \"#utility.yul\":7974:7975   */\n      0x00\n        /* \"#utility.yul\":7967:7979   */\n      revert\n        /* \"#utility.yul\":7918:7981   */\n    tag_283:\n        /* \"#utility.yul\":7865:7987   */\n      pop\n      jump\t// out\n        /* \"#utility.yul\":7993:8132   */\n    tag_159:\n        /* \"#utility.yul\":8039:8044   */\n      0x00\n        /* \"#utility.yul\":8077:8083   */\n      dup2\n        /* \"#utility.yul\":8064:8084   */\n      calldataload\n        /* \"#utility.yul\":8055:8084   */\n      swap1\n      pop\n        /* \"#utility.yul\":8093:8126   */\n      tag_285\n        /* \"#utility.yul\":8120:8125   */\n      dup2\n        /* \"#utility.yul\":8093:8126   */\n      tag_158\n      jump\t// in\n    tag_285:\n        /* \"#utility.yul\":7993:8132   */\n      swap3\n      swap2\n      pop\n      pop\n      jump\t// out\n        /* \"#utility.yul\":8138:8467   */\n    tag_76:\n        /* \"#utility.yul\":8197:8203   */\n      0x00\n        /* \"#utility.yul\":8246:8248   */\n      0x20\n        /* \"#utility.yul\":8234:8243   */\n      dup3\n        /* \"#utility.yul\":8225:8232   */\n      dup5\n        /* \"#utility.yul\":8221:8244   */\n      sub\n        /* \"#utility.yul\":8217:8249   */\n      slt\n        /* \"#utility.yul\":8214:8333   */\n      iszero\n      tag_287\n      jumpi\n        /* \"#utility.yul\":8252:8331   */\n      tag_288\n      tag_140\n      jump\t// in\n    tag_288:\n        /* \"#utility.yul\":8214:8333   */\n    tag_287:\n        /* \"#utility.yul\":8372:8373   */\n      0x00\n        /* \"#utility.yul\":8397:8450   */\n      tag_289\n        /* \"#utility.yul\":8442:8449   */\n      dup5\n        /* \"#utility.yul\":8433:8439   */\n      dup3\n        /* \"#utility.yul\":8422:8431   */\n      dup6\n        /* \"#utility.yul\":8418:8440   */\n      add\n        /* \"#utility.yul\":8397:8450   */\n      tag_159\n      jump\t// in\n    tag_289:\n        /* \"#utility.yul\":8387:8450   */\n      swap2\n      pop\n        /* \"#utility.yul\":8343:8460   */\n      pop\n        /* \"#utility.yul\":8138:8467   */\n      swap3\n      swap2\n      pop\n      pop\n      jump\t// out\n        /* \"#utility.yul\":8473:8559   */\n    tag_160:\n        /* \"#utility.yul\":8508:8515   */\n      0x00\n        /* \"#utility.yul\":8548:8552   */\n      0xff\n        /* \"#utility.yul\":8541:8546   */\n      dup3\n        /* \"#utility.yul\":8537:8553   */\n      and\n        /* \"#utility.yul\":8526:8553   */\n      swap1\n      pop\n        /* \"#utility.yul\":8473:8559   */\n      swap2\n      swap1\n      pop\n      jump\t// out\n        /* \"#utility.yul\":8565:8677   */\n    tag_161:\n        /* \"#utility.yul\":8648:8670   */\n      tag_292\n        /* \"#utility.yul\":8664:8669   */\n      dup2\n        /* \"#utility.yul\":8648:8670   */\n      tag_160\n      jump\t// in\n    tag_292:\n        /* \"#utility.yul\":8643:8646   */\n      dup3\n        /* \"#utility.yul\":8636:8671   */\n      mstore\n        /* \"#utility.yul\":8565:8677   */\n      pop\n      pop\n      jump\t// out\n        /* \"#utility.yul\":8683:8897   */\n    tag_82:\n        /* \"#utility.yul\":8772:8776   */\n      0x00\n        /* \"#utility.yul\":8810:8812   */\n      0x20\n        /* \"#utility.yul\":8799:8808   */\n      dup3\n        /* \"#utility.yul\":8795:8813   */\n      add\n        /* \"#utility.yul\":8787:8813   */\n      swap1\n      pop\n        /* \"#utility.yul\":8823:8890   */\n      tag_294\n        /* \"#utility.yul\":8887:8888   */\n      0x00\n        /* \"#utility.yul\":8876:8885   */\n      dup4\n        /* \"#utility.yul\":8872:8889   */\n      add\n        /* \"#utility.yul\":8863:8869   */\n      dup5\n        /* \"#utility.yul\":8823:8890   */\n      tag_161\n      jump\t// in\n    tag_294:\n        /* \"#utility.yul\":8683:8897   */\n      swap3\n      swap2\n      pop\n      pop\n      jump\t// out\n        /* \"#utility.yul\":8903:9001   */\n    tag_162:\n        /* \"#utility.yul\":8954:8960   */\n      0x00\n        /* \"#utility.yul\":8988:8993   */\n      dup2\n        /* \"#utility.yul\":8982:8994   */\n      mload\n        /* \"#utility.yul\":8972:8994   */\n      swap1\n      pop\n        /* \"#utility.yul\":8903:9001   */\n      swap2\n      swap1\n      pop\n      jump\t// out\n        /* \"#utility.yul\":9007:9175   */\n    tag_163:\n        /* \"#utility.yul\":9090:9101   */\n      0x00\n        /* \"#utility.yul\":9124:9130   */\n      dup3\n        /* \"#utility.yul\":9119:9122   */\n      dup3\n        /* \"#utility.yul\":9112:9131   */\n      mstore\n        /* \"#utility.yul\":9164:9168   */\n      0x20\n        /* \"#utility.yul\":9159:9162   */\n      dup3\n        /* \"#utility.yul\":9155:9169   */\n      add\n        /* \"#utility.yul\":9140:9169   */\n      swap1\n      pop\n        /* \"#utility.yul\":9007:9175   */\n      swap3\n      swap2\n      pop\n      pop\n      jump\t// out\n        /* \"#utility.yul\":9181:9554   */\n    tag_164:\n        /* \"#utility.yul\":9267:9270   */\n      0x00\n        /* \"#utility.yul\":9295:9333   */\n      tag_298\n        /* \"#utility.yul\":9327:9332   */\n      dup3\n        /* \"#utility.yul\":9295:9333   */\n      tag_162\n      jump\t// in\n    tag_298:\n        /* \"#utility.yul\":9349:9419   */\n      tag_299\n        /* \"#utility.yul\":9412:9418   */\n      dup2\n        /* \"#utility.yul\":9407:9410   */\n      dup6\n        /* \"#utility.yul\":9349:9419   */\n      tag_163\n      jump\t// in\n    tag_299:\n        /* \"#utility.yul\":9342:9419   */\n      swap4\n      pop\n        /* \"#utility.yul\":9428:9493   */\n      tag_300\n        /* \"#utility.yul\":9486:9492   */\n      dup2\n        /* \"#utility.yul\":9481:9484   */\n      dup6\n        /* \"#utility.yul\":9474:9478   */\n      0x20\n        /* \"#utility.yul\":9467:9472   */\n      dup7\n        /* \"#utility.yul\":9463:9479   */\n      add\n        /* \"#utility.yul\":9428:9493   */\n      tag_136\n      jump\t// in\n    tag_300:\n        /* \"#utility.yul\":9518:9547   */\n      tag_301\n        /* \"#utility.yul\":9540:9546   */\n      dup2\n        /* \"#utility.yul\":9518:9547   */\n      tag_137\n      jump\t// in\n    tag_301:\n        /* \"#utility.yul\":9513:9516   */\n      dup5\n        /* \"#utility.yul\":9509:9548   */\n      add\n        /* \"#utility.yul\":9502:9548   */\n      swap2\n      pop\n        /* \"#utility.yul\":9271:9554   */\n      pop\n        /* \"#utility.yul\":9181:9554   */\n      swap3\n      swap2\n      pop\n      pop\n      jump\t// out\n        /* \"#utility.yul\":9560:9869   */\n    tag_92:\n        /* \"#utility.yul\":9671:9675   */\n      0x00\n        /* \"#utility.yul\":9709:9711   */\n      0x20\n        /* \"#utility.yul\":9698:9707   */\n      dup3\n        /* \"#utility.yul\":9694:9712   */\n      add\n        /* \"#utility.yul\":9686:9712   */\n      swap1\n      pop\n        /* \"#utility.yul\":9758:9767   */\n      dup2\n        /* \"#utility.yul\":9752:9756   */\n      dup2\n        /* \"#utility.yul\":9748:9768   */\n      sub\n        /* \"#utility.yul\":9744:9745   */\n      0x00\n        /* \"#utility.yul\":9733:9742   */\n      dup4\n        /* \"#utility.yul\":9729:9746   */\n      add\n        /* \"#utility.yul\":9722:9769   */\n      mstore\n        /* \"#utility.yul\":9786:9862   */\n      tag_303\n        /* \"#utility.yul\":9857:9861   */\n      dup2\n        /* \"#utility.yul\":9848:9854   */\n      dup5\n        /* \"#utility.yul\":9786:9862   */\n      tag_164\n      jump\t// in\n    tag_303:\n        /* \"#utility.yul\":9778:9862   */\n      swap1\n      pop\n        /* \"#utility.yul\":9560:9869   */\n      swap3\n      swap2\n      pop\n      pop\n      jump\t// out\n        /* \"#utility.yul\":9875:9991   */\n    tag_165:\n        /* \"#utility.yul\":9945:9966   */\n      tag_305\n        /* \"#utility.yul\":9960:9965   */\n      dup2\n        /* \"#utility.yul\":9945:9966   */\n      tag_156\n      jump\t// in\n    tag_305:\n        /* \"#utility.yul\":9938:9943   */\n      dup2\n        /* \"#utility.yul\":9935:9967   */\n      eq\n        /* \"#utility.yul\":9925:9985   */\n      tag_306\n      jumpi\n        /* \"#utility.yul\":9981:9982   */\n      0x00\n        /* \"#utility.yul\":9978:9979   */\n      0x00\n        /* \"#utility.yul\":9971:9983   */\n      revert\n        /* \"#utility.yul\":9925:9985   */\n    tag_306:\n        /* \"#utility.yul\":9875:9991   */\n      pop\n      jump\t// out\n        /* \"#utility.yul\":9997:10130   */\n    tag_166:\n        /* \"#utility.yul\":10040:10045   */\n      0x00\n        /* \"#utility.yul\":10078:10084   */\n      dup2\n        /* \"#utility.yul\":10065:10085   */\n      calldataload\n        /* \"#utility.yul\":10056:10085   */\n      swap1\n      pop\n        /* \"#utility.yul\":10094:10124   */\n      tag_308\n        /* \"#utility.yul\":10118:10123   */\n      dup2\n        /* \"#utility.yul\":10094:10124   */\n      tag_165\n      jump\t// in\n    tag_308:\n        /* \"#utility.yul\":9997:10130   */\n      swap3\n      swap2\n      pop\n      pop\n      jump\t// out\n        /* \"#utility.yul\":10136:10459   */\n    tag_95:\n        /* \"#utility.yul\":10192:10198   */\n      0x00\n        /* \"#utility.yul\":10241:10243   */\n      0x20\n        /* \"#utility.yul\":10229:10238   */\n      dup3\n        /* \"#utility.yul\":10220:10227   */\n      dup5\n        /* \"#utility.yul\":10216:10239   */\n      sub\n        /* \"#utility.yul\":10212:10244   */\n      slt\n        /* \"#utility.yul\":10209:10328   */\n      iszero\n      tag_310\n      jumpi\n        /* \"#utility.yul\":10247:10326   */\n      tag_311\n      tag_140\n      jump\t// in\n    tag_311:\n        /* \"#utility.yul\":10209:10328   */\n    tag_310:\n        /* \"#utility.yul\":10367:10368   */\n      0x00\n        /* \"#utility.yul\":10392:10442   */\n      tag_312\n        /* \"#utility.yul\":10434:10441   */\n      dup5\n        /* \"#utility.yul\":10425:10431   */\n      dup3\n        /* \"#utility.yul\":10414:10423   */\n      dup6\n        /* \"#utility.yul\":10410:10432   */\n      add\n        /* \"#utility.yul\":10392:10442   */\n      tag_166\n      jump\t// in\n    tag_312:\n        /* \"#utility.yul\":10382:10442   */\n      swap2\n      pop\n        /* \"#utility.yul\":10338:10452   */\n      pop\n        /* \"#utility.yul\":10136:10459   */\n      swap3\n      swap2\n      pop\n      pop\n      jump\t// out\n        /* \"#utility.yul\":10465:10645   */\n    tag_167:\n        /* \"#utility.yul\":10513:10590   */\n      0x4e487b7100000000000000000000000000000000000000000000000000000000\n        /* \"#utility.yul\":10510:10511   */\n      0x00\n        /* \"#utility.yul\":10503:10591   */\n      mstore\n        /* \"#utility.yul\":10610:10614   */\n      0x11\n        /* \"#utility.yul\":10607:10608   */\n      0x04\n        /* \"#utility.yul\":10600:10615   */\n      mstore\n        /* \"#utility.yul\":10634:10638   */\n      0x24\n        /* \"#utility.yul\":10631:10632   */\n      0x00\n        /* \"#utility.yul\":10624:10639   */\n      revert\n        /* \"#utility.yul\":10651:10818   */\n    tag_99:\n        /* \"#utility.yul\":10688:10691   */\n      0x00\n        /* \"#utility.yul\":10711:10733   */\n      tag_315\n        /* \"#utility.yul\":10727:10732   */\n      dup3\n        /* \"#utility.yul\":10711:10733   */\n      tag_160\n      jump\t// in\n    tag_315:\n        /* \"#utility.yul\":10702:10733   */\n      swap2\n      pop\n        /* \"#utility.yul\":10755:10759   */\n      0xff\n        /* \"#utility.yul\":10748:10753   */\n      dup3\n        /* \"#utility.yul\":10745:10760   */\n      sub\n        /* \"#utility.yul\":10742:10783   */\n      tag_316\n      jumpi\n        /* \"#utility.yul\":10763:10781   */\n      tag_317\n      tag_167\n      jump\t// in\n    tag_317:\n        /* \"#utility.yul\":10742:10783   */\n    tag_316:\n        /* \"#utility.yul\":10810:10811   */\n      0x01\n        /* \"#utility.yul\":10803:10808   */\n      dup3\n        /* \"#utility.yul\":10799:10812   */\n      add\n        /* \"#utility.yul\":10792:10812   */\n      swap1\n      pop\n        /* \"#utility.yul\":10651:10818   */\n      swap2\n      swap1\n      pop\n      jump\t// out\n        /* \"#utility.yul\":10824:11004   */\n    tag_168:\n        /* \"#utility.yul\":10872:10949   */\n      0x4e487b7100000000000000000000000000000000000000000000000000000000\n        /* \"#utility.yul\":10869:10870   */\n      0x00\n        /* \"#utility.yul\":10862:10950   */\n      mstore\n        /* \"#utility.yul\":10969:10973   */\n      0x22\n        /* \"#utility.yul\":10966:10967   */\n      0x04\n        /* \"#utility.yul\":10959:10974   */\n      mstore\n        /* \"#utility.yul\":10993:10997   */\n      0x24\n        /* \"#utility.yul\":10990:10991   */\n      0x00\n        /* \"#utility.yul\":10983:10998   */\n      revert\n        /* \"#utility.yul\":11010:11330   */\n    tag_101:\n        /* \"#utility.yul\":11054:11060   */\n      0x00\n        /* \"#utility.yul\":11091:11092   */\n      0x02\n        /* \"#utility.yul\":11085:11089   */\n      dup3\n        /* \"#utility.yul\":11081:11093   */\n      div\n        /* \"#utility.yul\":11071:11093   */\n      swap1\n      pop\n        /* \"#utility.yul\":11138:11139   */\n      0x01\n        /* \"#utility.yul\":11132:11136   */\n      dup3\n        /* \"#utility.yul\":11128:11140   */\n      and\n        /* \"#utility.yul\":11159:11177   */\n      dup1\n        /* \"#utility.yul\":11149:11230   */\n      tag_320\n      jumpi\n        /* \"#utility.yul\":11215:11219   */\n      0x7f\n        /* \"#utility.yul\":11207:11213   */\n      dup3\n        /* \"#utility.yul\":11203:11220   */\n      and\n        /* \"#utility.yul\":11193:11220   */\n      swap2\n      pop\n        /* \"#utility.yul\":11149:11230   */\n    tag_320:\n        /* \"#utility.yul\":11277:11279   */\n      0x20\n        /* \"#utility.yul\":11269:11275   */\n      dup3\n        /* \"#utility.yul\":11266:11280   */\n      lt\n        /* \"#utility.yul\":11246:11264   */\n      dup2\n        /* \"#utility.yul\":11243:11281   */\n      sub\n        /* \"#utility.yul\":11240:11324   */\n      tag_321\n      jumpi\n        /* \"#utility.yul\":11296:11314   */\n      tag_322\n      tag_168\n      jump\t// in\n    tag_322:\n        /* \"#utility.yul\":11240:11324   */\n    tag_321:\n        /* \"#utility.yul\":11061:11330   */\n      pop\n        /* \"#utility.yul\":11010:11330   */\n      swap2\n      swap1\n      pop\n      jump\t// out\n        /* \"#utility.yul\":11336:11476   */\n    tag_169:\n        /* \"#utility.yul\":11384:11388   */\n      0x00\n        /* \"#utility.yul\":11407:11410   */\n      dup2\n        /* \"#utility.yul\":11399:11410   */\n      swap1\n      pop\n        /* \"#utility.yul\":11430:11433   */\n      dup2\n        /* \"#utility.yul\":11427:11428   */\n      0x00\n        /* \"#utility.yul\":11420:11434   */\n      mstore\n        /* \"#utility.yul\":11464:11468   */\n      0x20\n        /* \"#utility.yul\":11461:11462   */\n      0x00\n        /* \"#utility.yul\":11451:11469   */\n      keccak256\n        /* \"#utility.yul\":11443:11469   */\n      swap1\n      pop\n        /* \"#utility.yul\":11336:11476   */\n      swap2\n      swap1\n      pop\n      jump\t// out\n        /* \"#utility.yul\":11482:11575   */\n    tag_170:\n        /* \"#utility.yul\":11519:11525   */\n      0x00\n        /* \"#utility.yul\":11566:11568   */\n      0x20\n        /* \"#utility.yul\":11561:11563   */\n      0x1f\n        /* \"#utility.yul\":11554:11559   */\n      dup4\n        /* \"#utility.yul\":11550:11564   */\n      add\n        /* \"#utility.yul\":11546:11569   */\n      div\n        /* \"#utility.yul\":11536:11569   */\n      swap1\n      pop\n        /* \"#utility.yul\":11482:11575   */\n      swap2\n      swap1\n      pop\n      jump\t// out\n        /* \"#utility.yul\":11581:11688   */\n    tag_171:\n        /* \"#utility.yul\":11625:11633   */\n      0x00\n        /* \"#utility.yul\":11675:11680   */\n      dup3\n        /* \"#utility.yul\":11669:11673   */\n      dup3\n        /* \"#utility.yul\":11665:11681   */\n      shl\n        /* \"#utility.yul\":11644:11681   */\n      swap1\n      pop\n        /* \"#utility.yul\":11581:11688   */\n      swap3\n      swap2\n      pop\n      pop\n      jump\t// out\n        /* \"#utility.yul\":11694:12087   */\n    tag_172:\n        /* \"#utility.yul\":11763:11769   */\n      0x00\n        /* \"#utility.yul\":11813:11814   */\n      0x08\n        /* \"#utility.yul\":11801:11811   */\n      dup4\n        /* \"#utility.yul\":11797:11815   */\n      mul\n        /* \"#utility.yul\":11836:11933   */\n      tag_327\n        /* \"#utility.yul\":11866:11932   */\n      0xffffffffffffffffffffffffffffffffffffffffffffffffffffffffffffffff\n        /* \"#utility.yul\":11855:11864   */\n      dup3\n        /* \"#utility.yul\":11836:11933   */\n      tag_171\n      jump\t// in\n    tag_327:\n        /* \"#utility.yul\":11954:11993   */\n      tag_328\n        /* \"#utility.yul\":11984:11992   */\n      dup7\n        /* \"#utility.yul\":11973:11982   */\n      dup4\n        /* \"#utility.yul\":11954:11993   */\n      tag_171\n      jump\t// in\n    tag_328:\n        /* \"#utility.yul\":11942:11993   */\n      swap6\n      pop\n        /* \"#utility.yul\":12026:12030   */\n      dup1\n        /* \"#utility.yul\":12022:12031   */\n      not\n        /* \"#utility.yul\":12015:12020   */\n      dup5\n        /* \"#utility.yul\":12011:12032   */\n      and\n        /* \"#utility.yul\":12002:12032   */\n      swap4\n      pop\n        /* \"#utility.yul\":12075:12079   */\n      dup1\n        /* \"#utility.yul\":12065:12073   */\n      dup7\n        /* \"#utility.yul\":12061:12080   */\n      and\n        /* \"#utility.yul\":12054:12059   */\n      dup5\n        /* \"#utility.yul\":12051:12081   */\n      or\n        /* \"#utility.yul\":12041:12081   */\n      swap3\n      pop\n        /* \"#utility.yul\":11770:12087   */\n      pop\n      pop\n        /* \"#utility.yul\":11694:12087   */\n      swap4\n      swap3\n      pop\n      pop\n      pop\n      jump\t// out\n        /* \"#utility.yul\":12093:12153   */\n    tag_173:\n        /* \"#utility.yul\":12121:12124   */\n      0x00\n        /* \"#utility.yul\":12142:12147   */\n      dup2\n        /* \"#utility.yul\":12135:12147   */\n      swap1\n      pop\n        /* \"#utility.yul\":12093:12153   */\n      swap2\n      swap1\n      pop\n      jump\t// out\n        /* \"#utility.yul\":12159:12301   */\n    tag_174:\n        /* \"#utility.yul\":12209:12218   */\n      0x00\n        /* \"#utility.yul\":12242:12295   */\n      tag_331\n        /* \"#utility.yul\":12260:12294   */\n      tag_332\n        /* \"#utility.yul\":12269:12293   */\n      tag_333\n        /* \"#utility.yul\":12287:12292   */\n      dup5\n        /* \"#utility.yul\":12269:12293   */\n      tag_129\n      jump\t// in\n    tag_333:\n        /* \"#utility.yul\":12260:12294   */\n      tag_173\n      jump\t// in\n    tag_332:\n        /* \"#utility.yul\":12242:12295   */\n      tag_129\n      jump\t// in\n    tag_331:\n        /* \"#utility.yul\":12229:12295   */\n      swap1\n      pop\n        /* \"#utility.yul\":12159:12301   */\n      swap2\n      swap1\n      pop\n      jump\t// out\n        /* \"#utility.yul\":12307:12382   */\n    tag_175:\n        /* \"#utility.yul\":12350:12353   */\n      0x00\n        /* \"#utility.yul\":12371:12376   */\n      dup2\n        /* \"#utility.yul\":12364:12376   */\n      swap1\n      pop\n        /* \"#utility.yul\":12307:12382   */\n      swap2\n      swap1\n      pop\n      jump\t// out\n        /* \"#utility.yul\":12388:12657   */\n    tag_176:\n        /* \"#utility.yul\":12498:12537   */\n      tag_336\n        /* \"#utility.yul\":12529:12536   */\n      dup4\n        /* \"#utility.yul\":12498:12537   */\n      tag_174\n      jump\t// in\n    tag_336:\n        /* \"#utility.yul\":12559:12650   */\n      tag_337\n        /* \"#utility.yul\":12608:12649   */\n      tag_338\n        /* \"#utility.yul\":12632:12648   */\n      dup3\n        /* \"#utility.yul\":12608:12649   */\n      tag_175\n      jump\t// in\n    tag_338:\n        /* \"#utility.yul\":12600:12606   */\n      dup5\n        /* \"#utility.yul\":12593:12597   */\n      dup5\n        /* \"#utility.yul\":12587:12598   */\n      sload\n        /* \"#utility.yul\":12559:12650   */\n      tag_172\n      jump\t// in\n    tag_337:\n        /* \"#utility.yul\":12553:12557   */\n      dup3\n        /* \"#utility.yul\":12546:12651   */\n      sstore\n        /* \"#utility.yul\":12464:12657   */\n      pop\n        /* \"#utility.yul\":12388:12657   */\n      pop\n      pop\n      pop\n      jump\t// out\n        /* \"#utility.yul\":12663:12736   */\n    tag_177:\n        /* \"#utility.yul\":12708:12711   */\n      0x00\n        /* \"#utility.yul\":12729:12730   */\n      0x00\n        /* \"#utility.yul\":12722:12730   */\n      swap1\n      pop\n        /* \"#utility.yul\":12663:12736   */\n      swap1\n      jump\t// out\n        /* \"#utility.yul\":12742:12931   */\n    tag_178:\n        /* \"#utility.yul\":12819:12851   */\n      tag_341\n      tag_177\n      jump\t// in\n    tag_341:\n        /* \"#utility.yul\":12860:12925   */\n      tag_342\n        /* \"#utility.yul\":12918:12924   */\n      dup2\n        /* \"#utility.yul\":12910:12916   */\n      dup5\n        /* \"#utility.yul\":12904:12908   */\n      dup5\n        /* \"#utility.yul\":12860:12925   */\n      tag_176\n      jump\t// in\n    tag_342:\n        /* \"#utility.yul\":12795:12931   */\n      pop\n        /* \"#utility.yul\":12742:12931   */\n      pop\n      pop\n      jump\t// out\n        /* \"#utility.yul\":12937:13123   */\n    tag_179:\n        /* \"#utility.yul\":12997:13117   */\n    tag_344:\n        /* \"#utility.yul\":13014:13017   */\n      dup2\n        /* \"#utility.yul\":13007:13012   */\n      dup2\n        /* \"#utility.yul\":13004:13018   */\n      lt\n        /* \"#utility.yul\":12997:13117   */\n      iszero\n      tag_346\n      jumpi\n        /* \"#utility.yul\":13068:13107   */\n      tag_347\n        /* \"#utility.yul\":13105:13106   */\n      0x00\n        /* \"#utility.yul\":13098:13103   */\n      dup3\n        /* \"#utility.yul\":13068:13107   */\n      tag_178\n      jump\t// in\n    tag_347:\n        /* \"#utility.yul\":13041:13042   */\n      0x01\n        /* \"#utility.yul\":13034:13039   */\n      dup2\n        /* \"#utility.yul\":13030:13043   */\n      add\n        /* \"#utility.yul\":13021:13043   */\n      swap1\n      pop\n        /* \"#utility.yul\":12997:13117   */\n      jump(tag_344)\n    tag_346:\n        /* \"#utility.yul\":12937:13123   */\n      pop\n      pop\n      jump\t// out\n        /* \"#utility.yul\":13129:13670   */\n    tag_180:\n        /* \"#utility.yul\":13229:13231   */\n      0x1f\n        /* \"#utility.yul\":13224:13227   */\n      dup3\n        /* \"#utility.yul\":13221:13232   */\n      gt\n        /* \"#utility.yul\":13218:13663   */\n      iszero\n      tag_349\n      jumpi\n        /* \"#utility.yul\":13263:13300   */\n      tag_350\n        /* \"#utility.yul\":13294:13299   */\n      dup2\n        /* \"#utility.yul\":13263:13300   */\n      tag_169\n      jump\t// in\n    tag_350:\n        /* \"#utility.yul\":13346:13375   */\n      tag_351\n        /* \"#utility.yul\":13364:13374   */\n      dup5\n        /* \"#utility.yul\":13346:13375   */\n      tag_170\n      jump\t// in\n    tag_351:\n        /* \"#utility.yul\":13336:13344   */\n      dup2\n        /* \"#utility.yul\":13332:13376   */\n      add\n        /* \"#utility.yul\":13529:13531   */\n      0x20\n        /* \"#utility.yul\":13517:13527   */\n      dup6\n        /* \"#utility.yul\":13514:13532   */\n      lt\n        /* \"#utility.yul\":13511:13560   */\n      iszero\n      tag_352\n      jumpi\n        /* \"#utility.yul\":13550:13558   */\n      dup2\n        /* \"#utility.yul\":13535:13558   */\n      swap1\n      pop\n        /* \"#utility.yul\":13511:13560   */\n    tag_352:\n        /* \"#utility.yul\":13573:13653   */\n      tag_353\n        /* \"#utility.yul\":13629:13651   */\n      tag_354\n        /* \"#utility.yul\":13647:13650   */\n      dup6\n        /* \"#utility.yul\":13629:13651   */\n      tag_170\n      jump\t// in\n    tag_354:\n        /* \"#utility.yul\":13619:13627   */\n      dup4\n        /* \"#utility.yul\":13615:13652   */\n      add\n        /* \"#utility.yul\":13602:13613   */\n      dup3\n        /* \"#utility.yul\":13573:13653   */\n      tag_179\n      jump\t// in\n    tag_353:\n        /* \"#utility.yul\":13233:13663   */\n      pop\n      pop\n        /* \"#utility.yul\":13218:13663   */\n    tag_349:\n        /* \"#utility.yul\":13129:13670   */\n      pop\n      pop\n      pop\n      jump\t// out\n        /* \"#utility.yul\":13676:13793   */\n    tag_181:\n        /* \"#utility.yul\":13730:13738   */\n      0x00\n        /* \"#utility.yul\":13780:13785   */\n      dup3\n        /* \"#utility.yul\":13774:13778   */\n      dup3\n        /* \"#utility.yul\":13770:13786   */\n      shr\n        /* \"#utility.yul\":13749:13786   */\n      swap1\n      pop\n        /* \"#utility.yul\":13676:13793   */\n      swap3\n      swap2\n      pop\n      pop\n      jump\t// out\n        /* \"#utility.yul\":13799:13968   */\n    tag_182:\n        /* \"#utility.yul\":13843:13849   */\n      0x00\n        /* \"#utility.yul\":13876:13927   */\n      tag_357\n        /* \"#utility.yul\":13924:13925   */\n      0x00\n        /* \"#utility.yul\":13920:13926   */\n      not\n        /* \"#utility.yul\":13912:13917   */\n      dup5\n        /* \"#utility.yul\":13909:13910   */\n      0x08\n        /* \"#utility.yul\":13905:13918   */\n      mul\n        /* \"#utility.yul\":13876:13927   */\n      tag_181\n      jump\t// in\n    tag_357:\n        /* \"#utility.yul\":13872:13928   */\n      not\n        /* \"#utility.yul\":13957:13961   */\n      dup1\n        /* \"#utility.yul\":13951:13955   */\n      dup4\n        /* \"#utility.yul\":13947:13962   */\n      and\n        /* \"#utility.yul\":13937:13962   */\n      swap2\n      pop\n        /* \"#utility.yul\":13850:13968   */\n      pop\n        /* \"#utility.yul\":13799:13968   */\n      swap3\n      swap2\n      pop\n      pop\n      jump\t// out\n        /* \"#utility.yul\":13973:14268   */\n    tag_183:\n        /* \"#utility.yul\":14049:14053   */\n      0x00\n        /* \"#utility.yul\":14195:14224   */\n      tag_359\n        /* \"#utility.yul\":14220:14223   */\n      dup4\n        /* \"#utility.yul\":14214:14218   */\n      dup4\n        /* \"#utility.yul\":14195:14224   */\n      tag_182\n      jump\t// in\n    tag_359:\n        /* \"#utility.yul\":14187:14224   */\n      swap2\n      pop\n        /* \"#utility.yul\":14257:14260   */\n      dup3\n        /* \"#utility.yul\":14254:14255   */\n      0x02\n        /* \"#utility.yul\":14250:14261   */\n      mul\n        /* \"#utility.yul\":14244:14248   */\n      dup3\n        /* \"#utility.yul\":14241:14262   */\n      or\n        /* \"#utility.yul\":14233:14262   */\n      swap1\n      pop\n        /* \"#utility.yul\":13973:14268   */\n      swap3\n      swap2\n      pop\n      pop\n      jump\t// out\n        /* \"#utility.yul\":14273:15663   */\n    tag_109:\n        /* \"#utility.yul\":14388:14424   */\n      tag_361\n        /* \"#utility.yul\":14420:14423   */\n      dup3\n        /* \"#utility.yul\":14388:14424   */\n      tag_162\n      jump\t// in\n    tag_361:\n        /* \"#utility.yul\":14489:14507   */\n      0xffffffffffffffff\n        /* \"#utility.yul\":14481:14487   */\n      dup2\n        /* \"#utility.yul\":14478:14508   */\n      gt\n        /* \"#utility.yul\":14475:14531   */\n      iszero\n      tag_362\n      jumpi\n        /* \"#utility.yul\":14511:14529   */\n      tag_363\n      tag_146\n      jump\t// in\n    tag_363:\n        /* \"#utility.yul\":14475:14531   */\n    tag_362:\n        /* \"#utility.yul\":14555:14593   */\n      tag_364\n        /* \"#utility.yul\":14587:14591   */\n      dup3\n        /* \"#utility.yul\":14581:14592   */\n      sload\n        /* \"#utility.yul\":14555:14593   */\n      tag_101\n      jump\t// in\n    tag_364:\n        /* \"#utility.yul\":14640:14706   */\n      tag_365\n        /* \"#utility.yul\":14699:14705   */\n      dup3\n        /* \"#utility.yul\":14691:14697   */\n      dup3\n        /* \"#utility.yul\":14685:14689   */\n      dup6\n        /* \"#utility.yul\":14640:14706   */\n      tag_180\n      jump\t// in\n    tag_365:\n        /* \"#utility.yul\":14733:14734   */\n      0x00\n        /* \"#utility.yul\":14757:14761   */\n      0x20\n        /* \"#utility.yul\":14744:14761   */\n      swap1\n      pop\n        /* \"#utility.yul\":14789:14791   */\n      0x1f\n        /* \"#utility.yul\":14781:14787   */\n      dup4\n        /* \"#utility.yul\":14778:14792   */\n      gt\n        /* \"#utility.yul\":14806:14807   */\n      0x01\n        /* \"#utility.yul\":14801:15418   */\n      dup2\n      eq\n      tag_367\n      jumpi\n        /* \"#utility.yul\":15462:15463   */\n      0x00\n        /* \"#utility.yul\":15479:15485   */\n      dup5\n        /* \"#utility.yul\":15476:15553   */\n      iszero\n      tag_368\n      jumpi\n        /* \"#utility.yul\":15528:15537   */\n      dup3\n        /* \"#utility.yul\":15523:15526   */\n      dup8\n        /* \"#utility.yul\":15519:15538   */\n      add\n        /* \"#utility.yul\":15513:15539   */\n      mload\n        /* \"#utility.yul\":15504:15539   */\n      swap1\n      pop\n        /* \"#utility.yul\":15476:15553   */\n    tag_368:\n        /* \"#utility.yul\":15579:15646   */\n      tag_369\n        /* \"#utility.yul\":15639:15645   */\n      dup6\n        /* \"#utility.yul\":15632:15637   */\n      dup3\n        /* \"#utility.yul\":15579:15646   */\n      tag_183\n      jump\t// in\n    tag_369:\n        /* \"#utility.yul\":15573:15577   */\n      dup7\n        /* \"#utility.yul\":15566:15647   */\n      sstore\n        /* \"#utility.yul\":15435:15657   */\n      pop\n        /* \"#utility.yul\":14771:15657   */\n      jump(tag_366)\n        /* \"#utility.yul\":14801:15418   */\n    tag_367:\n        /* \"#utility.yul\":14853:14857   */\n      0x1f\n        /* \"#utility.yul\":14849:14858   */\n      not\n        /* \"#utility.yul\":14841:14847   */\n      dup5\n        /* \"#utility.yul\":14837:14859   */\n      and\n        /* \"#utility.yul\":14887:14923   */\n      tag_370\n        /* \"#utility.yul\":14918:14922   */\n      dup7\n        /* \"#utility.yul\":14887:14923   */\n      tag_169\n      jump\t// in\n    tag_370:\n        /* \"#utility.yul\":14945:14946   */\n      0x00\n        /* \"#utility.yul\":14959:15167   */\n    tag_371:\n        /* \"#utility.yul\":14973:14980   */\n      dup3\n        /* \"#utility.yul\":14970:14971   */\n      dup2\n        /* \"#utility.yul\":14967:14981   */\n      lt\n        /* \"#utility.yul\":14959:15167   */\n      iszero\n      tag_373\n      jumpi\n        /* \"#utility.yul\":15052:15061   */\n      dup5\n        /* \"#utility.yul\":15047:15050   */\n      dup10\n        /* \"#utility.yul\":15043:15062   */\n      add\n        /* \"#utility.yul\":15037:15063   */\n      mload\n        /* \"#utility.yul\":15029:15035   */\n      dup3\n        /* \"#utility.yul\":15022:15064   */\n      sstore\n        /* \"#utility.yul\":15103:15104   */\n      0x01\n        /* \"#utility.yul\":15095:15101   */\n      dup3\n        /* \"#utility.yul\":15091:15105   */\n      add\n        /* \"#utility.yul\":15081:15105   */\n      swap2\n      pop\n        /* \"#utility.yul\":15150:15152   */\n      0x20\n        /* \"#utility.yul\":15139:15148   */\n      dup6\n        /* \"#utility.yul\":15135:15153   */\n      add\n        /* \"#utility.yul\":15122:15153   */\n      swap5\n      pop\n        /* \"#utility.yul\":14996:15000   */\n      0x20\n        /* \"#utility.yul\":14993:14994   */\n      dup2\n        /* \"#utility.yul\":14989:15001   */\n      add\n        /* \"#utility.yul\":14984:15001   */\n      swap1\n      pop\n        /* \"#utility.yul\":14959:15167   */\n      jump(tag_371)\n    tag_373:\n        /* \"#utility.yul\":15195:15201   */\n      dup7\n        /* \"#utility.yul\":15186:15193   */\n      dup4\n        /* \"#utility.yul\":15183:15202   */\n      lt\n        /* \"#utility.yul\":15180:15359   */\n      iszero\n      tag_374\n      jumpi\n        /* \"#utility.yul\":15253:15262   */\n      dup5\n        /* \"#utility.yul\":15248:15251   */\n      dup10\n        /* \"#utility.yul\":15244:15263   */\n      add\n        /* \"#utility.yul\":15238:15264   */\n      mload\n        /* \"#utility.yul\":15296:15344   */\n      tag_375\n        /* \"#utility.yul\":15338:15342   */\n      0x1f\n        /* \"#utility.yul\":15330:15336   */\n      dup10\n        /* \"#utility.yul\":15326:15343   */\n      and\n        /* \"#utility.yul\":15315:15324   */\n      dup3\n        /* \"#utility.yul\":15296:15344   */\n      tag_182\n      jump\t// in\n    tag_375:\n        /* \"#utility.yul\":15288:15294   */\n      dup4\n        /* \"#utility.yul\":15281:15345   */\n      sstore\n        /* \"#utility.yul\":15203:15359   */\n      pop\n        /* \"#utility.yul\":15180:15359   */\n    tag_374:\n        /* \"#utility.yul\":15405:15406   */\n      0x01\n        /* \"#utility.yul\":15401:15402   */\n      0x02\n        /* \"#utility.yul\":15393:15399   */\n      dup9\n        /* \"#utility.yul\":15389:15403   */\n      mul\n        /* \"#utility.yul\":15385:15407   */\n      add\n        /* \"#utility.yul\":15379:15383   */\n      dup9\n        /* \"#utility.yul\":15372:15408   */\n      sstore\n        /* \"#utility.yul\":14808:15418   */\n      pop\n      pop\n      pop\n        /* \"#utility.yul\":14771:15657   */\n    tag_366:\n      pop\n        /* \"#utility.yul\":14363:15663   */\n      pop\n      pop\n      pop\n        /* \"#utility.yul\":14273:15663   */\n      pop\n      pop\n      jump\t// out\n        /* \"#utility.yul\":15669:15817   */\n    tag_184:\n        /* \"#utility.yul\":15771:15782   */\n      0x00\n        /* \"#utility.yul\":15808:15811   */\n      dup2\n        /* \"#utility.yul\":15793:15811   */\n      swap1\n      pop\n        /* \"#utility.yul\":15669:15817   */\n      swap3\n      swap2\n      pop\n      pop\n      jump\t// out\n        /* \"#utility.yul\":15823:16213   */\n    tag_185:\n        /* \"#utility.yul\":15929:15932   */\n      0x00\n        /* \"#utility.yul\":15957:15996   */\n      tag_378\n        /* \"#utility.yul\":15990:15995   */\n      dup3\n        /* \"#utility.yul\":15957:15996   */\n      tag_134\n      jump\t// in\n    tag_378:\n        /* \"#utility.yul\":16012:16101   */\n      tag_379\n        /* \"#utility.yul\":16094:16100   */\n      dup2\n        /* \"#utility.yul\":16089:16092   */\n      dup6\n        /* \"#utility.yul\":16012:16101   */\n      tag_184\n      jump\t// in\n    tag_379:\n        /* \"#utility.yul\":16005:16101   */\n      swap4\n      pop\n        /* \"#utility.yul\":16110:16175   */\n      tag_380\n        /* \"#utility.yul\":16168:16174   */\n      dup2\n        /* \"#utility.yul\":16163:16166   */\n      dup6\n        /* \"#utility.yul\":16156:16160   */\n      0x20\n        /* \"#utility.yul\":16149:16154   */\n      dup7\n        /* \"#utility.yul\":16145:16161   */\n      add\n        /* \"#utility.yul\":16110:16175   */\n      tag_136\n      jump\t// in\n    tag_380:\n        /* \"#utility.yul\":16200:16206   */\n      dup1\n        /* \"#utility.yul\":16195:16198   */\n      dup5\n        /* \"#utility.yul\":16191:16207   */\n      add\n        /* \"#utility.yul\":16184:16207   */\n      swap2\n      pop\n        /* \"#utility.yul\":15933:16213   */\n      pop\n        /* \"#utility.yul\":15823:16213   */\n      swap3\n      swap2\n      pop\n      pop\n      jump\t// out\n        /* \"#utility.yul\":16219:16494   */\n    tag_112:\n        /* \"#utility.yul\":16351:16354   */\n      0x00\n        /* \"#utility.yul\":16373:16468   */\n      tag_382\n        /* \"#utility.yul\":16464:16467   */\n      dup3\n        /* \"#utility.yul\":16455:16461   */\n      dup5\n        /* \"#utility.yul\":16373:16468   */\n      tag_185\n      jump\t// in\n    tag_382:\n        /* \"#utility.yul\":16366:16468   */\n      swap2\n      pop\n        /* \"#utility.yul\":16485:16488   */\n      dup2\n        /* \"#utility.yul\":16478:16488   */\n      swap1\n      pop\n        /* \"#utility.yul\":16219:16494   */\n      swap3\n      swap2\n      pop\n      pop\n      jump\t// out\n        /* \"#utility.yul\":16500:16641   */\n    tag_186:\n        /* \"#utility.yul\":16549:16553   */\n      0x00\n        /* \"#utility.yul\":16572:16575   */\n      dup2\n        /* \"#utility.yul\":16564:16575   */\n      swap1\n      pop\n        /* \"#utility.yul\":16595:16598   */\n      dup2\n        /* \"#utility.yul\":16592:16593   */\n      0x00\n        /* \"#utility.yul\":16585:16599   */\n      mstore\n        /* \"#utility.yul\":16629:16633   */\n      0x20\n        /* \"#utility.yul\":16626:16627   */\n      0x00\n        /* \"#utility.yul\":16616:16634   */\n      keccak256\n        /* \"#utility.yul\":16608:16634   */\n      swap1\n      pop\n        /* \"#utility.yul\":16500:16641   */\n      swap2\n      swap1\n      pop\n      jump\t// out\n        /* \"#utility.yul\":16671:17545   */\n    tag_187:\n        /* \"#utility.yul\":16774:16777   */\n      0x00\n        /* \"#utility.yul\":16811:16816   */\n      dup2\n        /* \"#utility.yul\":16805:16817   */\n      sload\n        /* \"#utility.yul\":16840:16876   */\n      tag_385\n        /* \"#utility.yul\":16866:16875   */\n      dup2\n        /* \"#utility.yul\":16840:16876   */\n      tag_101\n      jump\t// in\n    tag_385:\n        /* \"#utility.yul\":16892:16981   */\n      tag_386\n        /* \"#utility.yul\":16974:16980   */\n      dup2\n        /* \"#utility.yul\":16969:16972   */\n      dup7\n        /* \"#utility.yul\":16892:16981   */\n      tag_184\n      jump\t// in\n    tag_386:\n        /* \"#utility.yul\":16885:16981   */\n      swap5\n      pop\n        /* \"#utility.yul\":17012:17013   */\n      0x01\n        /* \"#utility.yul\":17001:17010   */\n      dup3\n        /* \"#utility.yul\":16997:17014   */\n      and\n        /* \"#utility.yul\":17028:17029   */\n      0x00\n        /* \"#utility.yul\":17023:17189   */\n      dup2\n      eq\n      tag_388\n      jumpi\n        /* \"#utility.yul\":17203:17204   */\n      0x01\n        /* \"#utility.yul\":17198:17539   */\n      dup2\n      eq\n      tag_389\n      jumpi\n        /* \"#utility.yul\":16990:17539   */\n      jump(tag_387)\n        /* \"#utility.yul\":17023:17189   */\n    tag_388:\n        /* \"#utility.yul\":17107:17111   */\n      0xff\n        /* \"#utility.yul\":17103:17112   */\n      not\n        /* \"#utility.yul\":17092:17101   */\n      dup4\n        /* \"#utility.yul\":17088:17113   */\n      and\n        /* \"#utility.yul\":17083:17086   */\n      dup7\n        /* \"#utility.yul\":17076:17114   */\n      mstore\n        /* \"#utility.yul\":17169:17175   */\n      dup2\n        /* \"#utility.yul\":17162:17176   */\n      iszero\n        /* \"#utility.yul\":17155:17177   */\n      iszero\n        /* \"#utility.yul\":17147:17153   */\n      dup3\n        /* \"#utility.yul\":17143:17178   */\n      mul\n        /* \"#utility.yul\":17138:17141   */\n      dup7\n        /* \"#utility.yul\":17134:17179   */\n      add\n        /* \"#utility.yul\":17127:17179   */\n      swap4\n      pop\n        /* \"#utility.yul\":17023:17189   */\n      jump(tag_387)\n        /* \"#utility.yul\":17198:17539   */\n    tag_389:\n        /* \"#utility.yul\":17265:17303   */\n      tag_390\n        /* \"#utility.yul\":17297:17302   */\n      dup6\n        /* \"#utility.yul\":17265:17303   */\n      tag_186\n      jump\t// in\n    tag_390:\n        /* \"#utility.yul\":17325:17326   */\n      0x00\n        /* \"#utility.yul\":17339:17493   */\n    tag_391:\n        /* \"#utility.yul\":17353:17359   */\n      dup4\n        /* \"#utility.yul\":17350:17351   */\n      dup2\n        /* \"#utility.yul\":17347:17360   */\n      lt\n        /* \"#utility.yul\":17339:17493   */\n      iszero\n      tag_393\n      jumpi\n        /* \"#utility.yul\":17427:17434   */\n      dup2\n        /* \"#utility.yul\":17421:17435   */\n      sload\n        /* \"#utility.yul\":17417:17418   */\n      dup2\n        /* \"#utility.yul\":17412:17415   */\n      dup10\n        /* \"#utility.yul\":17408:17419   */\n      add\n        /* \"#utility.yul\":17401:17436   */\n      mstore\n        /* \"#utility.yul\":17477:17478   */\n      0x01\n        /* \"#utility.yul\":17468:17475   */\n      dup3\n        /* \"#utility.yul\":17464:17479   */\n      add\n        /* \"#utility.yul\":17453:17479   */\n      swap2\n      pop\n        /* \"#utility.yul\":17375:17379   */\n      0x20\n        /* \"#utility.yul\":17372:17373   */\n      dup2\n        /* \"#utility.yul\":17368:17380   */\n      add\n        /* \"#utility.yul\":17363:17380   */\n      swap1\n      pop\n        /* \"#utility.yul\":17339:17493   */\n      jump(tag_391)\n    tag_393:\n        /* \"#utility.yul\":17522:17528   */\n      dup4\n        /* \"#utility.yul\":17517:17520   */\n      dup9\n        /* \"#utility.yul\":17513:17529   */\n      add\n        /* \"#utility.yul\":17506:17529   */\n      swap6\n      pop\n        /* \"#utility.yul\":17205:17539   */\n      pop\n      pop\n        /* \"#utility.yul\":16990:17539   */\n    tag_387:\n      pop\n        /* \"#utility.yul\":16778:17545   */\n      pop\n      pop\n        /* \"#utility.yul\":16671:17545   */\n      swap3\n      swap2\n      pop\n      pop\n      jump\t// out\n        /* \"#utility.yul\":17551:17820   */\n    tag_114:\n        /* \"#utility.yul\":17680:17683   */\n      0x00\n        /* \"#utility.yul\":17702:17794   */\n      tag_395\n        /* \"#utility.yul\":17790:17793   */\n      dup3\n        /* \"#utility.yul\":17781:17787   */\n      dup5\n        /* \"#utility.yul\":17702:17794   */\n      tag_187\n      jump\t// in\n    tag_395:\n        /* \"#utility.yul\":17695:17794   */\n      swap2\n      pop\n        /* \"#utility.yul\":17811:17814   */\n      dup2\n        /* \"#utility.yul\":17804:17814   */\n      swap1\n      pop\n        /* \"#utility.yul\":17551:17820   */\n      swap3\n      swap2\n      pop\n      pop\n      jump\t// out\n        /* \"#utility.yul\":17826:18369   */\n    tag_188:\n        /* \"#utility.yul\":17927:17929   */\n      0x1f\n        /* \"#utility.yul\":17922:17925   */\n      dup3\n        /* \"#utility.yul\":17919:17930   */\n      gt\n        /* \"#utility.yul\":17916:18362   */\n      iszero\n      tag_397\n      jumpi\n        /* \"#utility.yul\":17961:17999   */\n      tag_398\n        /* \"#utility.yul\":17993:17998   */\n      dup2\n        /* \"#utility.yul\":17961:17999   */\n      tag_186\n      jump\t// in\n    tag_398:\n        /* \"#utility.yul\":18045:18074   */\n      tag_399\n        /* \"#utility.yul\":18063:18073   */\n      dup5\n        /* \"#utility.yul\":18045:18074   */\n      tag_170\n      jump\t// in\n    tag_399:\n        /* \"#utility.yul\":18035:18043   */\n      dup2\n        /* \"#utility.yul\":18031:18075   */\n      add\n        /* \"#utility.yul\":18228:18230   */\n      0x20\n        /* \"#utility.yul\":18216:18226   */\n      dup6\n        /* \"#utility.yul\":18213:18231   */\n      lt\n        /* \"#utility.yul\":18210:18259   */\n      iszero\n      tag_400\n      jumpi\n        /* \"#utility.yul\":18249:18257   */\n      dup2\n        /* \"#utility.yul\":18234:18257   */\n      swap1\n      pop\n        /* \"#utility.yul\":18210:18259   */\n    tag_400:\n        /* \"#utility.yul\":18272:18352   */\n      tag_401\n        /* \"#utility.yul\":18328:18350   */\n      tag_402\n        /* \"#utility.yul\":18346:18349   */\n      dup6\n        /* \"#utility.yul\":18328:18350   */\n      tag_170\n      jump\t// in\n    tag_402:\n        /* \"#utility.yul\":18318:18326   */\n      dup4\n        /* \"#utility.yul\":18314:18351   */\n      add\n        /* \"#utility.yul\":18301:18312   */\n      dup3\n        /* \"#utility.yul\":18272:18352   */\n      tag_179\n      jump\t// in\n    tag_401:\n        /* \"#utility.yul\":17931:18362   */\n      pop\n      pop\n        /* \"#utility.yul\":17916:18362   */\n    tag_397:\n        /* \"#utility.yul\":17826:18369   */\n      pop\n      pop\n      pop\n      jump\t// out\n        /* \"#utility.yul\":18375:19770   */\n    tag_119:\n        /* \"#utility.yul\":18492:18529   */\n      tag_404\n        /* \"#utility.yul\":18525:18528   */\n      dup3\n        /* \"#utility.yul\":18492:18529   */\n      tag_134\n      jump\t// in\n    tag_404:\n        /* \"#utility.yul\":18594:18612   */\n      0xffffffffffffffff\n        /* \"#utility.yul\":18586:18592   */\n      dup2\n        /* \"#utility.yul\":18583:18613   */\n      gt\n        /* \"#utility.yul\":18580:18636   */\n      iszero\n      tag_405\n      jumpi\n        /* \"#utility.yul\":18616:18634   */\n      tag_406\n      tag_146\n      jump\t// in\n    tag_406:\n        /* \"#utility.yul\":18580:18636   */\n    tag_405:\n        /* \"#utility.yul\":18660:18698   */\n      tag_407\n        /* \"#utility.yul\":18692:18696   */\n      dup3\n        /* \"#utility.yul\":18686:18697   */\n      sload\n        /* \"#utility.yul\":18660:18698   */\n      tag_101\n      jump\t// in\n    tag_407:\n        /* \"#utility.yul\":18745:18812   */\n      tag_408\n        /* \"#utility.yul\":18805:18811   */\n      dup3\n        /* \"#utility.yul\":18797:18803   */\n      dup3\n        /* \"#utility.yul\":18791:18795   */\n      dup6\n        /* \"#utility.yul\":18745:18812   */\n      tag_188\n      jump\t// in\n    tag_408:\n        /* \"#utility.yul\":18839:18840   */\n      0x00\n        /* \"#utility.yul\":18863:18867   */\n      0x20\n        /* \"#utility.yul\":18850:18867   */\n      swap1\n      pop\n        /* \"#utility.yul\":18895:18897   */\n      0x1f\n        /* \"#utility.yul\":18887:18893   */\n      dup4\n        /* \"#utility.yul\":18884:18898   */\n      gt\n        /* \"#utility.yul\":18912:18913   */\n      0x01\n        /* \"#utility.yul\":18907:19525   */\n      dup2\n      eq\n      tag_410\n      jumpi\n        /* \"#utility.yul\":19569:19570   */\n      0x00\n        /* \"#utility.yul\":19586:19592   */\n      dup5\n        /* \"#utility.yul\":19583:19660   */\n      iszero\n      tag_411\n      jumpi\n        /* \"#utility.yul\":19635:19644   */\n      dup3\n        /* \"#utility.yul\":19630:19633   */\n      dup8\n        /* \"#utility.yul\":19626:19645   */\n      add\n        /* \"#utility.yul\":19620:19646   */\n      mload\n        /* \"#utility.yul\":19611:19646   */\n      swap1\n      pop\n        /* \"#utility.yul\":19583:19660   */\n    tag_411:\n        /* \"#utility.yul\":19686:19753   */\n      tag_412\n        /* \"#utility.yul\":19746:19752   */\n      dup6\n        /* \"#utility.yul\":19739:19744   */\n      dup3\n        /* \"#utility.yul\":19686:19753   */\n      tag_183\n      jump\t// in\n    tag_412:\n        /* \"#utility.yul\":19680:19684   */\n      dup7\n        /* \"#utility.yul\":19673:19754   */\n      sstore\n        /* \"#utility.yul\":19542:19764   */\n      pop\n        /* \"#utility.yul\":18877:19764   */\n      jump(tag_409)\n        /* \"#utility.yul\":18907:19525   */\n    tag_410:\n        /* \"#utility.yul\":18959:18963   */\n      0x1f\n        /* \"#utility.yul\":18955:18964   */\n      not\n        /* \"#utility.yul\":18947:18953   */\n      dup5\n        /* \"#utility.yul\":18943:18965   */\n      and\n        /* \"#utility.yul\":18993:19030   */\n      tag_413\n        /* \"#utility.yul\":19025:19029   */\n      dup7\n        /* \"#utility.yul\":18993:19030   */\n      tag_186\n      jump\t// in\n    tag_413:\n        /* \"#utility.yul\":19052:19053   */\n      0x00\n        /* \"#utility.yul\":19066:19274   */\n    tag_414:\n        /* \"#utility.yul\":19080:19087   */\n      dup3\n        /* \"#utility.yul\":19077:19078   */\n      dup2\n        /* \"#utility.yul\":19074:19088   */\n      lt\n        /* \"#utility.yul\":19066:19274   */\n      iszero\n      tag_416\n      jumpi\n        /* \"#utility.yul\":19159:19168   */\n      dup5\n        /* \"#utility.yul\":19154:19157   */\n      dup10\n        /* \"#utility.yul\":19150:19169   */\n      add\n        /* \"#utility.yul\":19144:19170   */\n      mload\n        /* \"#utility.yul\":19136:19142   */\n      dup3\n        /* \"#utility.yul\":19129:19171   */\n      sstore\n        /* \"#utility.yul\":19210:19211   */\n      0x01\n        /* \"#utility.yul\":19202:19208   */\n      dup3\n        /* \"#utility.yul\":19198:19212   */\n      add\n        /* \"#utility.yul\":19188:19212   */\n      swap2\n      pop\n        /* \"#utility.yul\":19257:19259   */\n      0x20\n        /* \"#utility.yul\":19246:19255   */\n      dup6\n        /* \"#utility.yul\":19242:19260   */\n      add\n        /* \"#utility.yul\":19229:19260   */\n      swap5\n      pop\n        /* \"#utility.yul\":19103:19107   */\n      0x20\n        /* \"#utility.yul\":19100:19101   */\n      dup2\n        /* \"#utility.yul\":19096:19108   */\n      add\n        /* \"#utility.yul\":19091:19108   */\n      swap1\n      pop\n        /* \"#utility.yul\":19066:19274   */\n      jump(tag_414)\n    tag_416:\n        /* \"#utility.yul\":19302:19308   */\n      dup7\n        /* \"#utility.yul\":19293:19300   */\n      dup4\n        /* \"#utility.yul\":19290:19309   */\n      lt\n        /* \"#utility.yul\":19287:19466   */\n      iszero\n      tag_417\n      jumpi\n        /* \"#utility.yul\":19360:19369   */\n      dup5\n        /* \"#utility.yul\":19355:19358   */\n      dup10\n        /* \"#utility.yul\":19351:19370   */\n      add\n        /* \"#utility.yul\":19345:19371   */\n      mload\n        /* \"#utility.yul\":19403:19451   */\n      tag_418\n        /* \"#utility.yul\":19445:19449   */\n      0x1f\n        /* \"#utility.yul\":19437:19443   */\n      dup10\n        /* \"#utility.yul\":19433:19450   */\n      and\n        /* \"#utility.yul\":19422:19431   */\n      dup3\n        /* \"#utility.yul\":19403:19451   */\n      tag_182\n      jump\t// in\n    tag_418:\n        /* \"#utility.yul\":19395:19401   */\n      dup4\n        /* \"#utility.yul\":19388:19452   */\n      sstore\n        /* \"#utility.yul\":19310:19466   */\n      pop\n        /* \"#utility.yul\":19287:19466   */\n    tag_417:\n        /* \"#utility.yul\":19512:19513   */\n      0x01\n        /* \"#utility.yul\":19508:19509   */\n      0x02\n        /* \"#utility.yul\":19500:19506   */\n      dup9\n        /* \"#utility.yul\":19496:19510   */\n      mul\n        /* \"#utility.yul\":19492:19514   */\n      add\n        /* \"#utility.yul\":19486:19490   */\n      dup9\n        /* \"#utility.yul\":19479:19515   */\n      sstore\n        /* \"#utility.yul\":18914:19525   */\n      pop\n      pop\n      pop\n        /* \"#utility.yul\":18877:19764   */\n    tag_409:\n      pop\n        /* \"#utility.yul\":18467:19770   */\n      pop\n      pop\n      pop\n        /* \"#utility.yul\":18375:19770   */\n      pop\n      pop\n      jump\t// out\n\n    auxdata: 0xa26469706673582212207a9c6fee2b73e24deaa70c4dc2139857313b640c147d111151658eba1d6ae45764736f6c634300081e0033\n}\n",
				"bytecode": {
					"linkReferences": {},
					"object": "608060405260fa60025f6101000a81548160ff021916908360ff1602179055506040518060400160405280600b81526020017f48656c6c6f20576f726c640000000000000000000000000000000000000000008152506003908161006391906102f7565b506040518060400160405280600b81526020017f48656c6c6f20576f726c64000000000000000000000000000000000000000000815250600490816100a8919061041e565b503480156100b4575f5ffd5b506104ed565b5f81519050919050565b7f4e487b71000000000000000000000000000000000000000000000000000000005f52604160045260245ffd5b7f4e487b71000000000000000000000000000000000000000000000000000000005f52602260045260245ffd5b5f600282049050600182168061013557607f821691505b602082108103610148576101476100f1565b5b50919050565b5f819050815f5260205f209050919050565b5f6020601f8301049050919050565b5f82821b905092915050565b5f600883026101aa7fffffffffffffffffffffffffffffffffffffffffffffffffffffffffffffffff8261016f565b6101b4868361016f565b95508019841693508086168417925050509392505050565b5f819050919050565b5f819050919050565b5f6101f86101f36101ee846101cc565b6101d5565b6101cc565b9050919050565b5f819050919050565b610211836101de565b61022561021d826101ff565b84845461017b565b825550505050565b5f5f905090565b61023c61022d565b610247818484610208565b505050565b5b8181101561026a5761025f5f82610234565b60018101905061024d565b5050565b601f8211156102af576102808161014e565b61028984610160565b81016020851015610298578190505b6102ac6102a485610160565b83018261024c565b50505b505050565b5f82821c905092915050565b5f6102cf5f19846008026102b4565b1980831691505092915050565b5f6102e783836102c0565b9150826002028217905092915050565b610300826100ba565b67ffffffffffffffff811115610319576103186100c4565b5b610323825461011e565b61032e82828561026e565b5f60209050601f83116001811461035f575f841561034d578287015190505b61035785826102dc565b8655506103be565b601f19841661036d8661014e565b5f5b828110156103945784890151825560018201915060208501945060208101905061036f565b868310156103b157848901516103ad601f8916826102c0565b8355505b6001600288020188555050505b505050505050565b5f819050815f5260205f209050919050565b601f821115610419576103ea816103c6565b6103f384610160565b81016020851015610402578190505b61041661040e85610160565b83018261024c565b50505b505050565b610427826100ba565b67ffffffffffffffff8111156104405761043f6100c4565b5b61044a825461011e565b6104558282856103d8565b5f60209050601f831160018114610486575f8415610474578287015190505b61047e85826102dc565b8655506104e5565b601f198416610494866103c6565b5f5b828110156104bb57848901518255600182019150602085019450602081019050610496565b868310156104d857848901516104d4601f8916826102c0565b8355505b6001600288020188555050505b505050505050565b61121a806104fa5f395ff3fe608060405234801561000f575f5ffd5b506004361061012a575f3560e01c806375eb2ad1116100ab578063e2a4b2af1161006f578063e2a4b2af146102e4578063e30081a014610302578063e492fd841461031e578063e5f199b51461033a578063eb1b30d9146103585761012a565b806375eb2ad1146102405780637c6688441461025e578063821805681461028e5780639b57e711146102aa578063b92ba3b8146102b45761012a565b806355241077116100f257806355241077146101b05780635a4a3313146101cc5780635ce25353146101e8578063634899ce146102185780636deecdbe146102225761012a565b806306540f7e1461012e57806318e5f16b1461014c57806326b85ee11461016a578063354b7f2f14610188578063492bfa1814610192575b5f5ffd5b610136610374565b6040516101439190610774565b60405180910390f35b61015461037a565b60405161016191906107cc565b60405180910390f35b61017261039f565b60405161017f91906107cc565b60405180910390f35b6101906103c4565b005b61019a6103fd565b6040516101a79190610855565b60405180910390f35b6101ca60048036038101906101c591906108b0565b610489565b005b6101e660048036038101906101e19190610a07565b6104b5565b005b61020260048036038101906101fd9190610aec565b6104c8565b60405161020f9190610b4d565b60405180910390f35b610220610520565b005b61022a610577565b6040516102379190610b4d565b60405180910390f35b610248610588565b6040516102559190610774565b60405180910390f35b610278600480360381019061027391906108b0565b6105c7565b6040516102859190610b4d565b60405180910390f35b6102a860048036038101906102a39190610aec565b6105e4565b005b6102b26105f7565b005b6102ce60048036038101906102c99190610b90565b610639565b6040516102db9190610b4d565b60405180910390f35b6102ec610656565b6040516102f99190610bd6565b60405180910390f35b61031c60048036038101906103179190610b90565b610668565b005b610338600480360381019061033391906108b0565b6106ab565b005b6103426106b5565b60405161034f9190610c41565b60405180910390f35b610372600480360381019061036d9190610c8b565b610741565b005b60015481565b60065f9054906101000a900473ffffffffffffffffffffffffffffffffffffffff1681565b60055f9054906101000a900473ffffffffffffffffffffffffffffffffffffffff1681565b60025f81819054906101000a900460ff16809291906103e290610ce3565b91906101000a81548160ff021916908360ff16021790555050565b6003805461040a90610d38565b80601f016020809104026020016040519081016040528092919081815260200182805461043690610d38565b80156104815780601f1061045857610100808354040283529160200191610481565b820191905f5260205f20905b81548152906001019060200180831161046457829003601f168201915b505050505081565b600160075f8381526020019081526020015f205f6101000a81548160ff02191690831515021790555050565b80600490816104c49190610f08565b5050565b5f816040516020016104da9190611011565b60405160208183030381529060405280519060200120600360405160200161050291906110b9565b60405160208183030381529060405280519060200120149050919050565b600160085f3373ffffffffffffffffffffffffffffffffffffffff1673ffffffffffffffffffffffffffffffffffffffff1681526020019081526020015f205f6101000a81548160ff021916908315150217905550565b5f5f9054906101000a900460ff1681565b5f60055f9054906101000a900473ffffffffffffffffffffffffffffffffffffffff1673ffffffffffffffffffffffffffffffffffffffff1631905090565b6007602052805f5260405f205f915054906101000a900460ff1681565b80600390816105f39190611115565b5050565b3360065f6101000a81548173ffffffffffffffffffffffffffffffffffffffff021916908373ffffffffffffffffffffffffffffffffffffffff160217905550565b6008602052805f5260405f205f915054906101000a900460ff1681565b60025f9054906101000a900460ff1681565b8060055f6101000a81548173ffffffffffffffffffffffffffffffffffffffff021916908373ffffffffffffffffffffffffffffffffffffffff16021790555050565b8060018190555050565b600480546106c290610d38565b80601f01602080910402602001604051908101604052809291908181526020018280546106ee90610d38565b80156107395780601f1061071057610100808354040283529160200191610739565b820191905f5260205f20905b81548152906001019060200180831161071c57829003601f168201915b505050505081565b805f5f6101000a81548160ff02191690831515021790555050565b5f819050919050565b61076e8161075c565b82525050565b5f6020820190506107875f830184610765565b92915050565b5f73ffffffffffffffffffffffffffffffffffffffff82169050919050565b5f6107b68261078d565b9050919050565b6107c6816107ac565b82525050565b5f6020820190506107df5f8301846107bd565b92915050565b5f81519050919050565b5f82825260208201905092915050565b8281835e5f83830152505050565b5f601f19601f8301169050919050565b5f610827826107e5565b61083181856107ef565b93506108418185602086016107ff565b61084a8161080d565b840191505092915050565b5f6020820190508181035f83015261086d818461081d565b905092915050565b5f604051905090565b5f5ffd5b5f5ffd5b61088f8161075c565b8114610899575f5ffd5b50565b5f813590506108aa81610886565b92915050565b5f602082840312156108c5576108c461087e565b5b5f6108d28482850161089c565b91505092915050565b5f5ffd5b5f5ffd5b7f4e487b71000000000000000000000000000000000000000000000000000000005f52604160045260245ffd5b6109198261080d565b810181811067ffffffffffffffff82111715610938576109376108e3565b5b80604052505050565b5f61094a610875565b90506109568282610910565b919050565b5f67ffffffffffffffff821115610975576109746108e3565b5b61097e8261080d565b9050602081019050919050565b828183375f83830152505050565b5f6109ab6109a68461095b565b610941565b9050828152602081018484840111156109c7576109c66108df565b5b6109d284828561098b565b509392505050565b5f82601f8301126109ee576109ed6108db565b5b81356109fe848260208601610999565b91505092915050565b5f60208284031215610a1c57610a1b61087e565b5b5f82013567ffffffffffffffff811115610a3957610a38610882565b5b610a45848285016109da565b91505092915050565b5f67ffffffffffffffff821115610a6857610a676108e3565b5b610a718261080d565b9050602081019050919050565b5f610a90610a8b84610a4e565b610941565b905082815260208101848484011115610aac57610aab6108df565b5b610ab784828561098b565b509392505050565b5f82601f830112610ad357610ad26108db565b5b8135610ae3848260208601610a7e565b91505092915050565b5f60208284031215610b0157610b0061087e565b5b5f82013567ffffffffffffffff811115610b1e57610b1d610882565b5b610b2a84828501610abf565b91505092915050565b5f8115159050919050565b610b4781610b33565b82525050565b5f602082019050610b605f830184610b3e565b92915050565b610b6f816107ac565b8114610b79575f5ffd5b50565b5f81359050610b8a81610b66565b92915050565b5f60208284031215610ba557610ba461087e565b5b5f610bb284828501610b7c565b91505092915050565b5f60ff82169050919050565b610bd081610bbb565b82525050565b5f602082019050610be95f830184610bc7565b92915050565b5f81519050919050565b5f82825260208201905092915050565b5f610c1382610bef565b610c1d8185610bf9565b9350610c2d8185602086016107ff565b610c368161080d565b840191505092915050565b5f6020820190508181035f830152610c598184610c09565b905092915050565b610c6a81610b33565b8114610c74575f5ffd5b50565b5f81359050610c8581610c61565b92915050565b5f60208284031215610ca057610c9f61087e565b5b5f610cad84828501610c77565b91505092915050565b7f4e487b71000000000000000000000000000000000000000000000000000000005f52601160045260245ffd5b5f610ced82610bbb565b915060ff8203610d0057610cff610cb6565b5b600182019050919050565b7f4e487b71000000000000000000000000000000000000000000000000000000005f52602260045260245ffd5b5f6002820490506001821680610d4f57607f821691505b602082108103610d6257610d61610d0b565b5b50919050565b5f819050815f5260205f209050919050565b5f6020601f8301049050919050565b5f82821b905092915050565b5f60088302610dc47fffffffffffffffffffffffffffffffffffffffffffffffffffffffffffffffff82610d89565b610dce8683610d89565b95508019841693508086168417925050509392505050565b5f819050919050565b5f610e09610e04610dff8461075c565b610de6565b61075c565b9050919050565b5f819050919050565b610e2283610def565b610e36610e2e82610e10565b848454610d95565b825550505050565b5f5f905090565b610e4d610e3e565b610e58818484610e19565b505050565b5b81811015610e7b57610e705f82610e45565b600181019050610e5e565b5050565b601f821115610ec057610e9181610d68565b610e9a84610d7a565b81016020851015610ea9578190505b610ebd610eb585610d7a565b830182610e5d565b50505b505050565b5f82821c905092915050565b5f610ee05f1984600802610ec5565b1980831691505092915050565b5f610ef88383610ed1565b9150826002028217905092915050565b610f1182610bef565b67ffffffffffffffff811115610f2a57610f296108e3565b5b610f348254610d38565b610f3f828285610e7f565b5f60209050601f831160018114610f70575f8415610f5e578287015190505b610f688582610eed565b865550610fcf565b601f198416610f7e86610d68565b5f5b82811015610fa557848901518255600182019150602085019450602081019050610f80565b86831015610fc25784890151610fbe601f891682610ed1565b8355505b6001600288020188555050505b505050505050565b5f81905092915050565b5f610feb826107e5565b610ff58185610fd7565b93506110058185602086016107ff565b80840191505092915050565b5f61101c8284610fe1565b915081905092915050565b5f819050815f5260205f209050919050565b5f815461104581610d38565b61104f8186610fd7565b9450600182165f8114611069576001811461107e576110b0565b60ff19831686528115158202860193506110b0565b61108785611027565b5f5b838110156110a857815481890152600182019150602081019050611089565b838801955050505b50505092915050565b5f6110c48284611039565b915081905092915050565b601f821115611110576110e181611027565b6110ea84610d7a565b810160208510156110f9578190505b61110d61110585610d7a565b830182610e5d565b50505b505050565b61111e826107e5565b67ffffffffffffffff811115611137576111366108e3565b5b6111418254610d38565b61114c8282856110cf565b5f60209050601f83116001811461117d575f841561116b578287015190505b6111758582610eed565b8655506111dc565b601f19841661118b86611027565b5f5b828110156111b25784890151825560018201915060208501945060208101905061118d565b868310156111cf57848901516111cb601f891682610ed1565b8355505b6001600288020188555050505b50505050505056fea26469706673582212207a9c6fee2b73e24deaa70c4dc2139857313b640c147d111151658eba1d6ae45764736f6c634300081e0033",
					"opcodes": "PUSH1 0x80 PUSH1 0x40 MSTORE PUSH1 0xFA PUSH1 0x2 PUSH0 PUSH2 0x100 EXP DUP2 SLOAD DUP2 PUSH1 0xFF MUL NOT AND SWAP1 DUP4 PUSH1 0xFF AND MUL OR SWAP1 SSTORE POP PUSH1 0x40 MLOAD DUP1 PUSH1 0x40 ADD PUSH1 0x40 MSTORE DUP1 PUSH1 0xB DUP2 MSTORE PUSH1 0x20 ADD PUSH32 0x48656C6C6F20576F726C64000000000000000000000000000000000000000000 DUP2 MSTORE POP PUSH1 0x3 SWAP1 DUP2 PUSH2 0x63 SWAP2 SWAP1 PUSH2 0x2F7 JUMP JUMPDEST POP PUSH1 0x40 MLOAD DUP1 PUSH1 0x40 ADD PUSH1 0x40 MSTORE DUP1 PUSH1 0xB DUP2 MSTORE PUSH1 0x20 ADD PUSH32 0x48656C6C6F20576F726C64000000000000000000000000000000000000000000 DUP2 MSTORE POP PUSH1 0x4 SWAP1 DUP2 PUSH2 0xA8 SWAP2 SWAP1 PUSH2 0x41E JUMP JUMPDEST POP CALLVALUE DUP1 ISZERO PUSH2 0xB4 JUMPI PUSH0 PUSH0 REVERT JUMPDEST POP PUSH2 0x4ED JUMP JUMPDEST PUSH0 DUP2 MLOAD SWAP1 POP SWAP2 SWAP1 POP JUMP JUMPDEST PUSH32 0x4E487B7100000000000000000000000000000000000000000000000000000000 PUSH0 MSTORE PUSH1 0x41 PUSH1 0x4 MSTORE PUSH1 0x24 PUSH0 REVERT JUMPDEST PUSH32 0x4E487B7100000000000000000000000000000000000000000000000000000000 PUSH0 MSTORE PUSH1 0x22 PUSH1 0x4 MSTORE PUSH1 0x24 PUSH0 REVERT JUMPDEST PUSH0 PUSH1 0x2 DUP3 DIV SWAP1 POP PUSH1 0x1 DUP3 AND DUP1 PUSH2 0x135 JUMPI PUSH1 0x7F DUP3 AND SWAP2 POP JUMPDEST PUSH1 0x20 DUP3 LT DUP2 SUB PUSH2 0x148 JUMPI PUSH2 0x147 PUSH2 0xF1 JUMP JUMPDEST JUMPDEST POP SWAP2 SWAP1 POP JUMP JUMPDEST PUSH0 DUP2 SWAP1 POP DUP2 PUSH0 MSTORE PUSH1 0x20 PUSH0 KECCAK256 SWAP1 POP SWAP2 SWAP1 POP JUMP JUMPDEST PUSH0 PUSH1 0x20 PUSH1 0x1F DUP4 ADD DIV SWAP1 POP SWAP2 SWAP1 POP JUMP JUMPDEST PUSH0 DUP3 DUP3 SHL SWAP1 POP SWAP3 SWAP2 POP POP JUMP JUMPDEST PUSH0 PUSH1 0x8 DUP4 MUL PUSH2 0x1AA PUSH32 0xFFFFFFFFFFFFFFFFFFFFFFFFFFFFFFFFFFFFFFFFFFFFFFFFFFFFFFFFFFFFFFFF DUP3 PUSH2 0x16F JUMP JUMPDEST PUSH2 0x1B4 DUP7 DUP4 PUSH2 0x16F JUMP JUMPDEST SWAP6 POP DUP1 NOT DUP5 AND SWAP4 POP DUP1 DUP7 AND DUP5 OR SWAP3 POP POP POP SWAP4 SWAP3 POP POP POP JUMP JUMPDEST PUSH0 DUP2 SWAP1 POP SWAP2 SWAP1 POP JUMP JUMPDEST PUSH0 DUP2 SWAP1 POP SWAP2 SWAP1 POP JUMP JUMPDEST PUSH0 PUSH2 0x1F8 PUSH2 0x1F3 PUSH2 0x1EE DUP5 PUSH2 0x1CC JUMP JUMPDEST PUSH2 0x1D5 JUMP JUMPDEST PUSH2 0x1CC JUMP JUMPDEST SWAP1 POP SWAP2 SWAP1 POP JUMP JUMPDEST PUSH0 DUP2 SWAP1 POP SWAP2 SWAP1 POP JUMP JUMPDEST PUSH2 0x211 DUP4 PUSH2 0x1DE JUMP JUMPDEST PUSH2 0x225 PUSH2 0x21D DUP3 PUSH2 0x1FF JUMP JUMPDEST DUP5 DUP5 SLOAD PUSH2 0x17B JUMP JUMPDEST DUP3 SSTORE POP POP POP POP JUMP JUMPDEST PUSH0 PUSH0 SWAP1 POP SWAP1 JUMP JUMPDEST PUSH2 0x23C PUSH2 0x22D JUMP JUMPDEST PUSH2 0x247 DUP2 DUP5 DUP5 PUSH2 0x208 JUMP JUMPDEST POP POP POP JUMP JUMPDEST JUMPDEST DUP2 DUP2 LT ISZERO PUSH2 0x26A JUMPI PUSH2 0x25F PUSH0 DUP3 PUSH2 0x234 JUMP JUMPDEST PUSH1 0x1 DUP2 ADD SWAP1 POP PUSH2 0x24D JUMP JUMPDEST POP POP JUMP JUMPDEST PUSH1 0x1F DUP3 GT ISZERO PUSH2 0x2AF JUMPI PUSH2 0x280 DUP2 PUSH2 0x14E JUMP JUMPDEST PUSH2 0x289 DUP5 PUSH2 0x160 JUMP JUMPDEST DUP2 ADD PUSH1 0x20 DUP6 LT ISZERO PUSH2 0x298 JUMPI DUP2 SWAP1 POP JUMPDEST PUSH2 0x2AC PUSH2 0x2A4 DUP6 PUSH2 0x160 JUMP JUMPDEST DUP4 ADD DUP3 PUSH2 0x24C JUMP JUMPDEST POP POP JUMPDEST POP POP POP JUMP JUMPDEST PUSH0 DUP3 DUP3 SHR SWAP1 POP SWAP3 SWAP2 POP POP JUMP JUMPDEST PUSH0 PUSH2 0x2CF PUSH0 NOT DUP5 PUSH1 0x8 MUL PUSH2 0x2B4 JUMP JUMPDEST NOT DUP1 DUP4 AND SWAP2 POP POP SWAP3 SWAP2 POP POP JUMP JUMPDEST PUSH0 PUSH2 0x2E7 DUP4 DUP4 PUSH2 0x2C0 JUMP JUMPDEST SWAP2 POP DUP3 PUSH1 0x2 MUL DUP3 OR SWAP1 POP SWAP3 SWAP2 POP POP JUMP JUMPDEST PUSH2 0x300 DUP3 PUSH2 0xBA JUMP JUMPDEST PUSH8 0xFFFFFFFFFFFFFFFF DUP2 GT ISZERO PUSH2 0x319 JUMPI PUSH2 0x318 PUSH2 0xC4 JUMP JUMPDEST JUMPDEST PUSH2 0x323 DUP3 SLOAD PUSH2 0x11E JUMP JUMPDEST PUSH2 0x32E DUP3 DUP3 DUP6 PUSH2 0x26E JUMP JUMPDEST PUSH0 PUSH1 0x20 SWAP1 POP PUSH1 0x1F DUP4 GT PUSH1 0x1 DUP2 EQ PUSH2 0x35F JUMPI PUSH0 DUP5 ISZERO PUSH2 0x34D JUMPI DUP3 DUP8 ADD MLOAD SWAP1 POP JUMPDEST PUSH2 0x357 DUP6 DUP3 PUSH2 0x2DC JUMP JUMPDEST DUP7 SSTORE POP PUSH2 0x3BE JUMP JUMPDEST PUSH1 0x1F NOT DUP5 AND PUSH2 0x36D DUP7 PUSH2 0x14E JUMP JUMPDEST PUSH0 JUMPDEST DUP3 DUP2 LT ISZERO PUSH2 0x394 JUMPI DUP5 DUP10 ADD MLOAD DUP3 SSTORE PUSH1 0x1 DUP3 ADD SWAP2 POP PUSH1 0x20 DUP6 ADD SWAP5 POP PUSH1 0x20 DUP2 ADD SWAP1 POP PUSH2 0x36F JUMP JUMPDEST DUP7 DUP4 LT ISZERO PUSH2 0x3B1 JUMPI DUP5 DUP10 ADD MLOAD PUSH2 0x3AD PUSH1 0x1F DUP10 AND DUP3 PUSH2 0x2C0 JUMP JUMPDEST DUP4 SSTORE POP JUMPDEST PUSH1 0x1 PUSH1 0x2 DUP9 MUL ADD DUP9 SSTORE POP POP POP JUMPDEST POP POP POP POP POP POP JUMP JUMPDEST PUSH0 DUP2 SWAP1 POP DUP2 PUSH0 MSTORE PUSH1 0x20 PUSH0 KECCAK256 SWAP1 POP SWAP2 SWAP1 POP JUMP JUMPDEST PUSH1 0x1F DUP3 GT ISZERO PUSH2 0x419 JUMPI PUSH2 0x3EA DUP2 PUSH2 0x3C6 JUMP JUMPDEST PUSH2 0x3F3 DUP5 PUSH2 0x160 JUMP JUMPDEST DUP2 ADD PUSH1 0x20 DUP6 LT ISZERO PUSH2 0x402 JUMPI DUP2 SWAP1 POP JUMPDEST PUSH2 0x416 PUSH2 0x40E DUP6 PUSH2 0x160 JUMP JUMPDEST DUP4 ADD DUP3 PUSH2 0x24C JUMP JUMPDEST POP POP JUMPDEST POP POP POP JUMP JUMPDEST PUSH2 0x427 DUP3 PUSH2 0xBA JUMP JUMPDEST PUSH8 0xFFFFFFFFFFFFFFFF DUP2 GT ISZERO PUSH2 0x440 JUMPI PUSH2 0x43F PUSH2 0xC4 JUMP JUMPDEST JUMPDEST PUSH2 0x44A DUP3 SLOAD PUSH2 0x11E JUMP JUMPDEST PUSH2 0x455 DUP3 DUP3 DUP6 PUSH2 0x3D8 JUMP JUMPDEST PUSH0 PUSH1 0x20 SWAP1 POP PUSH1 0x1F DUP4 GT PUSH1 0x1 DUP2 EQ PUSH2 0x486 JUMPI PUSH0 DUP5 ISZERO PUSH2 0x474 JUMPI DUP3 DUP8 ADD MLOAD SWAP1 POP JUMPDEST PUSH2 0x47E DUP6 DUP3 PUSH2 0x2DC JUMP JUMPDEST DUP7 SSTORE POP PUSH2 0x4E5 JUMP JUMPDEST PUSH1 0x1F NOT DUP5 AND PUSH2 0x494 DUP7 PUSH2 0x3C6 JUMP JUMPDEST PUSH0 JUMPDEST DUP3 DUP2 LT ISZERO PUSH2 0x4BB JUMPI DUP5 DUP10 ADD MLOAD DUP3 SSTORE PUSH1 0x1 DUP3 ADD SWAP2 POP PUSH1 0x20 DUP6 ADD SWAP5 POP PUSH1 0x20 DUP2 ADD SWAP1 POP PUSH2 0x496 JUMP JUMPDEST DUP7 DUP4 LT ISZERO PUSH2 0x4D8 JUMPI DUP5 DUP10 ADD MLOAD PUSH2 0x4D4 PUSH1 0x1F DUP10 AND DUP3 PUSH2 0x2C0 JUMP JUMPDEST DUP4 SSTORE POP JUMPDEST PUSH1 0x1 PUSH1 0x2 DUP9 MUL ADD DUP9 SSTORE POP POP POP JUMPDEST POP POP POP POP POP POP JUMP JUMPDEST PUSH2 0x121A DUP1 PUSH2 0x4FA PUSH0 CODECOPY PUSH0 RETURN INVALID PUSH1 0x80 PUSH1 0x40 MSTORE CALLVALUE DUP1 ISZERO PUSH2 0xF JUMPI PUSH0 PUSH0 REVERT JUMPDEST POP PUSH1 0x4 CALLDATASIZE LT PUSH2 0x12A JUMPI PUSH0 CALLDATALOAD PUSH1 0xE0 SHR DUP1 PUSH4 0x75EB2AD1 GT PUSH2 0xAB JUMPI DUP1 PUSH4 0xE2A4B2AF GT PUSH2 0x6F JUMPI DUP1 PUSH4 0xE2A4B2AF EQ PUSH2 0x2E4 JUMPI DUP1 PUSH4 0xE30081A0 EQ PUSH2 0x302 JUMPI DUP1 PUSH4 0xE492FD84 EQ PUSH2 0x31E JUMPI DUP1 PUSH4 0xE5F199B5 EQ PUSH2 0x33A JUMPI DUP1 PUSH4 0xEB1B30D9 EQ PUSH2 0x358 JUMPI PUSH2 0x12A JUMP JUMPDEST DUP1 PUSH4 0x75EB2AD1 EQ PUSH2 0x240 JUMPI DUP1 PUSH4 0x7C668844 EQ PUSH2 0x25E JUMPI DUP1 PUSH4 0x82180568 EQ PUSH2 0x28E JUMPI DUP1 PUSH4 0x9B57E711 EQ PUSH2 0x2AA JUMPI DUP1 PUSH4 0xB92BA3B8 EQ PUSH2 0x2B4 JUMPI PUSH2 0x12A JUMP JUMPDEST DUP1 PUSH4 0x55241077 GT PUSH2 0xF2 JUMPI DUP1 PUSH4 0x55241077 EQ PUSH2 0x1B0 JUMPI DUP1 PUSH4 0x5A4A3313 EQ PUSH2 0x1CC JUMPI DUP1 PUSH4 0x5CE25353 EQ PUSH2 0x1E8 JUMPI DUP1 PUSH4 0x634899CE EQ PUSH2 0x218 JUMPI DUP1 PUSH4 0x6DEECDBE EQ PUSH2 0x222 JUMPI PUSH2 0x12A JUMP JUMPDEST DUP1 PUSH4 0x6540F7E EQ PUSH2 0x12E JUMPI DUP1 PUSH4 0x18E5F16B EQ PUSH2 0x14C JUMPI DUP1 PUSH4 0x26B85EE1 EQ PUSH2 0x16A JUMPI DUP1 PUSH4 0x354B7F2F EQ PUSH2 0x188 JUMPI DUP1 PUSH4 0x492BFA18 EQ PUSH2 0x192 JUMPI JUMPDEST PUSH0 PUSH0 REVERT JUMPDEST PUSH2 0x136 PUSH2 0x374 JUMP JUMPDEST PUSH1 0x40 MLOAD PUSH2 0x143 SWAP2 SWAP1 PUSH2 0x774 JUMP JUMPDEST PUSH1 0x40 MLOAD DUP1 SWAP2 SUB SWAP1 RETURN JUMPDEST PUSH2 0x154 PUSH2 0x37A JUMP JUMPDEST PUSH1 0x40 MLOAD PUSH2 0x161 SWAP2 SWAP1 PUSH2 0x7CC JUMP JUMPDEST PUSH1 0x40 MLOAD DUP1 SWAP2 SUB SWAP1 RETURN JUMPDEST PUSH2 0x172 PUSH2 0x39F JUMP JUMPDEST PUSH1 0x40 MLOAD PUSH2 0x17F SWAP2 SWAP1 PUSH2 0x7CC JUMP JUMPDEST PUSH1 0x40 MLOAD DUP1 SWAP2 SUB SWAP1 RETURN JUMPDEST PUSH2 0x190 PUSH2 0x3C4 JUMP JUMPDEST STOP JUMPDEST PUSH2 0x19A PUSH2 0x3FD JUMP JUMPDEST PUSH1 0x40 MLOAD PUSH2 0x1A7 SWAP2 SWAP1 PUSH2 0x855 JUMP JUMPDEST PUSH1 0x40 MLOAD DUP1 SWAP2 SUB SWAP1 RETURN JUMPDEST PUSH2 0x1CA PUSH1 0x4 DUP1 CALLDATASIZE SUB DUP2 ADD SWAP1 PUSH2 0x1C5 SWAP2 SWAP1 PUSH2 0x8B0 JUMP JUMPDEST PUSH2 0x489 JUMP JUMPDEST STOP JUMPDEST PUSH2 0x1E6 PUSH1 0x4 DUP1 CALLDATASIZE SUB DUP2 ADD SWAP1 PUSH2 0x1E1 SWAP2 SWAP1 PUSH2 0xA07 JUMP JUMPDEST PUSH2 0x4B5 JUMP JUMPDEST STOP JUMPDEST PUSH2 0x202 PUSH1 0x4 DUP1 CALLDATASIZE SUB DUP2 ADD SWAP1 PUSH2 0x1FD SWAP2 SWAP1 PUSH2 0xAEC JUMP JUMPDEST PUSH2 0x4C8 JUMP JUMPDEST PUSH1 0x40 MLOAD PUSH2 0x20F SWAP2 SWAP1 PUSH2 0xB4D JUMP JUMPDEST PUSH1 0x40 MLOAD DUP1 SWAP2 SUB SWAP1 RETURN JUMPDEST PUSH2 0x220 PUSH2 0x520 JUMP JUMPDEST STOP JUMPDEST PUSH2 0x22A PUSH2 0x577 JUMP JUMPDEST PUSH1 0x40 MLOAD PUSH2 0x237 SWAP2 SWAP1 PUSH2 0xB4D JUMP JUMPDEST PUSH1 0x40 MLOAD DUP1 SWAP2 SUB SWAP1 RETURN JUMPDEST PUSH2 0x248 PUSH2 0x588 JUMP JUMPDEST PUSH1 0x40 MLOAD PUSH2 0x255 SWAP2 SWAP1 PUSH2 0x774 JUMP JUMPDEST PUSH1 0x40 MLOAD DUP1 SWAP2 SUB SWAP1 RETURN JUMPDEST PUSH2 0x278 PUSH1 0x4 DUP1 CALLDATASIZE SUB DUP2 ADD SWAP1 PUSH2 0x273 SWAP2 SWAP1 PUSH2 0x8B0 JUMP JUMPDEST PUSH2 0x5C7 JUMP JUMPDEST PUSH1 0x40 MLOAD PUSH2 0x285 SWAP2 SWAP1 PUSH2 0xB4D JUMP JUMPDEST PUSH1 0x40 MLOAD DUP1 SWAP2 SUB SWAP1 RETURN JUMPDEST PUSH2 0x2A8 PUSH1 0x4 DUP1 CALLDATASIZE SUB DUP2 ADD SWAP1 PUSH2 0x2A3 SWAP2 SWAP1 PUSH2 0xAEC JUMP JUMPDEST PUSH2 0x5E4 JUMP JUMPDEST STOP JUMPDEST PUSH2 0x2B2 PUSH2 0x5F7 JUMP JUMPDEST STOP JUMPDEST PUSH2 0x2CE PUSH1 0x4 DUP1 CALLDATASIZE SUB DUP2 ADD SWAP1 PUSH2 0x2C9 SWAP2 SWAP1 PUSH2 0xB90 JUMP JUMPDEST PUSH2 0x639 JUMP JUMPDEST PUSH1 0x40 MLOAD PUSH2 0x2DB SWAP2 SWAP1 PUSH2 0xB4D JUMP JUMPDEST PUSH1 0x40 MLOAD DUP1 SWAP2 SUB SWAP1 RETURN JUMPDEST PUSH2 0x2EC PUSH2 0x656 JUMP JUMPDEST PUSH1 0x40 MLOAD PUSH2 0x2F9 SWAP2 SWAP1 PUSH2 0xBD6 JUMP JUMPDEST PUSH1 0x40 MLOAD DUP1 SWAP2 SUB SWAP1 RETURN JUMPDEST PUSH2 0x31C PUSH1 0x4 DUP1 CALLDATASIZE SUB DUP2 ADD SWAP1 PUSH2 0x317 SWAP2 SWAP1 PUSH2 0xB90 JUMP JUMPDEST PUSH2 0x668 JUMP JUMPDEST STOP JUMPDEST PUSH2 0x338 PUSH1 0x4 DUP1 CALLDATASIZE SUB DUP2 ADD SWAP1 PUSH2 0x333 SWAP2 SWAP1 PUSH2 0x8B0 JUMP JUMPDEST PUSH2 0x6AB JUMP JUMPDEST STOP JUMPDEST PUSH2 0x342 PUSH2 0x6B5 JUMP JUMPDEST PUSH1 0x40 MLOAD PUSH2 0x34F SWAP2 SWAP1 PUSH2 0xC41 JUMP JUMPDEST PUSH1 0x40 MLOAD DUP1 SWAP2 SUB SWAP1 RETURN JUMPDEST PUSH2 0x372 PUSH1 0x4 DUP1 CALLDATASIZE SUB DUP2 ADD SWAP1 PUSH2 0x36D SWAP2 SWAP1 PUSH2 0xC8B JUMP JUMPDEST PUSH2 0x741 JUMP JUMPDEST STOP JUMPDEST PUSH1 0x1 SLOAD DUP2 JUMP JUMPDEST PUSH1 0x6 PUSH0 SWAP1 SLOAD SWAP1 PUSH2 0x100 EXP SWAP1 DIV PUSH20 0xFFFFFFFFFFFFFFFFFFFFFFFFFFFFFFFFFFFFFFFF AND DUP2 JUMP JUMPDEST PUSH1 0x5 PUSH0 SWAP1 SLOAD SWAP1 PUSH2 0x100 EXP SWAP1 DIV PUSH20 0xFFFFFFFFFFFFFFFFFFFFFFFFFFFFFFFFFFFFFFFF AND DUP2 JUMP JUMPDEST PUSH1 0x2 PUSH0 DUP2 DUP2 SWAP1 SLOAD SWAP1 PUSH2 0x100 EXP SWAP1 DIV PUSH1 0xFF AND DUP1 SWAP3 SWAP2 SWAP1 PUSH2 0x3E2 SWAP1 PUSH2 0xCE3 JUMP JUMPDEST SWAP2 SWAP1 PUSH2 0x100 EXP DUP2 SLOAD DUP2 PUSH1 0xFF MUL NOT AND SWAP1 DUP4 PUSH1 0xFF AND MUL OR SWAP1 SSTORE POP POP JUMP JUMPDEST PUSH1 0x3 DUP1 SLOAD PUSH2 0x40A SWAP1 PUSH2 0xD38 JUMP JUMPDEST DUP1 PUSH1 0x1F ADD PUSH1 0x20 DUP1 SWAP2 DIV MUL PUSH1 0x20 ADD PUSH1 0x40 MLOAD SWAP1 DUP2 ADD PUSH1 0x40 MSTORE DUP1 SWAP3 SWAP2 SWAP1 DUP2 DUP2 MSTORE PUSH1 0x20 ADD DUP3 DUP1 SLOAD PUSH2 0x436 SWAP1 PUSH2 0xD38 JUMP JUMPDEST DUP1 ISZERO PUSH2 0x481 JUMPI DUP1 PUSH1 0x1F LT PUSH2 0x458 JUMPI PUSH2 0x100 DUP1 DUP4 SLOAD DIV MUL DUP4 MSTORE SWAP2 PUSH1 0x20 ADD SWAP2 PUSH2 0x481 JUMP JUMPDEST DUP3 ADD SWAP2 SWAP1 PUSH0 MSTORE PUSH1 0x20 PUSH0 KECCAK256 SWAP1 JUMPDEST DUP2 SLOAD DUP2 MSTORE SWAP1 PUSH1 0x1 ADD SWAP1 PUSH1 0x20 ADD DUP1 DUP4 GT PUSH2 0x464 JUMPI DUP3 SWAP1 SUB PUSH1 0x1F AND DUP3 ADD SWAP2 JUMPDEST POP POP POP POP POP DUP2 JUMP JUMPDEST PUSH1 0x1 PUSH1 0x7 PUSH0 DUP4 DUP2 MSTORE PUSH1 0x20 ADD SWAP1 DUP2 MSTORE PUSH1 0x20 ADD PUSH0 KECCAK256 PUSH0 PUSH2 0x100 EXP DUP2 SLOAD DUP2 PUSH1 0xFF MUL NOT AND SWAP1 DUP4 ISZERO ISZERO MUL OR SWAP1 SSTORE POP POP JUMP JUMPDEST DUP1 PUSH1 0x4 SWAP1 DUP2 PUSH2 0x4C4 SWAP2 SWAP1 PUSH2 0xF08 JUMP JUMPDEST POP POP JUMP JUMPDEST PUSH0 DUP2 PUSH1 0x40 MLOAD PUSH1 0x20 ADD PUSH2 0x4DA SWAP2 SWAP1 PUSH2 0x1011 JUMP JUMPDEST PUSH1 0x40 MLOAD PUSH1 0x20 DUP2 DUP4 SUB SUB DUP2 MSTORE SWAP1 PUSH1 0x40 MSTORE DUP1 MLOAD SWAP1 PUSH1 0x20 ADD KECCAK256 PUSH1 0x3 PUSH1 0x40 MLOAD PUSH1 0x20 ADD PUSH2 0x502 SWAP2 SWAP1 PUSH2 0x10B9 JUMP JUMPDEST PUSH1 0x40 MLOAD PUSH1 0x20 DUP2 DUP4 SUB SUB DUP2 MSTORE SWAP1 PUSH1 0x40 MSTORE DUP1 MLOAD SWAP1 PUSH1 0x20 ADD KECCAK256 EQ SWAP1 POP SWAP2 SWAP1 POP JUMP JUMPDEST PUSH1 0x1 PUSH1 0x8 PUSH0 CALLER PUSH20 0xFFFFFFFFFFFFFFFFFFFFFFFFFFFFFFFFFFFFFFFF AND PUSH20 0xFFFFFFFFFFFFFFFFFFFFFFFFFFFFFFFFFFFFFFFF AND DUP2 MSTORE PUSH1 0x20 ADD SWAP1 DUP2 MSTORE PUSH1 0x20 ADD PUSH0 KECCAK256 PUSH0 PUSH2 0x100 EXP DUP2 SLOAD DUP2 PUSH1 0xFF MUL NOT AND SWAP1 DUP4 ISZERO ISZERO MUL OR SWAP1 SSTORE POP JUMP JUMPDEST PUSH0 PUSH0 SWAP1 SLOAD SWAP1 PUSH2 0x100 EXP SWAP1 DIV PUSH1 0xFF AND DUP2 JUMP JUMPDEST PUSH0 PUSH1 0x5 PUSH0 SWAP1 SLOAD SWAP1 PUSH2 0x100 EXP SWAP1 DIV PUSH20 0xFFFFFFFFFFFFFFFFFFFFFFFFFFFFFFFFFFFFFFFF AND PUSH20 0xFFFFFFFFFFFFFFFFFFFFFFFFFFFFFFFFFFFFFFFF AND BALANCE SWAP1 POP SWAP1 JUMP JUMPDEST PUSH1 0x7 PUSH1 0x20 MSTORE DUP1 PUSH0 MSTORE PUSH1 0x40 PUSH0 KECCAK256 PUSH0 SWAP2 POP SLOAD SWAP1 PUSH2 0x100 EXP SWAP1 DIV PUSH1 0xFF AND DUP2 JUMP JUMPDEST DUP1 PUSH1 0x3 SWAP1 DUP2 PUSH2 0x5F3 SWAP2 SWAP1 PUSH2 0x1115 JUMP JUMPDEST POP POP JUMP JUMPDEST CALLER PUSH1 0x6 PUSH0 PUSH2 0x100 EXP DUP2 SLOAD DUP2 PUSH20 0xFFFFFFFFFFFFFFFFFFFFFFFFFFFFFFFFFFFFFFFF MUL NOT AND SWAP1 DUP4 PUSH20 0xFFFFFFFFFFFFFFFFFFFFFFFFFFFFFFFFFFFFFFFF AND MUL OR SWAP1 SSTORE POP JUMP JUMPDEST PUSH1 0x8 PUSH1 0x20 MSTORE DUP1 PUSH0 MSTORE PUSH1 0x40 PUSH0 KECCAK256 PUSH0 SWAP2 POP SLOAD SWAP1 PUSH2 0x100 EXP SWAP1 DIV PUSH1 0xFF AND DUP2 JUMP JUMPDEST PUSH1 0x2 PUSH0 SWAP1 SLOAD SWAP1 PUSH2 0x100 EXP SWAP1 DIV PUSH1 0xFF AND DUP2 JUMP JUMPDEST DUP1 PUSH1 0x5 PUSH0 PUSH2 0x100 EXP DUP2 SLOAD DUP2 PUSH20 0xFFFFFFFFFFFFFFFFFFFFFFFFFFFFFFFFFFFFFFFF MUL NOT AND SWAP1 DUP4 PUSH20 0xFFFFFFFFFFFFFFFFFFFFFFFFFFFFFFFFFFFFFFFF AND MUL OR SWAP1 SSTORE POP POP JUMP JUMPDEST DUP1 PUSH1 0x1 DUP2 SWAP1 SSTORE POP POP JUMP JUMPDEST PUSH1 0x4 DUP1 SLOAD PUSH2 0x6C2 SWAP1 PUSH2 0xD38 JUMP JUMPDEST DUP1 PUSH1 0x1F ADD PUSH1 0x20 DUP1 SWAP2 DIV MUL PUSH1 0x20 ADD PUSH1 0x40 MLOAD SWAP1 DUP2 ADD PUSH1 0x40 MSTORE DUP1 SWAP3 SWAP2 SWAP1 DUP2 DUP2 MSTORE PUSH1 0x20 ADD DUP3 DUP1 SLOAD PUSH2 0x6EE SWAP1 PUSH2 0xD38 JUMP JUMPDEST DUP1 ISZERO PUSH2 0x739 JUMPI DUP1 PUSH1 0x1F LT PUSH2 0x710 JUMPI PUSH2 0x100 DUP1 DUP4 SLOAD DIV MUL DUP4 MSTORE SWAP2 PUSH1 0x20 ADD SWAP2 PUSH2 0x739 JUMP JUMPDEST DUP3 ADD SWAP2 SWAP1 PUSH0 MSTORE PUSH1 0x20 PUSH0 KECCAK256 SWAP1 JUMPDEST DUP2 SLOAD DUP2 MSTORE SWAP1 PUSH1 0x1 ADD SWAP1 PUSH1 0x20 ADD DUP1 DUP4 GT PUSH2 0x71C JUMPI DUP3 SWAP1 SUB PUSH1 0x1F AND DUP3 ADD SWAP2 JUMPDEST POP POP POP POP POP DUP2 JUMP JUMPDEST DUP1 PUSH0 PUSH0 PUSH2 0x100 EXP DUP2 SLOAD DUP2 PUSH1 0xFF MUL NOT AND SWAP1 DUP4 ISZERO ISZERO MUL OR SWAP1 SSTORE POP POP JUMP JUMPDEST PUSH0 DUP2 SWAP1 POP SWAP2 SWAP1 POP JUMP JUMPDEST PUSH2 0x76E DUP2 PUSH2 0x75C JUMP JUMPDEST DUP3 MSTORE POP POP JUMP JUMPDEST PUSH0 PUSH1 0x20 DUP3 ADD SWAP1 POP PUSH2 0x787 PUSH0 DUP4 ADD DUP5 PUSH2 0x765 JUMP JUMPDEST SWAP3 SWAP2 POP POP JUMP JUMPDEST PUSH0 PUSH20 0xFFFFFFFFFFFFFFFFFFFFFFFFFFFFFFFFFFFFFFFF DUP3 AND SWAP1 POP SWAP2 SWAP1 POP JUMP JUMPDEST PUSH0 PUSH2 0x7B6 DUP3 PUSH2 0x78D JUMP JUMPDEST SWAP1 POP SWAP2 SWAP1 POP JUMP JUMPDEST PUSH2 0x7C6 DUP2 PUSH2 0x7AC JUMP JUMPDEST DUP3 MSTORE POP POP JUMP JUMPDEST PUSH0 PUSH1 0x20 DUP3 ADD SWAP1 POP PUSH2 0x7DF PUSH0 DUP4 ADD DUP5 PUSH2 0x7BD JUMP JUMPDEST SWAP3 SWAP2 POP POP JUMP JUMPDEST PUSH0 DUP2 MLOAD SWAP1 POP SWAP2 SWAP1 POP JUMP JUMPDEST PUSH0 DUP3 DUP3 MSTORE PUSH1 0x20 DUP3 ADD SWAP1 POP SWAP3 SWAP2 POP POP JUMP JUMPDEST DUP3 DUP2 DUP4 MCOPY PUSH0 DUP4 DUP4 ADD MSTORE POP POP POP JUMP JUMPDEST PUSH0 PUSH1 0x1F NOT PUSH1 0x1F DUP4 ADD AND SWAP1 POP SWAP2 SWAP1 POP JUMP JUMPDEST PUSH0 PUSH2 0x827 DUP3 PUSH2 0x7E5 JUMP JUMPDEST PUSH2 0x831 DUP2 DUP6 PUSH2 0x7EF JUMP JUMPDEST SWAP4 POP PUSH2 0x841 DUP2 DUP6 PUSH1 0x20 DUP7 ADD PUSH2 0x7FF JUMP JUMPDEST PUSH2 0x84A DUP2 PUSH2 0x80D JUMP JUMPDEST DUP5 ADD SWAP2 POP POP SWAP3 SWAP2 POP POP JUMP JUMPDEST PUSH0 PUSH1 0x20 DUP3 ADD SWAP1 POP DUP2 DUP2 SUB PUSH0 DUP4 ADD MSTORE PUSH2 0x86D DUP2 DUP5 PUSH2 0x81D JUMP JUMPDEST SWAP1 POP SWAP3 SWAP2 POP POP JUMP JUMPDEST PUSH0 PUSH1 0x40 MLOAD SWAP1 POP SWAP1 JUMP JUMPDEST PUSH0 PUSH0 REVERT JUMPDEST PUSH0 PUSH0 REVERT JUMPDEST PUSH2 0x88F DUP2 PUSH2 0x75C JUMP JUMPDEST DUP2 EQ PUSH2 0x899 JUMPI PUSH0 PUSH0 REVERT JUMPDEST POP JUMP JUMPDEST PUSH0 DUP2 CALLDATALOAD SWAP1 POP PUSH2 0x8AA DUP2 PUSH2 0x886 JUMP JUMPDEST SWAP3 SWAP2 POP POP JUMP JUMPDEST PUSH0 PUSH1 0x20 DUP3 DUP5 SUB SLT ISZERO PUSH2 0x8C5 JUMPI PUSH2 0x8C4 PUSH2 0x87E JUMP JUMPDEST JUMPDEST PUSH0 PUSH2 0x8D2 DUP5 DUP3 DUP6 ADD PUSH2 0x89C JUMP JUMPDEST SWAP2 POP POP SWAP3 SWAP2 POP POP JUMP JUMPDEST PUSH0 PUSH0 REVERT JUMPDEST PUSH0 PUSH0 REVERT JUMPDEST PUSH32 0x4E487B7100000000000000000000000000000000000000000000000000000000 PUSH0 MSTORE PUSH1 0x41 PUSH1 0x4 MSTORE PUSH1 0x24 PUSH0 REVERT JUMPDEST PUSH2 0x919 DUP3 PUSH2 0x80D JUMP JUMPDEST DUP2 ADD DUP2 DUP2 LT PUSH8 0xFFFFFFFFFFFFFFFF DUP3 GT OR ISZERO PUSH2 0x938 JUMPI PUSH2 0x937 PUSH2 0x8E3 JUMP JUMPDEST JUMPDEST DUP1 PUSH1 0x40 MSTORE POP POP POP JUMP JUMPDEST PUSH0 PUSH2 0x94A PUSH2 0x875 JUMP JUMPDEST SWAP1 POP PUSH2 0x956 DUP3 DUP3 PUSH2 0x910 JUMP JUMPDEST SWAP2 SWAP1 POP JUMP JUMPDEST PUSH0 PUSH8 0xFFFFFFFFFFFFFFFF DUP3 GT ISZERO PUSH2 0x975 JUMPI PUSH2 0x974 PUSH2 0x8E3 JUMP JUMPDEST JUMPDEST PUSH2 0x97E DUP3 PUSH2 0x80D JUMP JUMPDEST SWAP1 POP PUSH1 0x20 DUP2 ADD SWAP1 POP SWAP2 SWAP1 POP JUMP JUMPDEST DUP3 DUP2 DUP4 CALLDATACOPY PUSH0 DUP4 DUP4 ADD MSTORE POP POP POP JUMP JUMPDEST PUSH0 PUSH2 0x9AB PUSH2 0x9A6 DUP5 PUSH2 0x95B JUMP JUMPDEST PUSH2 0x941 JUMP JUMPDEST SWAP1 POP DUP3 DUP2 MSTORE PUSH1 0x20 DUP2 ADD DUP5 DUP5 DUP5 ADD GT ISZERO PUSH2 0x9C7 JUMPI PUSH2 0x9C6 PUSH2 0x8DF JUMP JUMPDEST JUMPDEST PUSH2 0x9D2 DUP5 DUP3 DUP6 PUSH2 0x98B JUMP JUMPDEST POP SWAP4 SWAP3 POP POP POP JUMP JUMPDEST PUSH0 DUP3 PUSH1 0x1F DUP4 ADD SLT PUSH2 0x9EE JUMPI PUSH2 0x9ED PUSH2 0x8DB JUMP JUMPDEST JUMPDEST DUP2 CALLDATALOAD PUSH2 0x9FE DUP5 DUP3 PUSH1 0x20 DUP7 ADD PUSH2 0x999 JUMP JUMPDEST SWAP2 POP POP SWAP3 SWAP2 POP POP JUMP JUMPDEST PUSH0 PUSH1 0x20 DUP3 DUP5 SUB SLT ISZERO PUSH2 0xA1C JUMPI PUSH2 0xA1B PUSH2 0x87E JUMP JUMPDEST JUMPDEST PUSH0 DUP3 ADD CALLDATALOAD PUSH8 0xFFFFFFFFFFFFFFFF DUP2 GT ISZERO PUSH2 0xA39 JUMPI PUSH2 0xA38 PUSH2 0x882 JUMP JUMPDEST JUMPDEST PUSH2 0xA45 DUP5 DUP3 DUP6 ADD PUSH2 0x9DA JUMP JUMPDEST SWAP2 POP POP SWAP3 SWAP2 POP POP JUMP JUMPDEST PUSH0 PUSH8 0xFFFFFFFFFFFFFFFF DUP3 GT ISZERO PUSH2 0xA68 JUMPI PUSH2 0xA67 PUSH2 0x8E3 JUMP JUMPDEST JUMPDEST PUSH2 0xA71 DUP3 PUSH2 0x80D JUMP JUMPDEST SWAP1 POP PUSH1 0x20 DUP2 ADD SWAP1 POP SWAP2 SWAP1 POP JUMP JUMPDEST PUSH0 PUSH2 0xA90 PUSH2 0xA8B DUP5 PUSH2 0xA4E JUMP JUMPDEST PUSH2 0x941 JUMP JUMPDEST SWAP1 POP DUP3 DUP2 MSTORE PUSH1 0x20 DUP2 ADD DUP5 DUP5 DUP5 ADD GT ISZERO PUSH2 0xAAC JUMPI PUSH2 0xAAB PUSH2 0x8DF JUMP JUMPDEST JUMPDEST PUSH2 0xAB7 DUP5 DUP3 DUP6 PUSH2 0x98B JUMP JUMPDEST POP SWAP4 SWAP3 POP POP POP JUMP JUMPDEST PUSH0 DUP3 PUSH1 0x1F DUP4 ADD SLT PUSH2 0xAD3 JUMPI PUSH2 0xAD2 PUSH2 0x8DB JUMP JUMPDEST JUMPDEST DUP2 CALLDATALOAD PUSH2 0xAE3 DUP5 DUP3 PUSH1 0x20 DUP7 ADD PUSH2 0xA7E JUMP JUMPDEST SWAP2 POP POP SWAP3 SWAP2 POP POP JUMP JUMPDEST PUSH0 PUSH1 0x20 DUP3 DUP5 SUB SLT ISZERO PUSH2 0xB01 JUMPI PUSH2 0xB00 PUSH2 0x87E JUMP JUMPDEST JUMPDEST PUSH0 DUP3 ADD CALLDATALOAD PUSH8 0xFFFFFFFFFFFFFFFF DUP2 GT ISZERO PUSH2 0xB1E JUMPI PUSH2 0xB1D PUSH2 0x882 JUMP JUMPDEST JUMPDEST PUSH2 0xB2A DUP5 DUP3 DUP6 ADD PUSH2 0xABF JUMP JUMPDEST SWAP2 POP POP SWAP3 SWAP2 POP POP JUMP JUMPDEST PUSH0 DUP2 ISZERO ISZERO SWAP1 POP SWAP2 SWAP1 POP JUMP JUMPDEST PUSH2 0xB47 DUP2 PUSH2 0xB33 JUMP JUMPDEST DUP3 MSTORE POP POP JUMP JUMPDEST PUSH0 PUSH1 0x20 DUP3 ADD SWAP1 POP PUSH2 0xB60 PUSH0 DUP4 ADD DUP5 PUSH2 0xB3E JUMP JUMPDEST SWAP3 SWAP2 POP POP JUMP JUMPDEST PUSH2 0xB6F DUP2 PUSH2 0x7AC JUMP JUMPDEST DUP2 EQ PUSH2 0xB79 JUMPI PUSH0 PUSH0 REVERT JUMPDEST POP JUMP JUMPDEST PUSH0 DUP2 CALLDATALOAD SWAP1 POP PUSH2 0xB8A DUP2 PUSH2 0xB66 JUMP JUMPDEST SWAP3 SWAP2 POP POP JUMP JUMPDEST PUSH0 PUSH1 0x20 DUP3 DUP5 SUB SLT ISZERO PUSH2 0xBA5 JUMPI PUSH2 0xBA4 PUSH2 0x87E JUMP JUMPDEST JUMPDEST PUSH0 PUSH2 0xBB2 DUP5 DUP3 DUP6 ADD PUSH2 0xB7C JUMP JUMPDEST SWAP2 POP POP SWAP3 SWAP2 POP POP JUMP JUMPDEST PUSH0 PUSH1 0xFF DUP3 AND SWAP1 POP SWAP2 SWAP1 POP JUMP JUMPDEST PUSH2 0xBD0 DUP2 PUSH2 0xBBB JUMP JUMPDEST DUP3 MSTORE POP POP JUMP JUMPDEST PUSH0 PUSH1 0x20 DUP3 ADD SWAP1 POP PUSH2 0xBE9 PUSH0 DUP4 ADD DUP5 PUSH2 0xBC7 JUMP JUMPDEST SWAP3 SWAP2 POP POP JUMP JUMPDEST PUSH0 DUP2 MLOAD SWAP1 POP SWAP2 SWAP1 POP JUMP JUMPDEST PUSH0 DUP3 DUP3 MSTORE PUSH1 0x20 DUP3 ADD SWAP1 POP SWAP3 SWAP2 POP POP JUMP JUMPDEST PUSH0 PUSH2 0xC13 DUP3 PUSH2 0xBEF JUMP JUMPDEST PUSH2 0xC1D DUP2 DUP6 PUSH2 0xBF9 JUMP JUMPDEST SWAP4 POP PUSH2 0xC2D DUP2 DUP6 PUSH1 0x20 DUP7 ADD PUSH2 0x7FF JUMP JUMPDEST PUSH2 0xC36 DUP2 PUSH2 0x80D JUMP JUMPDEST DUP5 ADD SWAP2 POP POP SWAP3 SWAP2 POP POP JUMP JUMPDEST PUSH0 PUSH1 0x20 DUP3 ADD SWAP1 POP DUP2 DUP2 SUB PUSH0 DUP4 ADD MSTORE PUSH2 0xC59 DUP2 DUP5 PUSH2 0xC09 JUMP JUMPDEST SWAP1 POP SWAP3 SWAP2 POP POP JUMP JUMPDEST PUSH2 0xC6A DUP2 PUSH2 0xB33 JUMP JUMPDEST DUP2 EQ PUSH2 0xC74 JUMPI PUSH0 PUSH0 REVERT JUMPDEST POP JUMP JUMPDEST PUSH0 DUP2 CALLDATALOAD SWAP1 POP PUSH2 0xC85 DUP2 PUSH2 0xC61 JUMP JUMPDEST SWAP3 SWAP2 POP POP JUMP JUMPDEST PUSH0 PUSH1 0x20 DUP3 DUP5 SUB SLT ISZERO PUSH2 0xCA0 JUMPI PUSH2 0xC9F PUSH2 0x87E JUMP JUMPDEST JUMPDEST PUSH0 PUSH2 0xCAD DUP5 DUP3 DUP6 ADD PUSH2 0xC77 JUMP JUMPDEST SWAP2 POP POP SWAP3 SWAP2 POP POP JUMP JUMPDEST PUSH32 0x4E487B7100000000000000000000000000000000000000000000000000000000 PUSH0 MSTORE PUSH1 0x11 PUSH1 0x4 MSTORE PUSH1 0x24 PUSH0 REVERT JUMPDEST PUSH0 PUSH2 0xCED DUP3 PUSH2 0xBBB JUMP JUMPDEST SWAP2 POP PUSH1 0xFF DUP3 SUB PUSH2 0xD00 JUMPI PUSH2 0xCFF PUSH2 0xCB6 JUMP JUMPDEST JUMPDEST PUSH1 0x1 DUP3 ADD SWAP1 POP SWAP2 SWAP1 POP JUMP JUMPDEST PUSH32 0x4E487B7100000000000000000000000000000000000000000000000000000000 PUSH0 MSTORE PUSH1 0x22 PUSH1 0x4 MSTORE PUSH1 0x24 PUSH0 REVERT JUMPDEST PUSH0 PUSH1 0x2 DUP3 DIV SWAP1 POP PUSH1 0x1 DUP3 AND DUP1 PUSH2 0xD4F JUMPI PUSH1 0x7F DUP3 AND SWAP2 POP JUMPDEST PUSH1 0x20 DUP3 LT DUP2 SUB PUSH2 0xD62 JUMPI PUSH2 0xD61 PUSH2 0xD0B JUMP JUMPDEST JUMPDEST POP SWAP2 SWAP1 POP JUMP JUMPDEST PUSH0 DUP2 SWAP1 POP DUP2 PUSH0 MSTORE PUSH1 0x20 PUSH0 KECCAK256 SWAP1 POP SWAP2 SWAP1 POP JUMP JUMPDEST PUSH0 PUSH1 0x20 PUSH1 0x1F DUP4 ADD DIV SWAP1 POP SWAP2 SWAP1 POP JUMP JUMPDEST PUSH0 DUP3 DUP3 SHL SWAP1 POP SWAP3 SWAP2 POP POP JUMP JUMPDEST PUSH0 PUSH1 0x8 DUP4 MUL PUSH2 0xDC4 PUSH32 0xFFFFFFFFFFFFFFFFFFFFFFFFFFFFFFFFFFFFFFFFFFFFFFFFFFFFFFFFFFFFFFFF DUP3 PUSH2 0xD89 JUMP JUMPDEST PUSH2 0xDCE DUP7 DUP4 PUSH2 0xD89 JUMP JUMPDEST SWAP6 POP DUP1 NOT DUP5 AND SWAP4 POP DUP1 DUP7 AND DUP5 OR SWAP3 POP POP POP SWAP4 SWAP3 POP POP POP JUMP JUMPDEST PUSH0 DUP2 SWAP1 POP SWAP2 SWAP1 POP JUMP JUMPDEST PUSH0 PUSH2 0xE09 PUSH2 0xE04 PUSH2 0xDFF DUP5 PUSH2 0x75C JUMP JUMPDEST PUSH2 0xDE6 JUMP JUMPDEST PUSH2 0x75C JUMP JUMPDEST SWAP1 POP SWAP2 SWAP1 POP JUMP JUMPDEST PUSH0 DUP2 SWAP1 POP SWAP2 SWAP1 POP JUMP JUMPDEST PUSH2 0xE22 DUP4 PUSH2 0xDEF JUMP JUMPDEST PUSH2 0xE36 PUSH2 0xE2E DUP3 PUSH2 0xE10 JUMP JUMPDEST DUP5 DUP5 SLOAD PUSH2 0xD95 JUMP JUMPDEST DUP3 SSTORE POP POP POP POP JUMP JUMPDEST PUSH0 PUSH0 SWAP1 POP SWAP1 JUMP JUMPDEST PUSH2 0xE4D PUSH2 0xE3E JUMP JUMPDEST PUSH2 0xE58 DUP2 DUP5 DUP5 PUSH2 0xE19 JUMP JUMPDEST POP POP POP JUMP JUMPDEST JUMPDEST DUP2 DUP2 LT ISZERO PUSH2 0xE7B JUMPI PUSH2 0xE70 PUSH0 DUP3 PUSH2 0xE45 JUMP JUMPDEST PUSH1 0x1 DUP2 ADD SWAP1 POP PUSH2 0xE5E JUMP JUMPDEST POP POP JUMP JUMPDEST PUSH1 0x1F DUP3 GT ISZERO PUSH2 0xEC0 JUMPI PUSH2 0xE91 DUP2 PUSH2 0xD68 JUMP JUMPDEST PUSH2 0xE9A DUP5 PUSH2 0xD7A JUMP JUMPDEST DUP2 ADD PUSH1 0x20 DUP6 LT ISZERO PUSH2 0xEA9 JUMPI DUP2 SWAP1 POP JUMPDEST PUSH2 0xEBD PUSH2 0xEB5 DUP6 PUSH2 0xD7A JUMP JUMPDEST DUP4 ADD DUP3 PUSH2 0xE5D JUMP JUMPDEST POP POP JUMPDEST POP POP POP JUMP JUMPDEST PUSH0 DUP3 DUP3 SHR SWAP1 POP SWAP3 SWAP2 POP POP JUMP JUMPDEST PUSH0 PUSH2 0xEE0 PUSH0 NOT DUP5 PUSH1 0x8 MUL PUSH2 0xEC5 JUMP JUMPDEST NOT DUP1 DUP4 AND SWAP2 POP POP SWAP3 SWAP2 POP POP JUMP JUMPDEST PUSH0 PUSH2 0xEF8 DUP4 DUP4 PUSH2 0xED1 JUMP JUMPDEST SWAP2 POP DUP3 PUSH1 0x2 MUL DUP3 OR SWAP1 POP SWAP3 SWAP2 POP POP JUMP JUMPDEST PUSH2 0xF11 DUP3 PUSH2 0xBEF JUMP JUMPDEST PUSH8 0xFFFFFFFFFFFFFFFF DUP2 GT ISZERO PUSH2 0xF2A JUMPI PUSH2 0xF29 PUSH2 0x8E3 JUMP JUMPDEST JUMPDEST PUSH2 0xF34 DUP3 SLOAD PUSH2 0xD38 JUMP JUMPDEST PUSH2 0xF3F DUP3 DUP3 DUP6 PUSH2 0xE7F JUMP JUMPDEST PUSH0 PUSH1 0x20 SWAP1 POP PUSH1 0x1F DUP4 GT PUSH1 0x1 DUP2 EQ PUSH2 0xF70 JUMPI PUSH0 DUP5 ISZERO PUSH2 0xF5E JUMPI DUP3 DUP8 ADD MLOAD SWAP1 POP JUMPDEST PUSH2 0xF68 DUP6 DUP3 PUSH2 0xEED JUMP JUMPDEST DUP7 SSTORE POP PUSH2 0xFCF JUMP JUMPDEST PUSH1 0x1F NOT DUP5 AND PUSH2 0xF7E DUP7 PUSH2 0xD68 JUMP JUMPDEST PUSH0 JUMPDEST DUP3 DUP2 LT ISZERO PUSH2 0xFA5 JUMPI DUP5 DUP10 ADD MLOAD DUP3 SSTORE PUSH1 0x1 DUP3 ADD SWAP2 POP PUSH1 0x20 DUP6 ADD SWAP5 POP PUSH1 0x20 DUP2 ADD SWAP1 POP PUSH2 0xF80 JUMP JUMPDEST DUP7 DUP4 LT ISZERO PUSH2 0xFC2 JUMPI DUP5 DUP10 ADD MLOAD PUSH2 0xFBE PUSH1 0x1F DUP10 AND DUP3 PUSH2 0xED1 JUMP JUMPDEST DUP4 SSTORE POP JUMPDEST PUSH1 0x1 PUSH1 0x2 DUP9 MUL ADD DUP9 SSTORE POP POP POP JUMPDEST POP POP POP POP POP POP JUMP JUMPDEST PUSH0 DUP2 SWAP1 POP SWAP3 SWAP2 POP POP JUMP JUMPDEST PUSH0 PUSH2 0xFEB DUP3 PUSH2 0x7E5 JUMP JUMPDEST PUSH2 0xFF5 DUP2 DUP6 PUSH2 0xFD7 JUMP JUMPDEST SWAP4 POP PUSH2 0x1005 DUP2 DUP6 PUSH1 0x20 DUP7 ADD PUSH2 0x7FF JUMP JUMPDEST DUP1 DUP5 ADD SWAP2 POP POP SWAP3 SWAP2 POP POP JUMP JUMPDEST PUSH0 PUSH2 0x101C DUP3 DUP5 PUSH2 0xFE1 JUMP JUMPDEST SWAP2 POP DUP2 SWAP1 POP SWAP3 SWAP2 POP POP JUMP JUMPDEST PUSH0 DUP2 SWAP1 POP DUP2 PUSH0 MSTORE PUSH1 0x20 PUSH0 KECCAK256 SWAP1 POP SWAP2 SWAP1 POP JUMP JUMPDEST PUSH0 DUP2 SLOAD PUSH2 0x1045 DUP2 PUSH2 0xD38 JUMP JUMPDEST PUSH2 0x104F DUP2 DUP7 PUSH2 0xFD7 JUMP JUMPDEST SWAP5 POP PUSH1 0x1 DUP3 AND PUSH0 DUP2 EQ PUSH2 0x1069 JUMPI PUSH1 0x1 DUP2 EQ PUSH2 0x107E JUMPI PUSH2 0x10B0 JUMP JUMPDEST PUSH1 0xFF NOT DUP4 AND DUP7 MSTORE DUP2 ISZERO ISZERO DUP3 MUL DUP7 ADD SWAP4 POP PUSH2 0x10B0 JUMP JUMPDEST PUSH2 0x1087 DUP6 PUSH2 0x1027 JUMP JUMPDEST PUSH0 JUMPDEST DUP4 DUP2 LT ISZERO PUSH2 0x10A8 JUMPI DUP2 SLOAD DUP2 DUP10 ADD MSTORE PUSH1 0x1 DUP3 ADD SWAP2 POP PUSH1 0x20 DUP2 ADD SWAP1 POP PUSH2 0x1089 JUMP JUMPDEST DUP4 DUP9 ADD SWAP6 POP POP POP JUMPDEST POP POP POP SWAP3 SWAP2 POP POP JUMP JUMPDEST PUSH0 PUSH2 0x10C4 DUP3 DUP5 PUSH2 0x1039 JUMP JUMPDEST SWAP2 POP DUP2 SWAP1 POP SWAP3 SWAP2 POP POP JUMP JUMPDEST PUSH1 0x1F DUP3 GT ISZERO PUSH2 0x1110 JUMPI PUSH2 0x10E1 DUP2 PUSH2 0x1027 JUMP JUMPDEST PUSH2 0x10EA DUP5 PUSH2 0xD7A JUMP JUMPDEST DUP2 ADD PUSH1 0x20 DUP6 LT ISZERO PUSH2 0x10F9 JUMPI DUP2 SWAP1 POP JUMPDEST PUSH2 0x110D PUSH2 0x1105 DUP6 PUSH2 0xD7A JUMP JUMPDEST DUP4 ADD DUP3 PUSH2 0xE5D JUMP JUMPDEST POP POP JUMPDEST POP POP POP JUMP JUMPDEST PUSH2 0x111E DUP3 PUSH2 0x7E5 JUMP JUMPDEST PUSH8 0xFFFFFFFFFFFFFFFF DUP2 GT ISZERO PUSH2 0x1137 JUMPI PUSH2 0x1136 PUSH2 0x8E3 JUMP JUMPDEST JUMPDEST PUSH2 0x1141 DUP3 SLOAD PUSH2 0xD38 JUMP JUMPDEST PUSH2 0x114C DUP3 DUP3 DUP6 PUSH2 0x10CF JUMP JUMPDEST PUSH0 PUSH1 0x20 SWAP1 POP PUSH1 0x1F DUP4 GT PUSH1 0x1 DUP2 EQ PUSH2 0x117D JUMPI PUSH0 DUP5 ISZERO PUSH2 0x116B JUMPI DUP3 DUP8 ADD MLOAD SWAP1 POP JUMPDEST PUSH2 0x1175 DUP6 DUP3 PUSH2 0xEED JUMP JUMPDEST DUP7 SSTORE POP PUSH2 0x11DC JUMP JUMPDEST PUSH1 0x1F NOT DUP5 AND PUSH2 0x118B DUP7 PUSH2 0x1027 JUMP JUMPDEST PUSH0 JUMPDEST DUP3 DUP2 LT ISZERO PUSH2 0x11B2 JUMPI DUP5 DUP10 ADD MLOAD DUP3 SSTORE PUSH1 0x1 DUP3 ADD SWAP2 POP PUSH1 0x20 DUP6 ADD SWAP5 POP PUSH1 0x20 DUP2 ADD SWAP1 POP PUSH2 0x118D JUMP JUMPDEST DUP7 DUP4 LT ISZERO PUSH2 0x11CF JUMPI DUP5 DUP10 ADD MLOAD PUSH2 0x11CB PUSH1 0x1F DUP10 AND DUP3 PUSH2 0xED1 JUMP JUMPDEST DUP4 SSTORE POP JUMPDEST PUSH1 0x1 PUSH1 0x2 DUP9 MUL ADD DUP9 SSTORE POP POP POP JUMPDEST POP POP POP POP POP POP JUMP INVALID LOG2 PUSH5 0x6970667358 0x22 SLT KECCAK256 PUSH27 0x9C6FEE2B73E24DEAA70C4DC2139857313B640C147D111151658EBA SAR PUSH11 0xE45764736F6C634300081E STOP CALLER "
				},
				"gasEstimates": {
					"creation": {
						"codeDepositCost": "926800",
						"executionCost": "infinite",
						"totalCost": "infinite"
					},
					"external": {
						"compareTwoStrings(string)": "infinite",
						"getAddressBalance()": "5096",
						"incMyUint8()": "26785",
						"myAddress()": "2576",
						"myAddressMapping(address)": "2944",
						"myBool()": "2576",
						"myByte()": "infinite",
						"myMapping(uint256)": "2830",
						"myString()": "infinite",
						"myUint()": "2449",
						"myUint8()": "2488",
						"setAddress(address)": "24759",
						"setMyAddressToTrue()": "24585",
						"setMyBool(bool)": "24782",
						"setMyByte(bytes)": "infinite",
						"setMyString(string)": "infinite",
						"setMyUint(uint256)": "22581",
						"setValue(uint256)": "24766",
						"someAddress()": "2554",
						"updateSomeAddress()": "24497"
					}
				},
				"methodIdentifiers": {
					"compareTwoStrings(string)": "5ce25353",
					"getAddressBalance()": "75eb2ad1",
					"incMyUint8()": "354b7f2f",
					"myAddress()": "26b85ee1",
					"myAddressMapping(address)": "b92ba3b8",
					"myBool()": "6deecdbe",
					"myByte()": "e5f199b5",
					"myMapping(uint256)": "7c668844",
					"myString()": "492bfa18",
					"myUint()": "06540f7e",
					"myUint8()": "e2a4b2af",
					"setAddress(address)": "e30081a0",
					"setMyAddressToTrue()": "634899ce",
					"setMyBool(bool)": "eb1b30d9",
					"setMyByte(bytes)": "5a4a3313",
					"setMyString(string)": "82180568",
					"setMyUint(uint256)": "e492fd84",
					"setValue(uint256)": "55241077",
					"someAddress()": "18e5f16b",
					"updateSomeAddress()": "9b57e711"
				}
			},
			"storageLayout": {
				"storage": [
					{
						"astId": 3,
						"contract": "contracts/DataTypes.sol:DataTypes",
						"label": "myBool",
						"offset": 0,
						"slot": "0",
						"type": "t_bool"
					},
					{
						"astId": 15,
						"contract": "contracts/DataTypes.sol:DataTypes",
						"label": "myUint",
						"offset": 0,
						"slot": "1",
						"type": "t_uint256"
					},
					{
						"astId": 18,
						"contract": "contracts/DataTypes.sol:DataTypes",
						"label": "myUint8",
						"offset": 0,
						"slot": "2",
						"type": "t_uint8"
					},
					{
						"astId": 38,
						"contract": "contracts/DataTypes.sol:DataTypes",
						"label": "myString",
						"offset": 0,
						"slot": "3",
						"type": "t_string_storage"
					},
					{
						"astId": 73,
						"contract": "contracts/DataTypes.sol:DataTypes",
						"label": "myByte",
						"offset": 0,
						"slot": "4",
						"type": "t_bytes_storage"
					},
					{
						"astId": 85,
						"contract": "contracts/DataTypes.sol:DataTypes",
						"label": "myAddress",
						"offset": 0,
						"slot": "5",
						"type": "t_address"
					},
					{
						"astId": 106,
						"contract": "contracts/DataTypes.sol:DataTypes",
						"label": "someAddress",
						"offset": 0,
						"slot": "6",
						"type": "t_address"
					},
					{
						"astId": 119,
						"contract": "contracts/DataTypes.sol:DataTypes",
						"label": "myMapping",
						"offset": 0,
						"slot": "7",
						"type": "t_mapping(t_uint256,t_bool)"
					},
					{
						"astId": 123,
						"contract": "contracts/DataTypes.sol:DataTypes",
						"label": "myAddressMapping",
						"offset": 0,
						"slot": "8",
						"type": "t_mapping(t_address,t_bool)"
					}
				],
				"types": {
					"t_address": {
						"encoding": "inplace",
						"label": "address",
						"numberOfBytes": "20"
					},
					"t_bool": {
						"encoding": "inplace",
						"label": "bool",
						"numberOfBytes": "1"
					},
					"t_bytes_storage": {
						"encoding": "bytes",
						"label": "bytes",
						"numberOfBytes": "32"
					},
					"t_mapping(t_address,t_bool)": {
						"encoding": "mapping",
						"key": "t_address",
						"label": "mapping(address => bool)",
						"numberOfBytes": "32",
						"value": "t_bool"
					},
					"t_mapping(t_uint256,t_bool)": {
						"encoding": "mapping",
						"key": "t_uint256",
						"label": "mapping(uint256 => bool)",
						"numberOfBytes": "32",
						"value": "t_bool"
					},
					"t_string_storage": {
						"encoding": "bytes",
						"label": "string",
						"numberOfBytes": "32"
					},
					"t_uint256": {
						"encoding": "inplace",
						"label": "uint256",
						"numberOfBytes": "32"
					},
					"t_uint8": {
						"encoding": "inplace",
						"label": "uint8",
						"numberOfBytes": "1"
					}
				}
			},
			"userdoc": {
				"kind": "user",
				"methods": {},
				"version": 1
			}
		}
	}
}