{
	"contracts/Functions.sol": {
		"Functions": {
			"abi": [
				{
					"inputs": [
						{
							"internalType": "address",
							"name": "_someAddress",
							"type": "address"
						}
					],
					"stateMutability": "nonpayable",
					"type": "constructor"
				},
				{
					"inputs": [
						{
							"internalType": "uint256",
							"name": "a",
							"type": "uint256"
						},
						{
							"internalType": "uint256",
							"name": "b",
							"type": "uint256"
						}
					],
					"name": "getAddication",
					"outputs": [
						{
							"internalType": "uint256",
							"name": "",
							"type": "uint256"
						}
					],
					"stateMutability": "pure",
					"type": "function"
				},
				{
					"inputs": [],
					"name": "getMyStorageVariable",
					"outputs": [
						{
							"internalType": "uint256",
							"name": "",
							"type": "uint256"
						}
					],
					"stateMutability": "view",
					"type": "function"
				},
				{
					"inputs": [],
					"name": "myAddress",
					"outputs": [
						{
							"internalType": "address",
							"name": "",
							"type": "address"
						}
					],
					"stateMutability": "view",
					"type": "function"
				},
				{
					"inputs": [],
					"name": "myStorageVar",
					"outputs": [
						{
							"internalType": "uint256",
							"name": "",
							"type": "uint256"
						}
					],
					"stateMutability": "view",
					"type": "function"
				},
				{
					"inputs": [
						{
							"internalType": "address",
							"name": "_myaddress",
							"type": "address"
						}
					],
					"name": "setMyAddress",
					"outputs": [],
					"stateMutability": "nonpayable",
					"type": "function"
				},
				{
					"inputs": [],
					"name": "setMyAddressMsgSender",
					"outputs": [],
					"stateMutability": "nonpayable",
					"type": "function"
				},
				{
					"inputs": [
						{
							"internalType": "uint256",
							"name": "_newVar",
							"type": "uint256"
						}
					],
					"name": "setMyStorageVariable",
					"outputs": [],
					"stateMutability": "nonpayable",
					"type": "function"
				}
			],
			"devdoc": {
				"kind": "dev",
				"methods": {},
				"version": 1
			},
			"evm": {
				"assembly": "    /* \"contracts/Functions.sol\":57:858  contract Functions{... */\n  mstore(0x40, 0x80)\n    /* \"contracts/Functions.sol\":603:678  constructor(address _someAddress) {... */\n  callvalue\n  dup1\n  iszero\n  tag_1\n  jumpi\n  revert(0x00, 0x00)\ntag_1:\n  pop\n  mload(0x40)\n  sub(codesize, bytecodeSize)\n  dup1\n  bytecodeSize\n  dup4\n  codecopy\n  dup2\n  dup2\n  add\n  0x40\n  mstore\n  dup2\n  add\n  swap1\n  tag_2\n  swap2\n  swap1\n  tag_3\n  jump\t// in\ntag_2:\n    /* \"contracts/Functions.sol\":659:671  _someAddress */\n  dup1\n    /* \"contracts/Functions.sol\":647:656  myAddress */\n  0x01\n  0x00\n    /* \"contracts/Functions.sol\":647:671  myAddress = _someAddress */\n  0x0100\n  exp\n  dup2\n  sload\n  dup2\n  0xffffffffffffffffffffffffffffffffffffffff\n  mul\n  not\n  and\n  swap1\n  dup4\n  0xffffffffffffffffffffffffffffffffffffffff\n  and\n  mul\n  or\n  swap1\n  sstore\n  pop\n    /* \"contracts/Functions.sol\":603:678  constructor(address _someAddress) {... */\n  pop\n    /* \"contracts/Functions.sol\":57:858  contract Functions{... */\n  jump(tag_6)\n    /* \"#utility.yul\":88:205   */\ntag_8:\n    /* \"#utility.yul\":197:198   */\n  0x00\n    /* \"#utility.yul\":194:195   */\n  0x00\n    /* \"#utility.yul\":187:199   */\n  revert\n    /* \"#utility.yul\":334:460   */\ntag_10:\n    /* \"#utility.yul\":371:378   */\n  0x00\n    /* \"#utility.yul\":411:453   */\n  0xffffffffffffffffffffffffffffffffffffffff\n    /* \"#utility.yul\":404:409   */\n  dup3\n    /* \"#utility.yul\":400:454   */\n  and\n    /* \"#utility.yul\":389:454   */\n  swap1\n  pop\n    /* \"#utility.yul\":334:460   */\n  swap2\n  swap1\n  pop\n  jump\t// out\n    /* \"#utility.yul\":466:562   */\ntag_11:\n    /* \"#utility.yul\":503:510   */\n  0x00\n    /* \"#utility.yul\":532:556   */\n  tag_20\n    /* \"#utility.yul\":550:555   */\n  dup3\n    /* \"#utility.yul\":532:556   */\n  tag_10\n  jump\t// in\ntag_20:\n    /* \"#utility.yul\":521:556   */\n  swap1\n  pop\n    /* \"#utility.yul\":466:562   */\n  swap2\n  swap1\n  pop\n  jump\t// out\n    /* \"#utility.yul\":568:690   */\ntag_12:\n    /* \"#utility.yul\":641:665   */\n  tag_22\n    /* \"#utility.yul\":659:664   */\n  dup2\n    /* \"#utility.yul\":641:665   */\n  tag_11\n  jump\t// in\ntag_22:\n    /* \"#utility.yul\":634:639   */\n  dup2\n    /* \"#utility.yul\":631:666   */\n  eq\n    /* \"#utility.yul\":621:684   */\n  tag_23\n  jumpi\n    /* \"#utility.yul\":680:681   */\n  0x00\n    /* \"#utility.yul\":677:678   */\n  0x00\n    /* \"#utility.yul\":670:682   */\n  revert\n    /* \"#utility.yul\":621:684   */\ntag_23:\n    /* \"#utility.yul\":568:690   */\n  pop\n  jump\t// out\n    /* \"#utility.yul\":696:839   */\ntag_13:\n    /* \"#utility.yul\":753:758   */\n  0x00\n    /* \"#utility.yul\":784:790   */\n  dup2\n    /* \"#utility.yul\":778:791   */\n  mload\n    /* \"#utility.yul\":769:791   */\n  swap1\n  pop\n    /* \"#utility.yul\":800:833   */\n  tag_25\n    /* \"#utility.yul\":827:832   */\n  dup2\n    /* \"#utility.yul\":800:833   */\n  tag_12\n  jump\t// in\ntag_25:\n    /* \"#utility.yul\":696:839   */\n  swap3\n  swap2\n  pop\n  pop\n  jump\t// out\n    /* \"#utility.yul\":845:1196   */\ntag_3:\n    /* \"#utility.yul\":915:921   */\n  0x00\n    /* \"#utility.yul\":964:966   */\n  0x20\n    /* \"#utility.yul\":952:961   */\n  dup3\n    /* \"#utility.yul\":943:950   */\n  dup5\n    /* \"#utility.yul\":939:962   */\n  sub\n    /* \"#utility.yul\":935:967   */\n  slt\n    /* \"#utility.yul\":932:1051   */\n  iszero\n  tag_27\n  jumpi\n    /* \"#utility.yul\":970:1049   */\n  tag_28\n  tag_8\n  jump\t// in\ntag_28:\n    /* \"#utility.yul\":932:1051   */\ntag_27:\n    /* \"#utility.yul\":1090:1091   */\n  0x00\n    /* \"#utility.yul\":1115:1179   */\n  tag_29\n    /* \"#utility.yul\":1171:1178   */\n  dup5\n    /* \"#utility.yul\":1162:1168   */\n  dup3\n    /* \"#utility.yul\":1151:1160   */\n  dup6\n    /* \"#utility.yul\":1147:1169   */\n  add\n    /* \"#utility.yul\":1115:1179   */\n  tag_13\n  jump\t// in\ntag_29:\n    /* \"#utility.yul\":1105:1179   */\n  swap2\n  pop\n    /* \"#utility.yul\":1061:1189   */\n  pop\n    /* \"#utility.yul\":845:1196   */\n  swap3\n  swap2\n  pop\n  pop\n  jump\t// out\n    /* \"contracts/Functions.sol\":57:858  contract Functions{... */\ntag_6:\n  dataSize(sub_0)\n  dup1\n  dataOffset(sub_0)\n  0x00\n  codecopy\n  0x00\n  return\nstop\n\nsub_0: assembly {\n        /* \"contracts/Functions.sol\":57:858  contract Functions{... */\n      mstore(0x40, 0x80)\n      callvalue\n      dup1\n      iszero\n      tag_1\n      jumpi\n      revert(0x00, 0x00)\n    tag_1:\n      pop\n      jumpi(tag_2, lt(calldatasize, 0x04))\n      shr(0xe0, calldataload(0x00))\n      dup1\n      0x87636dd0\n      gt\n      tag_10\n      jumpi\n      dup1\n      0x87636dd0\n      eq\n      tag_6\n      jumpi\n      dup1\n      0xa8a7b895\n      eq\n      tag_7\n      jumpi\n      dup1\n      0xe48d59d9\n      eq\n      tag_8\n      jumpi\n      dup1\n      0xff8737de\n      eq\n      tag_9\n      jumpi\n      jump(tag_2)\n    tag_10:\n      dup1\n      0x26b85ee1\n      eq\n      tag_3\n      jumpi\n      dup1\n      0x3993f549\n      eq\n      tag_4\n      jumpi\n      dup1\n      0x5f6a36da\n      eq\n      tag_5\n      jumpi\n    tag_2:\n      revert(0x00, 0x00)\n        /* \"contracts/Functions.sol\":572:596  address public myAddress */\n    tag_3:\n      tag_11\n      tag_12\n      jump\t// in\n    tag_11:\n      mload(0x40)\n      tag_13\n      swap2\n      swap1\n      tag_14\n      jump\t// in\n    tag_13:\n      mload(0x40)\n      dup1\n      swap2\n      sub\n      swap1\n      return\n        /* \"contracts/Functions.sol\":358:451  function getAddication(uint a, uint b) public pure returns (uint) {... */\n    tag_4:\n      tag_15\n      0x04\n      dup1\n      calldatasize\n      sub\n      dup2\n      add\n      swap1\n      tag_16\n      swap2\n      swap1\n      tag_17\n      jump\t// in\n    tag_16:\n      tag_18\n      jump\t// in\n    tag_15:\n      mload(0x40)\n      tag_19\n      swap2\n      swap1\n      tag_20\n      jump\t// in\n    tag_19:\n      mload(0x40)\n      dup1\n      swap2\n      sub\n      swap1\n      return\n        /* \"contracts/Functions.sol\":258:352  function getMyStorageVariable() public view returns(uint) {... */\n    tag_5:\n      tag_21\n      tag_22\n      jump\t// in\n    tag_21:\n      mload(0x40)\n      tag_23\n      swap2\n      swap1\n      tag_20\n      jump\t// in\n    tag_23:\n      mload(0x40)\n      dup1\n      swap2\n      sub\n      swap1\n      return\n        /* \"contracts/Functions.sol\":227:251  uint public myStorageVar */\n    tag_6:\n      tag_24\n      tag_25\n      jump\t// in\n    tag_24:\n      mload(0x40)\n      tag_26\n      swap2\n      swap1\n      tag_20\n      jump\t// in\n    tag_26:\n      mload(0x40)\n      dup1\n      swap2\n      sub\n      swap1\n      return\n        /* \"contracts/Functions.sol\":683:771  function setMyAddress(address _myaddress) public {... */\n    tag_7:\n      tag_27\n      0x04\n      dup1\n      calldatasize\n      sub\n      dup2\n      add\n      swap1\n      tag_28\n      swap2\n      swap1\n      tag_29\n      jump\t// in\n    tag_28:\n      tag_30\n      jump\t// in\n    tag_27:\n      stop\n        /* \"contracts/Functions.sol\":457:547  function setMyStorageVariable(uint _newVar) public {... */\n    tag_8:\n      tag_31\n      0x04\n      dup1\n      calldatasize\n      sub\n      dup2\n      add\n      swap1\n      tag_32\n      swap2\n      swap1\n      tag_33\n      jump\t// in\n    tag_32:\n      tag_34\n      jump\t// in\n    tag_31:\n      stop\n        /* \"contracts/Functions.sol\":777:856  function setMyAddressMsgSender() public {... */\n    tag_9:\n      tag_35\n      tag_36\n      jump\t// in\n    tag_35:\n      stop\n        /* \"contracts/Functions.sol\":572:596  address public myAddress */\n    tag_12:\n      0x01\n      0x00\n      swap1\n      sload\n      swap1\n      0x0100\n      exp\n      swap1\n      div\n      0xffffffffffffffffffffffffffffffffffffffff\n      and\n      dup2\n      jump\t// out\n        /* \"contracts/Functions.sol\":358:451  function getAddication(uint a, uint b) public pure returns (uint) {... */\n    tag_18:\n        /* \"contracts/Functions.sol\":418:422  uint */\n      0x00\n        /* \"contracts/Functions.sol\":443:444  b */\n      dup2\n        /* \"contracts/Functions.sol\":441:442  a */\n      dup4\n        /* \"contracts/Functions.sol\":441:444  a+b */\n      tag_38\n      swap2\n      swap1\n      tag_39\n      jump\t// in\n    tag_38:\n        /* \"contracts/Functions.sol\":434:444  return a+b */\n      swap1\n      pop\n        /* \"contracts/Functions.sol\":358:451  function getAddication(uint a, uint b) public pure returns (uint) {... */\n      swap3\n      swap2\n      pop\n      pop\n      jump\t// out\n        /* \"contracts/Functions.sol\":258:352  function getMyStorageVariable() public view returns(uint) {... */\n    tag_22:\n        /* \"contracts/Functions.sol\":310:314  uint */\n      0x00\n        /* \"contracts/Functions.sol\":333:345  myStorageVar */\n      sload(0x00)\n        /* \"contracts/Functions.sol\":326:345  return myStorageVar */\n      swap1\n      pop\n        /* \"contracts/Functions.sol\":258:352  function getMyStorageVariable() public view returns(uint) {... */\n      swap1\n      jump\t// out\n        /* \"contracts/Functions.sol\":227:251  uint public myStorageVar */\n    tag_25:\n      sload(0x00)\n      dup2\n      jump\t// out\n        /* \"contracts/Functions.sol\":683:771  function setMyAddress(address _myaddress) public {... */\n    tag_30:\n        /* \"contracts/Functions.sol\":754:764  _myaddress */\n      dup1\n        /* \"contracts/Functions.sol\":742:751  myAddress */\n      0x01\n      0x00\n        /* \"contracts/Functions.sol\":742:764  myAddress = _myaddress */\n      0x0100\n      exp\n      dup2\n      sload\n      dup2\n      0xffffffffffffffffffffffffffffffffffffffff\n      mul\n      not\n      and\n      swap1\n      dup4\n      0xffffffffffffffffffffffffffffffffffffffff\n      and\n      mul\n      or\n      swap1\n      sstore\n      pop\n        /* \"contracts/Functions.sol\":683:771  function setMyAddress(address _myaddress) public {... */\n      pop\n      jump\t// out\n        /* \"contracts/Functions.sol\":457:547  function setMyStorageVariable(uint _newVar) public {... */\n    tag_34:\n        /* \"contracts/Functions.sol\":533:540  _newVar */\n      dup1\n        /* \"contracts/Functions.sol\":518:530  myStorageVar */\n      0x00\n        /* \"contracts/Functions.sol\":518:540  myStorageVar = _newVar */\n      dup2\n      swap1\n      sstore\n      pop\n        /* \"contracts/Functions.sol\":457:547  function setMyStorageVariable(uint _newVar) public {... */\n      pop\n      jump\t// out\n        /* \"contracts/Functions.sol\":777:856  function setMyAddressMsgSender() public {... */\n    tag_36:\n        /* \"contracts/Functions.sol\":839:849  msg.sender */\n      caller\n        /* \"contracts/Functions.sol\":827:836  myAddress */\n      0x01\n      0x00\n        /* \"contracts/Functions.sol\":827:849  myAddress = msg.sender */\n      0x0100\n      exp\n      dup2\n      sload\n      dup2\n      0xffffffffffffffffffffffffffffffffffffffff\n      mul\n      not\n      and\n      swap1\n      dup4\n      0xffffffffffffffffffffffffffffffffffffffff\n      and\n      mul\n      or\n      swap1\n      sstore\n      pop\n        /* \"contracts/Functions.sol\":777:856  function setMyAddressMsgSender() public {... */\n      jump\t// out\n        /* \"#utility.yul\":7:133   */\n    tag_44:\n        /* \"#utility.yul\":44:51   */\n      0x00\n        /* \"#utility.yul\":84:126   */\n      0xffffffffffffffffffffffffffffffffffffffff\n        /* \"#utility.yul\":77:82   */\n      dup3\n        /* \"#utility.yul\":73:127   */\n      and\n        /* \"#utility.yul\":62:127   */\n      swap1\n      pop\n        /* \"#utility.yul\":7:133   */\n      swap2\n      swap1\n      pop\n      jump\t// out\n        /* \"#utility.yul\":139:235   */\n    tag_45:\n        /* \"#utility.yul\":176:183   */\n      0x00\n        /* \"#utility.yul\":205:229   */\n      tag_60\n        /* \"#utility.yul\":223:228   */\n      dup3\n        /* \"#utility.yul\":205:229   */\n      tag_44\n      jump\t// in\n    tag_60:\n        /* \"#utility.yul\":194:229   */\n      swap1\n      pop\n        /* \"#utility.yul\":139:235   */\n      swap2\n      swap1\n      pop\n      jump\t// out\n        /* \"#utility.yul\":241:359   */\n    tag_46:\n        /* \"#utility.yul\":328:352   */\n      tag_62\n        /* \"#utility.yul\":346:351   */\n      dup2\n        /* \"#utility.yul\":328:352   */\n      tag_45\n      jump\t// in\n    tag_62:\n        /* \"#utility.yul\":323:326   */\n      dup3\n        /* \"#utility.yul\":316:353   */\n      mstore\n        /* \"#utility.yul\":241:359   */\n      pop\n      pop\n      jump\t// out\n        /* \"#utility.yul\":365:587   */\n    tag_14:\n        /* \"#utility.yul\":458:462   */\n      0x00\n        /* \"#utility.yul\":496:498   */\n      0x20\n        /* \"#utility.yul\":485:494   */\n      dup3\n        /* \"#utility.yul\":481:499   */\n      add\n        /* \"#utility.yul\":473:499   */\n      swap1\n      pop\n        /* \"#utility.yul\":509:580   */\n      tag_64\n        /* \"#utility.yul\":577:578   */\n      0x00\n        /* \"#utility.yul\":566:575   */\n      dup4\n        /* \"#utility.yul\":562:579   */\n      add\n        /* \"#utility.yul\":553:559   */\n      dup5\n        /* \"#utility.yul\":509:580   */\n      tag_46\n      jump\t// in\n    tag_64:\n        /* \"#utility.yul\":365:587   */\n      swap3\n      swap2\n      pop\n      pop\n      jump\t// out\n        /* \"#utility.yul\":674:791   */\n    tag_48:\n        /* \"#utility.yul\":783:784   */\n      0x00\n        /* \"#utility.yul\":780:781   */\n      0x00\n        /* \"#utility.yul\":773:785   */\n      revert\n        /* \"#utility.yul\":920:997   */\n    tag_50:\n        /* \"#utility.yul\":957:964   */\n      0x00\n        /* \"#utility.yul\":986:991   */\n      dup2\n        /* \"#utility.yul\":975:991   */\n      swap1\n      pop\n        /* \"#utility.yul\":920:997   */\n      swap2\n      swap1\n      pop\n      jump\t// out\n        /* \"#utility.yul\":1003:1125   */\n    tag_51:\n        /* \"#utility.yul\":1076:1100   */\n      tag_70\n        /* \"#utility.yul\":1094:1099   */\n      dup2\n        /* \"#utility.yul\":1076:1100   */\n      tag_50\n      jump\t// in\n    tag_70:\n        /* \"#utility.yul\":1069:1074   */\n      dup2\n        /* \"#utility.yul\":1066:1101   */\n      eq\n        /* \"#utility.yul\":1056:1119   */\n      tag_71\n      jumpi\n        /* \"#utility.yul\":1115:1116   */\n      0x00\n        /* \"#utility.yul\":1112:1113   */\n      0x00\n        /* \"#utility.yul\":1105:1117   */\n      revert\n        /* \"#utility.yul\":1056:1119   */\n    tag_71:\n        /* \"#utility.yul\":1003:1125   */\n      pop\n      jump\t// out\n        /* \"#utility.yul\":1131:1270   */\n    tag_52:\n        /* \"#utility.yul\":1177:1182   */\n      0x00\n        /* \"#utility.yul\":1215:1221   */\n      dup2\n        /* \"#utility.yul\":1202:1222   */\n      calldataload\n        /* \"#utility.yul\":1193:1222   */\n      swap1\n      pop\n        /* \"#utility.yul\":1231:1264   */\n      tag_73\n        /* \"#utility.yul\":1258:1263   */\n      dup2\n        /* \"#utility.yul\":1231:1264   */\n      tag_51\n      jump\t// in\n    tag_73:\n        /* \"#utility.yul\":1131:1270   */\n      swap3\n      swap2\n      pop\n      pop\n      jump\t// out\n        /* \"#utility.yul\":1276:1750   */\n    tag_17:\n        /* \"#utility.yul\":1344:1350   */\n      0x00\n        /* \"#utility.yul\":1352:1358   */\n      0x00\n        /* \"#utility.yul\":1401:1403   */\n      0x40\n        /* \"#utility.yul\":1389:1398   */\n      dup4\n        /* \"#utility.yul\":1380:1387   */\n      dup6\n        /* \"#utility.yul\":1376:1399   */\n      sub\n        /* \"#utility.yul\":1372:1404   */\n      slt\n        /* \"#utility.yul\":1369:1488   */\n      iszero\n      tag_75\n      jumpi\n        /* \"#utility.yul\":1407:1486   */\n      tag_76\n      tag_48\n      jump\t// in\n    tag_76:\n        /* \"#utility.yul\":1369:1488   */\n    tag_75:\n        /* \"#utility.yul\":1527:1528   */\n      0x00\n        /* \"#utility.yul\":1552:1605   */\n      tag_77\n        /* \"#utility.yul\":1597:1604   */\n      dup6\n        /* \"#utility.yul\":1588:1594   */\n      dup3\n        /* \"#utility.yul\":1577:1586   */\n      dup7\n        /* \"#utility.yul\":1573:1595   */\n      add\n        /* \"#utility.yul\":1552:1605   */\n      tag_52\n      jump\t// in\n    tag_77:\n        /* \"#utility.yul\":1542:1605   */\n      swap3\n      pop\n        /* \"#utility.yul\":1498:1615   */\n      pop\n        /* \"#utility.yul\":1654:1656   */\n      0x20\n        /* \"#utility.yul\":1680:1733   */\n      tag_78\n        /* \"#utility.yul\":1725:1732   */\n      dup6\n        /* \"#utility.yul\":1716:1722   */\n      dup3\n        /* \"#utility.yul\":1705:1714   */\n      dup7\n        /* \"#utility.yul\":1701:1723   */\n      add\n        /* \"#utility.yul\":1680:1733   */\n      tag_52\n      jump\t// in\n    tag_78:\n        /* \"#utility.yul\":1670:1733   */\n      swap2\n      pop\n        /* \"#utility.yul\":1625:1743   */\n      pop\n        /* \"#utility.yul\":1276:1750   */\n      swap3\n      pop\n      swap3\n      swap1\n      pop\n      jump\t// out\n        /* \"#utility.yul\":1756:1874   */\n    tag_53:\n        /* \"#utility.yul\":1843:1867   */\n      tag_80\n        /* \"#utility.yul\":1861:1866   */\n      dup2\n        /* \"#utility.yul\":1843:1867   */\n      tag_50\n      jump\t// in\n    tag_80:\n        /* \"#utility.yul\":1838:1841   */\n      dup3\n        /* \"#utility.yul\":1831:1868   */\n      mstore\n        /* \"#utility.yul\":1756:1874   */\n      pop\n      pop\n      jump\t// out\n        /* \"#utility.yul\":1880:2102   */\n    tag_20:\n        /* \"#utility.yul\":1973:1977   */\n      0x00\n        /* \"#utility.yul\":2011:2013   */\n      0x20\n        /* \"#utility.yul\":2000:2009   */\n      dup3\n        /* \"#utility.yul\":1996:2014   */\n      add\n        /* \"#utility.yul\":1988:2014   */\n      swap1\n      pop\n        /* \"#utility.yul\":2024:2095   */\n      tag_82\n        /* \"#utility.yul\":2092:2093   */\n      0x00\n        /* \"#utility.yul\":2081:2090   */\n      dup4\n        /* \"#utility.yul\":2077:2094   */\n      add\n        /* \"#utility.yul\":2068:2074   */\n      dup5\n        /* \"#utility.yul\":2024:2095   */\n      tag_53\n      jump\t// in\n    tag_82:\n        /* \"#utility.yul\":1880:2102   */\n      swap3\n      swap2\n      pop\n      pop\n      jump\t// out\n        /* \"#utility.yul\":2108:2230   */\n    tag_54:\n        /* \"#utility.yul\":2181:2205   */\n      tag_84\n        /* \"#utility.yul\":2199:2204   */\n      dup2\n        /* \"#utility.yul\":2181:2205   */\n      tag_45\n      jump\t// in\n    tag_84:\n        /* \"#utility.yul\":2174:2179   */\n      dup2\n        /* \"#utility.yul\":2171:2206   */\n      eq\n        /* \"#utility.yul\":2161:2224   */\n      tag_85\n      jumpi\n        /* \"#utility.yul\":2220:2221   */\n      0x00\n        /* \"#utility.yul\":2217:2218   */\n      0x00\n        /* \"#utility.yul\":2210:2222   */\n      revert\n        /* \"#utility.yul\":2161:2224   */\n    tag_85:\n        /* \"#utility.yul\":2108:2230   */\n      pop\n      jump\t// out\n        /* \"#utility.yul\":2236:2375   */\n    tag_55:\n        /* \"#utility.yul\":2282:2287   */\n      0x00\n        /* \"#utility.yul\":2320:2326   */\n      dup2\n        /* \"#utility.yul\":2307:2327   */\n      calldataload\n        /* \"#utility.yul\":2298:2327   */\n      swap1\n      pop\n        /* \"#utility.yul\":2336:2369   */\n      tag_87\n        /* \"#utility.yul\":2363:2368   */\n      dup2\n        /* \"#utility.yul\":2336:2369   */\n      tag_54\n      jump\t// in\n    tag_87:\n        /* \"#utility.yul\":2236:2375   */\n      swap3\n      swap2\n      pop\n      pop\n      jump\t// out\n        /* \"#utility.yul\":2381:2710   */\n    tag_29:\n        /* \"#utility.yul\":2440:2446   */\n      0x00\n        /* \"#utility.yul\":2489:2491   */\n      0x20\n        /* \"#utility.yul\":2477:2486   */\n      dup3\n        /* \"#utility.yul\":2468:2475   */\n      dup5\n        /* \"#utility.yul\":2464:2487   */\n      sub\n        /* \"#utility.yul\":2460:2492   */\n      slt\n        /* \"#utility.yul\":2457:2576   */\n      iszero\n      tag_89\n      jumpi\n        /* \"#utility.yul\":2495:2574   */\n      tag_90\n      tag_48\n      jump\t// in\n    tag_90:\n        /* \"#utility.yul\":2457:2576   */\n    tag_89:\n        /* \"#utility.yul\":2615:2616   */\n      0x00\n        /* \"#utility.yul\":2640:2693   */\n      tag_91\n        /* \"#utility.yul\":2685:2692   */\n      dup5\n        /* \"#utility.yul\":2676:2682   */\n      dup3\n        /* \"#utility.yul\":2665:2674   */\n      dup6\n        /* \"#utility.yul\":2661:2683   */\n      add\n        /* \"#utility.yul\":2640:2693   */\n      tag_55\n      jump\t// in\n    tag_91:\n        /* \"#utility.yul\":2630:2693   */\n      swap2\n      pop\n        /* \"#utility.yul\":2586:2703   */\n      pop\n        /* \"#utility.yul\":2381:2710   */\n      swap3\n      swap2\n      pop\n      pop\n      jump\t// out\n        /* \"#utility.yul\":2716:3045   */\n    tag_33:\n        /* \"#utility.yul\":2775:2781   */\n      0x00\n        /* \"#utility.yul\":2824:2826   */\n      0x20\n        /* \"#utility.yul\":2812:2821   */\n      dup3\n        /* \"#utility.yul\":2803:2810   */\n      dup5\n        /* \"#utility.yul\":2799:2822   */\n      sub\n        /* \"#utility.yul\":2795:2827   */\n      slt\n        /* \"#utility.yul\":2792:2911   */\n      iszero\n      tag_93\n      jumpi\n        /* \"#utility.yul\":2830:2909   */\n      tag_94\n      tag_48\n      jump\t// in\n    tag_94:\n        /* \"#utility.yul\":2792:2911   */\n    tag_93:\n        /* \"#utility.yul\":2950:2951   */\n      0x00\n        /* \"#utility.yul\":2975:3028   */\n      tag_95\n        /* \"#utility.yul\":3020:3027   */\n      dup5\n        /* \"#utility.yul\":3011:3017   */\n      dup3\n        /* \"#utility.yul\":3000:3009   */\n      dup6\n        /* \"#utility.yul\":2996:3018   */\n      add\n        /* \"#utility.yul\":2975:3028   */\n      tag_52\n      jump\t// in\n    tag_95:\n        /* \"#utility.yul\":2965:3028   */\n      swap2\n      pop\n        /* \"#utility.yul\":2921:3038   */\n      pop\n        /* \"#utility.yul\":2716:3045   */\n      swap3\n      swap2\n      pop\n      pop\n      jump\t// out\n        /* \"#utility.yul\":3051:3231   */\n    tag_56:\n        /* \"#utility.yul\":3099:3176   */\n      0x4e487b7100000000000000000000000000000000000000000000000000000000\n        /* \"#utility.yul\":3096:3097   */\n      0x00\n        /* \"#utility.yul\":3089:3177   */\n      mstore\n        /* \"#utility.yul\":3196:3200   */\n      0x11\n        /* \"#utility.yul\":3193:3194   */\n      0x04\n        /* \"#utility.yul\":3186:3201   */\n      mstore\n        /* \"#utility.yul\":3220:3224   */\n      0x24\n        /* \"#utility.yul\":3217:3218   */\n      0x00\n        /* \"#utility.yul\":3210:3225   */\n      revert\n        /* \"#utility.yul\":3237:3428   */\n    tag_39:\n        /* \"#utility.yul\":3277:3280   */\n      0x00\n        /* \"#utility.yul\":3296:3316   */\n      tag_98\n        /* \"#utility.yul\":3314:3315   */\n      dup3\n        /* \"#utility.yul\":3296:3316   */\n      tag_50\n      jump\t// in\n    tag_98:\n        /* \"#utility.yul\":3291:3316   */\n      swap2\n      pop\n        /* \"#utility.yul\":3330:3350   */\n      tag_99\n        /* \"#utility.yul\":3348:3349   */\n      dup4\n        /* \"#utility.yul\":3330:3350   */\n      tag_50\n      jump\t// in\n    tag_99:\n        /* \"#utility.yul\":3325:3350   */\n      swap3\n      pop\n        /* \"#utility.yul\":3373:3374   */\n      dup3\n        /* \"#utility.yul\":3370:3371   */\n      dup3\n        /* \"#utility.yul\":3366:3375   */\n      add\n        /* \"#utility.yul\":3359:3375   */\n      swap1\n      pop\n        /* \"#utility.yul\":3394:3397   */\n      dup1\n        /* \"#utility.yul\":3391:3392   */\n      dup3\n        /* \"#utility.yul\":3388:3398   */\n      gt\n        /* \"#utility.yul\":3385:3421   */\n      iszero\n      tag_100\n      jumpi\n        /* \"#utility.yul\":3401:3419   */\n      tag_101\n      tag_56\n      jump\t// in\n    tag_101:\n        /* \"#utility.yul\":3385:3421   */\n    tag_100:\n        /* \"#utility.yul\":3237:3428   */\n      swap3\n      swap2\n      pop\n      pop\n      jump\t// out\n\n    auxdata: 0xa2646970667358221220eb7a9c382f8b6e97253167c210ffc5968b2fd006e61b6dec85c3b52cee04181064736f6c634300081e0033\n}\n",
				"bytecode": {
					"linkReferences": {},
					"object": "608060405234801561000f575f5ffd5b50604051610538380380610538833981810160405281019061003191906100d5565b8060015f6101000a81548173ffffffffffffffffffffffffffffffffffffffff021916908373ffffffffffffffffffffffffffffffffffffffff16021790555050610100565b5f5ffd5b5f73ffffffffffffffffffffffffffffffffffffffff82169050919050565b5f6100a48261007b565b9050919050565b6100b48161009a565b81146100be575f5ffd5b50565b5f815190506100cf816100ab565b92915050565b5f602082840312156100ea576100e9610077565b5b5f6100f7848285016100c1565b91505092915050565b61042b8061010d5f395ff3fe608060405234801561000f575f5ffd5b506004361061007b575f3560e01c806387636dd01161005957806387636dd0146100eb578063a8a7b89514610109578063e48d59d914610125578063ff8737de146101415761007b565b806326b85ee11461007f5780633993f5491461009d5780635f6a36da146100cd575b5f5ffd5b61008761014b565b604051610094919061025f565b60405180910390f35b6100b760048036038101906100b291906102af565b610170565b6040516100c491906102fc565b60405180910390f35b6100d5610185565b6040516100e291906102fc565b60405180910390f35b6100f361018d565b60405161010091906102fc565b60405180910390f35b610123600480360381019061011e919061033f565b610192565b005b61013f600480360381019061013a919061036a565b6101d5565b005b6101496101de565b005b60015f9054906101000a900473ffffffffffffffffffffffffffffffffffffffff1681565b5f818361017d91906103c2565b905092915050565b5f5f54905090565b5f5481565b8060015f6101000a81548173ffffffffffffffffffffffffffffffffffffffff021916908373ffffffffffffffffffffffffffffffffffffffff16021790555050565b805f8190555050565b3360015f6101000a81548173ffffffffffffffffffffffffffffffffffffffff021916908373ffffffffffffffffffffffffffffffffffffffff160217905550565b5f73ffffffffffffffffffffffffffffffffffffffff82169050919050565b5f61024982610220565b9050919050565b6102598161023f565b82525050565b5f6020820190506102725f830184610250565b92915050565b5f5ffd5b5f819050919050565b61028e8161027c565b8114610298575f5ffd5b50565b5f813590506102a981610285565b92915050565b5f5f604083850312156102c5576102c4610278565b5b5f6102d28582860161029b565b92505060206102e38582860161029b565b9150509250929050565b6102f68161027c565b82525050565b5f60208201905061030f5f8301846102ed565b92915050565b61031e8161023f565b8114610328575f5ffd5b50565b5f8135905061033981610315565b92915050565b5f6020828403121561035457610353610278565b5b5f6103618482850161032b565b91505092915050565b5f6020828403121561037f5761037e610278565b5b5f61038c8482850161029b565b91505092915050565b7f4e487b71000000000000000000000000000000000000000000000000000000005f52601160045260245ffd5b5f6103cc8261027c565b91506103d78361027c565b92508282019050808211156103ef576103ee610395565b5b9291505056fea2646970667358221220eb7a9c382f8b6e97253167c210ffc5968b2fd006e61b6dec85c3b52cee04181064736f6c634300081e0033",
					"opcodes": "PUSH1 0x80 PUSH1 0x40 MSTORE CALLVALUE DUP1 ISZERO PUSH2 0xF JUMPI PUSH0 PUSH0 REVERT JUMPDEST POP PUSH1 0x40 MLOAD PUSH2 0x538 CODESIZE SUB DUP1 PUSH2 0x538 DUP4 CODECOPY DUP2 DUP2 ADD PUSH1 0x40 MSTORE DUP2 ADD SWAP1 PUSH2 0x31 SWAP2 SWAP1 PUSH2 0xD5 JUMP JUMPDEST DUP1 PUSH1 0x1 PUSH0 PUSH2 0x100 EXP DUP2 SLOAD DUP2 PUSH20 0xFFFFFFFFFFFFFFFFFFFFFFFFFFFFFFFFFFFFFFFF MUL NOT AND SWAP1 DUP4 PUSH20 0xFFFFFFFFFFFFFFFFFFFFFFFFFFFFFFFFFFFFFFFF AND MUL OR SWAP1 SSTORE POP POP PUSH2 0x100 JUMP JUMPDEST PUSH0 PUSH0 REVERT JUMPDEST PUSH0 PUSH20 0xFFFFFFFFFFFFFFFFFFFFFFFFFFFFFFFFFFFFFFFF DUP3 AND SWAP1 POP SWAP2 SWAP1 POP JUMP JUMPDEST PUSH0 PUSH2 0xA4 DUP3 PUSH2 0x7B JUMP JUMPDEST SWAP1 POP SWAP2 SWAP1 POP JUMP JUMPDEST PUSH2 0xB4 DUP2 PUSH2 0x9A JUMP JUMPDEST DUP2 EQ PUSH2 0xBE JUMPI PUSH0 PUSH0 REVERT JUMPDEST POP JUMP JUMPDEST PUSH0 DUP2 MLOAD SWAP1 POP PUSH2 0xCF DUP2 PUSH2 0xAB JUMP JUMPDEST SWAP3 SWAP2 POP POP JUMP JUMPDEST PUSH0 PUSH1 0x20 DUP3 DUP5 SUB SLT ISZERO PUSH2 0xEA JUMPI PUSH2 0xE9 PUSH2 0x77 JUMP JUMPDEST JUMPDEST PUSH0 PUSH2 0xF7 DUP5 DUP3 DUP6 ADD PUSH2 0xC1 JUMP JUMPDEST SWAP2 POP POP SWAP3 SWAP2 POP POP JUMP JUMPDEST PUSH2 0x42B DUP1 PUSH2 0x10D PUSH0 CODECOPY PUSH0 RETURN INVALID PUSH1 0x80 PUSH1 0x40 MSTORE CALLVALUE DUP1 ISZERO PUSH2 0xF JUMPI PUSH0 PUSH0 REVERT JUMPDEST POP PUSH1 0x4 CALLDATASIZE LT PUSH2 0x7B JUMPI PUSH0 CALLDATALOAD PUSH1 0xE0 SHR DUP1 PUSH4 0x87636DD0 GT PUSH2 0x59 JUMPI DUP1 PUSH4 0x87636DD0 EQ PUSH2 0xEB JUMPI DUP1 PUSH4 0xA8A7B895 EQ PUSH2 0x109 JUMPI DUP1 PUSH4 0xE48D59D9 EQ PUSH2 0x125 JUMPI DUP1 PUSH4 0xFF8737DE EQ PUSH2 0x141 JUMPI PUSH2 0x7B JUMP JUMPDEST DUP1 PUSH4 0x26B85EE1 EQ PUSH2 0x7F JUMPI DUP1 PUSH4 0x3993F549 EQ PUSH2 0x9D JUMPI DUP1 PUSH4 0x5F6A36DA EQ PUSH2 0xCD JUMPI JUMPDEST PUSH0 PUSH0 REVERT JUMPDEST PUSH2 0x87 PUSH2 0x14B JUMP JUMPDEST PUSH1 0x40 MLOAD PUSH2 0x94 SWAP2 SWAP1 PUSH2 0x25F JUMP JUMPDEST PUSH1 0x40 MLOAD DUP1 SWAP2 SUB SWAP1 RETURN JUMPDEST PUSH2 0xB7 PUSH1 0x4 DUP1 CALLDATASIZE SUB DUP2 ADD SWAP1 PUSH2 0xB2 SWAP2 SWAP1 PUSH2 0x2AF JUMP JUMPDEST PUSH2 0x170 JUMP JUMPDEST PUSH1 0x40 MLOAD PUSH2 0xC4 SWAP2 SWAP1 PUSH2 0x2FC JUMP JUMPDEST PUSH1 0x40 MLOAD DUP1 SWAP2 SUB SWAP1 RETURN JUMPDEST PUSH2 0xD5 PUSH2 0x185 JUMP JUMPDEST PUSH1 0x40 MLOAD PUSH2 0xE2 SWAP2 SWAP1 PUSH2 0x2FC JUMP JUMPDEST PUSH1 0x40 MLOAD DUP1 SWAP2 SUB SWAP1 RETURN JUMPDEST PUSH2 0xF3 PUSH2 0x18D JUMP JUMPDEST PUSH1 0x40 MLOAD PUSH2 0x100 SWAP2 SWAP1 PUSH2 0x2FC JUMP JUMPDEST PUSH1 0x40 MLOAD DUP1 SWAP2 SUB SWAP1 RETURN JUMPDEST PUSH2 0x123 PUSH1 0x4 DUP1 CALLDATASIZE SUB DUP2 ADD SWAP1 PUSH2 0x11E SWAP2 SWAP1 PUSH2 0x33F JUMP JUMPDEST PUSH2 0x192 JUMP JUMPDEST STOP JUMPDEST PUSH2 0x13F PUSH1 0x4 DUP1 CALLDATASIZE SUB DUP2 ADD SWAP1 PUSH2 0x13A SWAP2 SWAP1 PUSH2 0x36A JUMP JUMPDEST PUSH2 0x1D5 JUMP JUMPDEST STOP JUMPDEST PUSH2 0x149 PUSH2 0x1DE JUMP JUMPDEST STOP JUMPDEST PUSH1 0x1 PUSH0 SWAP1 SLOAD SWAP1 PUSH2 0x100 EXP SWAP1 DIV PUSH20 0xFFFFFFFFFFFFFFFFFFFFFFFFFFFFFFFFFFFFFFFF AND DUP2 JUMP JUMPDEST PUSH0 DUP2 DUP4 PUSH2 0x17D SWAP2 SWAP1 PUSH2 0x3C2 JUMP JUMPDEST SWAP1 POP SWAP3 SWAP2 POP POP JUMP JUMPDEST PUSH0 PUSH0 SLOAD SWAP1 POP SWAP1 JUMP JUMPDEST PUSH0 SLOAD DUP2 JUMP JUMPDEST DUP1 PUSH1 0x1 PUSH0 PUSH2 0x100 EXP DUP2 SLOAD DUP2 PUSH20 0xFFFFFFFFFFFFFFFFFFFFFFFFFFFFFFFFFFFFFFFF MUL NOT AND SWAP1 DUP4 PUSH20 0xFFFFFFFFFFFFFFFFFFFFFFFFFFFFFFFFFFFFFFFF AND MUL OR SWAP1 SSTORE POP POP JUMP JUMPDEST DUP1 PUSH0 DUP2 SWAP1 SSTORE POP POP JUMP JUMPDEST CALLER PUSH1 0x1 PUSH0 PUSH2 0x100 EXP DUP2 SLOAD DUP2 PUSH20 0xFFFFFFFFFFFFFFFFFFFFFFFFFFFFFFFFFFFFFFFF MUL NOT AND SWAP1 DUP4 PUSH20 0xFFFFFFFFFFFFFFFFFFFFFFFFFFFFFFFFFFFFFFFF AND MUL OR SWAP1 SSTORE POP JUMP JUMPDEST PUSH0 PUSH20 0xFFFFFFFFFFFFFFFFFFFFFFFFFFFFFFFFFFFFFFFF DUP3 AND SWAP1 POP SWAP2 SWAP1 POP JUMP JUMPDEST PUSH0 PUSH2 0x249 DUP3 PUSH2 0x220 JUMP JUMPDEST SWAP1 POP SWAP2 SWAP1 POP JUMP JUMPDEST PUSH2 0x259 DUP2 PUSH2 0x23F JUMP JUMPDEST DUP3 MSTORE POP POP JUMP JUMPDEST PUSH0 PUSH1 0x20 DUP3 ADD SWAP1 POP PUSH2 0x272 PUSH0 DUP4 ADD DUP5 PUSH2 0x250 JUMP JUMPDEST SWAP3 SWAP2 POP POP JUMP JUMPDEST PUSH0 PUSH0 REVERT JUMPDEST PUSH0 DUP2 SWAP1 POP SWAP2 SWAP1 POP JUMP JUMPDEST PUSH2 0x28E DUP2 PUSH2 0x27C JUMP JUMPDEST DUP2 EQ PUSH2 0x298 JUMPI PUSH0 PUSH0 REVERT JUMPDEST POP JUMP JUMPDEST PUSH0 DUP2 CALLDATALOAD SWAP1 POP PUSH2 0x2A9 DUP2 PUSH2 0x285 JUMP JUMPDEST SWAP3 SWAP2 POP POP JUMP JUMPDEST PUSH0 PUSH0 PUSH1 0x40 DUP4 DUP6 SUB SLT ISZERO PUSH2 0x2C5 JUMPI PUSH2 0x2C4 PUSH2 0x278 JUMP JUMPDEST JUMPDEST PUSH0 PUSH2 0x2D2 DUP6 DUP3 DUP7 ADD PUSH2 0x29B JUMP JUMPDEST SWAP3 POP POP PUSH1 0x20 PUSH2 0x2E3 DUP6 DUP3 DUP7 ADD PUSH2 0x29B JUMP JUMPDEST SWAP2 POP POP SWAP3 POP SWAP3 SWAP1 POP JUMP JUMPDEST PUSH2 0x2F6 DUP2 PUSH2 0x27C JUMP JUMPDEST DUP3 MSTORE POP POP JUMP JUMPDEST PUSH0 PUSH1 0x20 DUP3 ADD SWAP1 POP PUSH2 0x30F PUSH0 DUP4 ADD DUP5 PUSH2 0x2ED JUMP JUMPDEST SWAP3 SWAP2 POP POP JUMP JUMPDEST PUSH2 0x31E DUP2 PUSH2 0x23F JUMP JUMPDEST DUP2 EQ PUSH2 0x328 JUMPI PUSH0 PUSH0 REVERT JUMPDEST POP JUMP JUMPDEST PUSH0 DUP2 CALLDATALOAD SWAP1 POP PUSH2 0x339 DUP2 PUSH2 0x315 JUMP JUMPDEST SWAP3 SWAP2 POP POP JUMP JUMPDEST PUSH0 PUSH1 0x20 DUP3 DUP5 SUB SLT ISZERO PUSH2 0x354 JUMPI PUSH2 0x353 PUSH2 0x278 JUMP JUMPDEST JUMPDEST PUSH0 PUSH2 0x361 DUP5 DUP3 DUP6 ADD PUSH2 0x32B JUMP JUMPDEST SWAP2 POP POP SWAP3 SWAP2 POP POP JUMP JUMPDEST PUSH0 PUSH1 0x20 DUP3 DUP5 SUB SLT ISZERO PUSH2 0x37F JUMPI PUSH2 0x37E PUSH2 0x278 JUMP JUMPDEST JUMPDEST PUSH0 PUSH2 0x38C DUP5 DUP3 DUP6 ADD PUSH2 0x29B JUMP JUMPDEST SWAP2 POP POP SWAP3 SWAP2 POP POP JUMP JUMPDEST PUSH32 0x4E487B7100000000000000000000000000000000000000000000000000000000 PUSH0 MSTORE PUSH1 0x11 PUSH1 0x4 MSTORE PUSH1 0x24 PUSH0 REVERT JUMPDEST PUSH0 PUSH2 0x3CC DUP3 PUSH2 0x27C JUMP JUMPDEST SWAP2 POP PUSH2 0x3D7 DUP4 PUSH2 0x27C JUMP JUMPDEST SWAP3 POP DUP3 DUP3 ADD SWAP1 POP DUP1 DUP3 GT ISZERO PUSH2 0x3EF JUMPI PUSH2 0x3EE PUSH2 0x395 JUMP JUMPDEST JUMPDEST SWAP3 SWAP2 POP POP JUMP INVALID LOG2 PUSH5 0x6970667358 0x22 SLT KECCAK256 0xEB PUSH27 0x9C382F8B6E97253167C210FFC5968B2FD006E61B6DEC85C3B52CEE DIV XOR LT PUSH5 0x736F6C6343 STOP ADDMOD 0x1E STOP CALLER "
				},
				"gasEstimates": {
					"creation": {
						"codeDepositCost": "213400",
						"executionCost": "infinite",
						"totalCost": "infinite"
					},
					"external": {
						"getAddication(uint256,uint256)": "infinite",
						"getMyStorageVariable()": "2476",
						"myAddress()": "2509",
						"myStorageVar()": "2424",
						"setMyAddress(address)": "24737",
						"setMyAddressMsgSender()": "24474",
						"setMyStorageVariable(uint256)": "22558"
					}
				},
				"methodIdentifiers": {
					"getAddication(uint256,uint256)": "3993f549",
					"getMyStorageVariable()": "5f6a36da",
					"myAddress()": "26b85ee1",
					"myStorageVar()": "87636dd0",
					"setMyAddress(address)": "a8a7b895",
					"setMyAddressMsgSender()": "ff8737de",
					"setMyStorageVariable(uint256)": "e48d59d9"
				}
			},
			"storageLayout": {
				"storage": [
					{
						"astId": 3,
						"contract": "contracts/Functions.sol:Functions",
						"label": "myStorageVar",
						"offset": 0,
						"slot": "0",
						"type": "t_uint256"
					},
					{
						"astId": 37,
						"contract": "contracts/Functions.sol:Functions",
						"label": "myAddress",
						"offset": 0,
						"slot": "1",
						"type": "t_address"
					}
				],
				"types": {
					"t_address": {
						"encoding": "inplace",
						"label": "address",
						"numberOfBytes": "20"
					},
					"t_uint256": {
						"encoding": "inplace",
						"label": "uint256",
						"numberOfBytes": "32"
					}
				}
			},
			"userdoc": {
				"kind": "user",
				"methods": {},
				"version": 1
			}
		}
	}
}