{
	"contracts/ExampleUint.sol": {
		"DataTypes": {
			"abi": [
				{
					"inputs": [],
					"name": "incMyUint8",
					"outputs": [],
					"stateMutability": "nonpayable",
					"type": "function"
				},
				{
					"inputs": [],
					"name": "myBool",
					"outputs": [
						{
							"internalType": "bool",
							"name": "",
							"type": "bool"
						}
					],
					"stateMutability": "view",
					"type": "function"
				},
				{
					"inputs": [],
					"name": "myUint",
					"outputs": [
						{
							"internalType": "uint256",
							"name": "",
							"type": "uint256"
						}
					],
					"stateMutability": "view",
					"type": "function"
				},
				{
					"inputs": [],
					"name": "myUint8",
					"outputs": [
						{
							"internalType": "uint8",
							"name": "",
							"type": "uint8"
						}
					],
					"stateMutability": "view",
					"type": "function"
				},
				{
					"inputs": [
						{
							"internalType": "bool",
							"name": "_myBool",
							"type": "bool"
						}
					],
					"name": "setMyBool",
					"outputs": [],
					"stateMutability": "nonpayable",
					"type": "function"
				},
				{
					"inputs": [
						{
							"internalType": "uint256",
							"name": "_myUint",
							"type": "uint256"
						}
					],
					"name": "setMyUint",
					"outputs": [],
					"stateMutability": "nonpayable",
					"type": "function"
				}
			],
			"devdoc": {
				"kind": "dev",
				"methods": {},
				"version": 1
			},
			"evm": {
				"assembly": "    /* \"contracts/ExampleUint.sol\":57:486  contract DataTypes{... */\n  mstore(0x40, 0x80)\n    /* \"contracts/ExampleUint.sol\":313:316  250 */\n  0xfa\n    /* \"contracts/ExampleUint.sol\":290:316  uint8 public myUint8 = 250 */\n  0x02\n  exp(0x0100, 0x00)\n  dup2\n  sload\n  dup2\n  0xff\n  mul\n  not\n  and\n  swap1\n  dup4\n  0xff\n  and\n  mul\n  or\n  swap1\n  sstore\n  pop\n    /* \"contracts/ExampleUint.sol\":57:486  contract DataTypes{... */\n  callvalue\n  dup1\n  iszero\n  tag_1\n  jumpi\n  revert(0x00, 0x00)\ntag_1:\n  pop\n  dataSize(sub_0)\n  dup1\n  dataOffset(sub_0)\n  0x00\n  codecopy\n  0x00\n  return\nstop\n\nsub_0: assembly {\n        /* \"contracts/ExampleUint.sol\":57:486  contract DataTypes{... */\n      mstore(0x40, 0x80)\n      callvalue\n      dup1\n      iszero\n      tag_1\n      jumpi\n      revert(0x00, 0x00)\n    tag_1:\n      pop\n      jumpi(tag_2, lt(calldatasize, 0x04))\n      shr(0xe0, calldataload(0x00))\n      dup1\n      0x06540f7e\n      eq\n      tag_3\n      jumpi\n      dup1\n      0x354b7f2f\n      eq\n      tag_4\n      jumpi\n      dup1\n      0x6deecdbe\n      eq\n      tag_5\n      jumpi\n      dup1\n      0xe2a4b2af\n      eq\n      tag_6\n      jumpi\n      dup1\n      0xe492fd84\n      eq\n      tag_7\n      jumpi\n      dup1\n      0xeb1b30d9\n      eq\n      tag_8\n      jumpi\n    tag_2:\n      revert(0x00, 0x00)\n        /* \"contracts/ExampleUint.sol\":249:267  uint public myUint */\n    tag_3:\n      tag_9\n      tag_10\n      jump\t// in\n    tag_9:\n      mload(0x40)\n      tag_11\n      swap2\n      swap1\n      tag_12\n      jump\t// in\n    tag_11:\n      mload(0x40)\n      dup1\n      swap2\n      sub\n      swap1\n      return\n        /* \"contracts/ExampleUint.sol\":403:458  function incMyUint8() public {... */\n    tag_4:\n      tag_13\n      tag_14\n      jump\t// in\n    tag_13:\n      stop\n        /* \"contracts/ExampleUint.sol\":107:125  bool public myBool */\n    tag_5:\n      tag_15\n      tag_16\n      jump\t// in\n    tag_15:\n      mload(0x40)\n      tag_17\n      swap2\n      swap1\n      tag_18\n      jump\t// in\n    tag_17:\n      mload(0x40)\n      dup1\n      swap2\n      sub\n      swap1\n      return\n        /* \"contracts/ExampleUint.sol\":290:316  uint8 public myUint8 = 250 */\n    tag_6:\n      tag_19\n      tag_20\n      jump\t// in\n    tag_19:\n      mload(0x40)\n      tag_21\n      swap2\n      swap1\n      tag_22\n      jump\t// in\n    tag_21:\n      mload(0x40)\n      dup1\n      swap2\n      sub\n      swap1\n      return\n        /* \"contracts/ExampleUint.sol\":323:395  function setMyUint(uint _myUint) public{... */\n    tag_7:\n      tag_23\n      0x04\n      dup1\n      calldatasize\n      sub\n      dup2\n      add\n      swap1\n      tag_24\n      swap2\n      swap1\n      tag_25\n      jump\t// in\n    tag_24:\n      tag_26\n      jump\t// in\n    tag_23:\n      stop\n        /* \"contracts/ExampleUint.sol\":132:205  function setMyBool(bool _myBool) public {... */\n    tag_8:\n      tag_27\n      0x04\n      dup1\n      calldatasize\n      sub\n      dup2\n      add\n      swap1\n      tag_28\n      swap2\n      swap1\n      tag_29\n      jump\t// in\n    tag_28:\n      tag_30\n      jump\t// in\n    tag_27:\n      stop\n        /* \"contracts/ExampleUint.sol\":249:267  uint public myUint */\n    tag_10:\n      sload(0x01)\n      dup2\n      jump\t// out\n        /* \"contracts/ExampleUint.sol\":403:458  function incMyUint8() public {... */\n    tag_14:\n        /* \"contracts/ExampleUint.sol\":442:449  myUint8 */\n      0x02\n      0x00\n        /* \"contracts/ExampleUint.sol\":442:451  myUint8++ */\n      dup2\n      dup2\n      swap1\n      sload\n      swap1\n      0x0100\n      exp\n      swap1\n      div\n      0xff\n      and\n      dup1\n      swap3\n      swap2\n      swap1\n      tag_32\n      swap1\n      tag_33\n      jump\t// in\n    tag_32:\n      swap2\n      swap1\n      0x0100\n      exp\n      dup2\n      sload\n      dup2\n      0xff\n      mul\n      not\n      and\n      swap1\n      dup4\n      0xff\n      and\n      mul\n      or\n      swap1\n      sstore\n      pop\n      pop\n        /* \"contracts/ExampleUint.sol\":403:458  function incMyUint8() public {... */\n      jump\t// out\n        /* \"contracts/ExampleUint.sol\":107:125  bool public myBool */\n    tag_16:\n      0x00\n      0x00\n      swap1\n      sload\n      swap1\n      0x0100\n      exp\n      swap1\n      div\n      0xff\n      and\n      dup2\n      jump\t// out\n        /* \"contracts/ExampleUint.sol\":290:316  uint8 public myUint8 = 250 */\n    tag_20:\n      0x02\n      0x00\n      swap1\n      sload\n      swap1\n      0x0100\n      exp\n      swap1\n      div\n      0xff\n      and\n      dup2\n      jump\t// out\n        /* \"contracts/ExampleUint.sol\":323:395  function setMyUint(uint _myUint) public{... */\n    tag_26:\n        /* \"contracts/ExampleUint.sol\":381:388  _myUint */\n      dup1\n        /* \"contracts/ExampleUint.sol\":372:378  myUint */\n      0x01\n        /* \"contracts/ExampleUint.sol\":372:388  myUint = _myUint */\n      dup2\n      swap1\n      sstore\n      pop\n        /* \"contracts/ExampleUint.sol\":323:395  function setMyUint(uint _myUint) public{... */\n      pop\n      jump\t// out\n        /* \"contracts/ExampleUint.sol\":132:205  function setMyBool(bool _myBool) public {... */\n    tag_30:\n        /* \"contracts/ExampleUint.sol\":191:198  _myBool */\n      dup1\n        /* \"contracts/ExampleUint.sol\":182:188  myBool */\n      0x00\n      0x00\n        /* \"contracts/ExampleUint.sol\":182:198  myBool = _myBool */\n      0x0100\n      exp\n      dup2\n      sload\n      dup2\n      0xff\n      mul\n      not\n      and\n      swap1\n      dup4\n      iszero\n      iszero\n      mul\n      or\n      swap1\n      sstore\n      pop\n        /* \"contracts/ExampleUint.sol\":132:205  function setMyBool(bool _myBool) public {... */\n      pop\n      jump\t// out\n        /* \"#utility.yul\":7:84   */\n    tag_36:\n        /* \"#utility.yul\":44:51   */\n      0x00\n        /* \"#utility.yul\":73:78   */\n      dup2\n        /* \"#utility.yul\":62:78   */\n      swap1\n      pop\n        /* \"#utility.yul\":7:84   */\n      swap2\n      swap1\n      pop\n      jump\t// out\n        /* \"#utility.yul\":90:208   */\n    tag_37:\n        /* \"#utility.yul\":177:201   */\n      tag_53\n        /* \"#utility.yul\":195:200   */\n      dup2\n        /* \"#utility.yul\":177:201   */\n      tag_36\n      jump\t// in\n    tag_53:\n        /* \"#utility.yul\":172:175   */\n      dup3\n        /* \"#utility.yul\":165:202   */\n      mstore\n        /* \"#utility.yul\":90:208   */\n      pop\n      pop\n      jump\t// out\n        /* \"#utility.yul\":214:436   */\n    tag_12:\n        /* \"#utility.yul\":307:311   */\n      0x00\n        /* \"#utility.yul\":345:347   */\n      0x20\n        /* \"#utility.yul\":334:343   */\n      dup3\n        /* \"#utility.yul\":330:348   */\n      add\n        /* \"#utility.yul\":322:348   */\n      swap1\n      pop\n        /* \"#utility.yul\":358:429   */\n      tag_55\n        /* \"#utility.yul\":426:427   */\n      0x00\n        /* \"#utility.yul\":415:424   */\n      dup4\n        /* \"#utility.yul\":411:428   */\n      add\n        /* \"#utility.yul\":402:408   */\n      dup5\n        /* \"#utility.yul\":358:429   */\n      tag_37\n      jump\t// in\n    tag_55:\n        /* \"#utility.yul\":214:436   */\n      swap3\n      swap2\n      pop\n      pop\n      jump\t// out\n        /* \"#utility.yul\":442:532   */\n    tag_38:\n        /* \"#utility.yul\":476:483   */\n      0x00\n        /* \"#utility.yul\":519:524   */\n      dup2\n        /* \"#utility.yul\":512:525   */\n      iszero\n        /* \"#utility.yul\":505:526   */\n      iszero\n        /* \"#utility.yul\":494:526   */\n      swap1\n      pop\n        /* \"#utility.yul\":442:532   */\n      swap2\n      swap1\n      pop\n      jump\t// out\n        /* \"#utility.yul\":538:647   */\n    tag_39:\n        /* \"#utility.yul\":619:640   */\n      tag_58\n        /* \"#utility.yul\":634:639   */\n      dup2\n        /* \"#utility.yul\":619:640   */\n      tag_38\n      jump\t// in\n    tag_58:\n        /* \"#utility.yul\":614:617   */\n      dup3\n        /* \"#utility.yul\":607:641   */\n      mstore\n        /* \"#utility.yul\":538:647   */\n      pop\n      pop\n      jump\t// out\n        /* \"#utility.yul\":653:863   */\n    tag_18:\n        /* \"#utility.yul\":740:744   */\n      0x00\n        /* \"#utility.yul\":778:780   */\n      0x20\n        /* \"#utility.yul\":767:776   */\n      dup3\n        /* \"#utility.yul\":763:781   */\n      add\n        /* \"#utility.yul\":755:781   */\n      swap1\n      pop\n        /* \"#utility.yul\":791:856   */\n      tag_60\n        /* \"#utility.yul\":853:854   */\n      0x00\n        /* \"#utility.yul\":842:851   */\n      dup4\n        /* \"#utility.yul\":838:855   */\n      add\n        /* \"#utility.yul\":829:835   */\n      dup5\n        /* \"#utility.yul\":791:856   */\n      tag_39\n      jump\t// in\n    tag_60:\n        /* \"#utility.yul\":653:863   */\n      swap3\n      swap2\n      pop\n      pop\n      jump\t// out\n        /* \"#utility.yul\":869:955   */\n    tag_40:\n        /* \"#utility.yul\":904:911   */\n      0x00\n        /* \"#utility.yul\":944:948   */\n      0xff\n        /* \"#utility.yul\":937:942   */\n      dup3\n        /* \"#utility.yul\":933:949   */\n      and\n        /* \"#utility.yul\":922:949   */\n      swap1\n      pop\n        /* \"#utility.yul\":869:955   */\n      swap2\n      swap1\n      pop\n      jump\t// out\n        /* \"#utility.yul\":961:1073   */\n    tag_41:\n        /* \"#utility.yul\":1044:1066   */\n      tag_63\n        /* \"#utility.yul\":1060:1065   */\n      dup2\n        /* \"#utility.yul\":1044:1066   */\n      tag_40\n      jump\t// in\n    tag_63:\n        /* \"#utility.yul\":1039:1042   */\n      dup3\n        /* \"#utility.yul\":1032:1067   */\n      mstore\n        /* \"#utility.yul\":961:1073   */\n      pop\n      pop\n      jump\t// out\n        /* \"#utility.yul\":1079:1293   */\n    tag_22:\n        /* \"#utility.yul\":1168:1172   */\n      0x00\n        /* \"#utility.yul\":1206:1208   */\n      0x20\n        /* \"#utility.yul\":1195:1204   */\n      dup3\n        /* \"#utility.yul\":1191:1209   */\n      add\n        /* \"#utility.yul\":1183:1209   */\n      swap1\n      pop\n        /* \"#utility.yul\":1219:1286   */\n      tag_65\n        /* \"#utility.yul\":1283:1284   */\n      0x00\n        /* \"#utility.yul\":1272:1281   */\n      dup4\n        /* \"#utility.yul\":1268:1285   */\n      add\n        /* \"#utility.yul\":1259:1265   */\n      dup5\n        /* \"#utility.yul\":1219:1286   */\n      tag_41\n      jump\t// in\n    tag_65:\n        /* \"#utility.yul\":1079:1293   */\n      swap3\n      swap2\n      pop\n      pop\n      jump\t// out\n        /* \"#utility.yul\":1380:1497   */\n    tag_43:\n        /* \"#utility.yul\":1489:1490   */\n      0x00\n        /* \"#utility.yul\":1486:1487   */\n      0x00\n        /* \"#utility.yul\":1479:1491   */\n      revert\n        /* \"#utility.yul\":1626:1748   */\n    tag_45:\n        /* \"#utility.yul\":1699:1723   */\n      tag_70\n        /* \"#utility.yul\":1717:1722   */\n      dup2\n        /* \"#utility.yul\":1699:1723   */\n      tag_36\n      jump\t// in\n    tag_70:\n        /* \"#utility.yul\":1692:1697   */\n      dup2\n        /* \"#utility.yul\":1689:1724   */\n      eq\n        /* \"#utility.yul\":1679:1742   */\n      tag_71\n      jumpi\n        /* \"#utility.yul\":1738:1739   */\n      0x00\n        /* \"#utility.yul\":1735:1736   */\n      0x00\n        /* \"#utility.yul\":1728:1740   */\n      revert\n        /* \"#utility.yul\":1679:1742   */\n    tag_71:\n        /* \"#utility.yul\":1626:1748   */\n      pop\n      jump\t// out\n        /* \"#utility.yul\":1754:1893   */\n    tag_46:\n        /* \"#utility.yul\":1800:1805   */\n      0x00\n        /* \"#utility.yul\":1838:1844   */\n      dup2\n        /* \"#utility.yul\":1825:1845   */\n      calldataload\n        /* \"#utility.yul\":1816:1845   */\n      swap1\n      pop\n        /* \"#utility.yul\":1854:1887   */\n      tag_73\n        /* \"#utility.yul\":1881:1886   */\n      dup2\n        /* \"#utility.yul\":1854:1887   */\n      tag_45\n      jump\t// in\n    tag_73:\n        /* \"#utility.yul\":1754:1893   */\n      swap3\n      swap2\n      pop\n      pop\n      jump\t// out\n        /* \"#utility.yul\":1899:2228   */\n    tag_25:\n        /* \"#utility.yul\":1958:1964   */\n      0x00\n        /* \"#utility.yul\":2007:2009   */\n      0x20\n        /* \"#utility.yul\":1995:2004   */\n      dup3\n        /* \"#utility.yul\":1986:1993   */\n      dup5\n        /* \"#utility.yul\":1982:2005   */\n      sub\n        /* \"#utility.yul\":1978:2010   */\n      slt\n        /* \"#utility.yul\":1975:2094   */\n      iszero\n      tag_75\n      jumpi\n        /* \"#utility.yul\":2013:2092   */\n      tag_76\n      tag_43\n      jump\t// in\n    tag_76:\n        /* \"#utility.yul\":1975:2094   */\n    tag_75:\n        /* \"#utility.yul\":2133:2134   */\n      0x00\n        /* \"#utility.yul\":2158:2211   */\n      tag_77\n        /* \"#utility.yul\":2203:2210   */\n      dup5\n        /* \"#utility.yul\":2194:2200   */\n      dup3\n        /* \"#utility.yul\":2183:2192   */\n      dup6\n        /* \"#utility.yul\":2179:2201   */\n      add\n        /* \"#utility.yul\":2158:2211   */\n      tag_46\n      jump\t// in\n    tag_77:\n        /* \"#utility.yul\":2148:2211   */\n      swap2\n      pop\n        /* \"#utility.yul\":2104:2221   */\n      pop\n        /* \"#utility.yul\":1899:2228   */\n      swap3\n      swap2\n      pop\n      pop\n      jump\t// out\n        /* \"#utility.yul\":2234:2350   */\n    tag_47:\n        /* \"#utility.yul\":2304:2325   */\n      tag_79\n        /* \"#utility.yul\":2319:2324   */\n      dup2\n        /* \"#utility.yul\":2304:2325   */\n      tag_38\n      jump\t// in\n    tag_79:\n        /* \"#utility.yul\":2297:2302   */\n      dup2\n        /* \"#utility.yul\":2294:2326   */\n      eq\n        /* \"#utility.yul\":2284:2344   */\n      tag_80\n      jumpi\n        /* \"#utility.yul\":2340:2341   */\n      0x00\n        /* \"#utility.yul\":2337:2338   */\n      0x00\n        /* \"#utility.yul\":2330:2342   */\n      revert\n        /* \"#utility.yul\":2284:2344   */\n    tag_80:\n        /* \"#utility.yul\":2234:2350   */\n      pop\n      jump\t// out\n        /* \"#utility.yul\":2356:2489   */\n    tag_48:\n        /* \"#utility.yul\":2399:2404   */\n      0x00\n        /* \"#utility.yul\":2437:2443   */\n      dup2\n        /* \"#utility.yul\":2424:2444   */\n      calldataload\n        /* \"#utility.yul\":2415:2444   */\n      swap1\n      pop\n        /* \"#utility.yul\":2453:2483   */\n      tag_82\n        /* \"#utility.yul\":2477:2482   */\n      dup2\n        /* \"#utility.yul\":2453:2483   */\n      tag_47\n      jump\t// in\n    tag_82:\n        /* \"#utility.yul\":2356:2489   */\n      swap3\n      swap2\n      pop\n      pop\n      jump\t// out\n        /* \"#utility.yul\":2495:2818   */\n    tag_29:\n        /* \"#utility.yul\":2551:2557   */\n      0x00\n        /* \"#utility.yul\":2600:2602   */\n      0x20\n        /* \"#utility.yul\":2588:2597   */\n      dup3\n        /* \"#utility.yul\":2579:2586   */\n      dup5\n        /* \"#utility.yul\":2575:2598   */\n      sub\n        /* \"#utility.yul\":2571:2603   */\n      slt\n        /* \"#utility.yul\":2568:2687   */\n      iszero\n      tag_84\n      jumpi\n        /* \"#utility.yul\":2606:2685   */\n      tag_85\n      tag_43\n      jump\t// in\n    tag_85:\n        /* \"#utility.yul\":2568:2687   */\n    tag_84:\n        /* \"#utility.yul\":2726:2727   */\n      0x00\n        /* \"#utility.yul\":2751:2801   */\n      tag_86\n        /* \"#utility.yul\":2793:2800   */\n      dup5\n        /* \"#utility.yul\":2784:2790   */\n      dup3\n        /* \"#utility.yul\":2773:2782   */\n      dup6\n        /* \"#utility.yul\":2769:2791   */\n      add\n        /* \"#utility.yul\":2751:2801   */\n      tag_48\n      jump\t// in\n    tag_86:\n        /* \"#utility.yul\":2741:2801   */\n      swap2\n      pop\n        /* \"#utility.yul\":2697:2811   */\n      pop\n        /* \"#utility.yul\":2495:2818   */\n      swap3\n      swap2\n      pop\n      pop\n      jump\t// out\n        /* \"#utility.yul\":2824:3004   */\n    tag_49:\n        /* \"#utility.yul\":2872:2949   */\n      0x4e487b7100000000000000000000000000000000000000000000000000000000\n        /* \"#utility.yul\":2869:2870   */\n      0x00\n        /* \"#utility.yul\":2862:2950   */\n      mstore\n        /* \"#utility.yul\":2969:2973   */\n      0x11\n        /* \"#utility.yul\":2966:2967   */\n      0x04\n        /* \"#utility.yul\":2959:2974   */\n      mstore\n        /* \"#utility.yul\":2993:2997   */\n      0x24\n        /* \"#utility.yul\":2990:2991   */\n      0x00\n        /* \"#utility.yul\":2983:2998   */\n      revert\n        /* \"#utility.yul\":3010:3177   */\n    tag_33:\n        /* \"#utility.yul\":3047:3050   */\n      0x00\n        /* \"#utility.yul\":3070:3092   */\n      tag_89\n        /* \"#utility.yul\":3086:3091   */\n      dup3\n        /* \"#utility.yul\":3070:3092   */\n      tag_40\n      jump\t// in\n    tag_89:\n        /* \"#utility.yul\":3061:3092   */\n      swap2\n      pop\n        /* \"#utility.yul\":3114:3118   */\n      0xff\n        /* \"#utility.yul\":3107:3112   */\n      dup3\n        /* \"#utility.yul\":3104:3119   */\n      sub\n        /* \"#utility.yul\":3101:3142   */\n      tag_90\n      jumpi\n        /* \"#utility.yul\":3122:3140   */\n      tag_91\n      tag_49\n      jump\t// in\n    tag_91:\n        /* \"#utility.yul\":3101:3142   */\n    tag_90:\n        /* \"#utility.yul\":3169:3170   */\n      0x01\n        /* \"#utility.yul\":3162:3167   */\n      dup3\n        /* \"#utility.yul\":3158:3171   */\n      add\n        /* \"#utility.yul\":3151:3171   */\n      swap1\n      pop\n        /* \"#utility.yul\":3010:3177   */\n      swap2\n      swap1\n      pop\n      jump\t// out\n\n    auxdata: 0xa26469706673582212209362d1c243d5e7ab93a754c010ded0c0ea54acfa924bb2f2aa6ee2598c82433164736f6c634300081e0033\n}\n",
				"bytecode": {
					"linkReferences": {},
					"object": "608060405260fa60025f6101000a81548160ff021916908360ff1602179055503480156029575f5ffd5b50610358806100375f395ff3fe608060405234801561000f575f5ffd5b5060043610610060575f3560e01c806306540f7e14610064578063354b7f2f146100825780636deecdbe1461008c578063e2a4b2af146100aa578063e492fd84146100c8578063eb1b30d9146100e4575b5f5ffd5b61006c610100565b604051610079919061019f565b60405180910390f35b61008a610106565b005b61009461013f565b6040516100a191906101d2565b60405180910390f35b6100b2610150565b6040516100bf9190610206565b60405180910390f35b6100e260048036038101906100dd919061024d565b610162565b005b6100fe60048036038101906100f991906102a2565b61016c565b005b60015481565b60025f81819054906101000a900460ff1680929190610124906102fa565b91906101000a81548160ff021916908360ff16021790555050565b5f5f9054906101000a900460ff1681565b60025f9054906101000a900460ff1681565b8060018190555050565b805f5f6101000a81548160ff02191690831515021790555050565b5f819050919050565b61019981610187565b82525050565b5f6020820190506101b25f830184610190565b92915050565b5f8115159050919050565b6101cc816101b8565b82525050565b5f6020820190506101e55f8301846101c3565b92915050565b5f60ff82169050919050565b610200816101eb565b82525050565b5f6020820190506102195f8301846101f7565b92915050565b5f5ffd5b61022c81610187565b8114610236575f5ffd5b50565b5f8135905061024781610223565b92915050565b5f602082840312156102625761026161021f565b5b5f61026f84828501610239565b91505092915050565b610281816101b8565b811461028b575f5ffd5b50565b5f8135905061029c81610278565b92915050565b5f602082840312156102b7576102b661021f565b5b5f6102c48482850161028e565b91505092915050565b7f4e487b71000000000000000000000000000000000000000000000000000000005f52601160045260245ffd5b5f610304826101eb565b915060ff8203610317576103166102cd565b5b60018201905091905056fea26469706673582212209362d1c243d5e7ab93a754c010ded0c0ea54acfa924bb2f2aa6ee2598c82433164736f6c634300081e0033",
					"opcodes": "PUSH1 0x80 PUSH1 0x40 MSTORE PUSH1 0xFA PUSH1 0x2 PUSH0 PUSH2 0x100 EXP DUP2 SLOAD DUP2 PUSH1 0xFF MUL NOT AND SWAP1 DUP4 PUSH1 0xFF AND MUL OR SWAP1 SSTORE POP CALLVALUE DUP1 ISZERO PUSH1 0x29 JUMPI PUSH0 PUSH0 REVERT JUMPDEST POP PUSH2 0x358 DUP1 PUSH2 0x37 PUSH0 CODECOPY PUSH0 RETURN INVALID PUSH1 0x80 PUSH1 0x40 MSTORE CALLVALUE DUP1 ISZERO PUSH2 0xF JUMPI PUSH0 PUSH0 REVERT JUMPDEST POP PUSH1 0x4 CALLDATASIZE LT PUSH2 0x60 JUMPI PUSH0 CALLDATALOAD PUSH1 0xE0 SHR DUP1 PUSH4 0x6540F7E EQ PUSH2 0x64 JUMPI DUP1 PUSH4 0x354B7F2F EQ PUSH2 0x82 JUMPI DUP1 PUSH4 0x6DEECDBE EQ PUSH2 0x8C JUMPI DUP1 PUSH4 0xE2A4B2AF EQ PUSH2 0xAA JUMPI DUP1 PUSH4 0xE492FD84 EQ PUSH2 0xC8 JUMPI DUP1 PUSH4 0xEB1B30D9 EQ PUSH2 0xE4 JUMPI JUMPDEST PUSH0 PUSH0 REVERT JUMPDEST PUSH2 0x6C PUSH2 0x100 JUMP JUMPDEST PUSH1 0x40 MLOAD PUSH2 0x79 SWAP2 SWAP1 PUSH2 0x19F JUMP JUMPDEST PUSH1 0x40 MLOAD DUP1 SWAP2 SUB SWAP1 RETURN JUMPDEST PUSH2 0x8A PUSH2 0x106 JUMP JUMPDEST STOP JUMPDEST PUSH2 0x94 PUSH2 0x13F JUMP JUMPDEST PUSH1 0x40 MLOAD PUSH2 0xA1 SWAP2 SWAP1 PUSH2 0x1D2 JUMP JUMPDEST PUSH1 0x40 MLOAD DUP1 SWAP2 SUB SWAP1 RETURN JUMPDEST PUSH2 0xB2 PUSH2 0x150 JUMP JUMPDEST PUSH1 0x40 MLOAD PUSH2 0xBF SWAP2 SWAP1 PUSH2 0x206 JUMP JUMPDEST PUSH1 0x40 MLOAD DUP1 SWAP2 SUB SWAP1 RETURN JUMPDEST PUSH2 0xE2 PUSH1 0x4 DUP1 CALLDATASIZE SUB DUP2 ADD SWAP1 PUSH2 0xDD SWAP2 SWAP1 PUSH2 0x24D JUMP JUMPDEST PUSH2 0x162 JUMP JUMPDEST STOP JUMPDEST PUSH2 0xFE PUSH1 0x4 DUP1 CALLDATASIZE SUB DUP2 ADD SWAP1 PUSH2 0xF9 SWAP2 SWAP1 PUSH2 0x2A2 JUMP JUMPDEST PUSH2 0x16C JUMP JUMPDEST STOP JUMPDEST PUSH1 0x1 SLOAD DUP2 JUMP JUMPDEST PUSH1 0x2 PUSH0 DUP2 DUP2 SWAP1 SLOAD SWAP1 PUSH2 0x100 EXP SWAP1 DIV PUSH1 0xFF AND DUP1 SWAP3 SWAP2 SWAP1 PUSH2 0x124 SWAP1 PUSH2 0x2FA JUMP JUMPDEST SWAP2 SWAP1 PUSH2 0x100 EXP DUP2 SLOAD DUP2 PUSH1 0xFF MUL NOT AND SWAP1 DUP4 PUSH1 0xFF AND MUL OR SWAP1 SSTORE POP POP JUMP JUMPDEST PUSH0 PUSH0 SWAP1 SLOAD SWAP1 PUSH2 0x100 EXP SWAP1 DIV PUSH1 0xFF AND DUP2 JUMP JUMPDEST PUSH1 0x2 PUSH0 SWAP1 SLOAD SWAP1 PUSH2 0x100 EXP SWAP1 DIV PUSH1 0xFF AND DUP2 JUMP JUMPDEST DUP1 PUSH1 0x1 DUP2 SWAP1 SSTORE POP POP JUMP JUMPDEST DUP1 PUSH0 PUSH0 PUSH2 0x100 EXP DUP2 SLOAD DUP2 PUSH1 0xFF MUL NOT AND SWAP1 DUP4 ISZERO ISZERO MUL OR SWAP1 SSTORE POP POP JUMP JUMPDEST PUSH0 DUP2 SWAP1 POP SWAP2 SWAP1 POP JUMP JUMPDEST PUSH2 0x199 DUP2 PUSH2 0x187 JUMP JUMPDEST DUP3 MSTORE POP POP JUMP JUMPDEST PUSH0 PUSH1 0x20 DUP3 ADD SWAP1 POP PUSH2 0x1B2 PUSH0 DUP4 ADD DUP5 PUSH2 0x190 JUMP JUMPDEST SWAP3 SWAP2 POP POP JUMP JUMPDEST PUSH0 DUP2 ISZERO ISZERO SWAP1 POP SWAP2 SWAP1 POP JUMP JUMPDEST PUSH2 0x1CC DUP2 PUSH2 0x1B8 JUMP JUMPDEST DUP3 MSTORE POP POP JUMP JUMPDEST PUSH0 PUSH1 0x20 DUP3 ADD SWAP1 POP PUSH2 0x1E5 PUSH0 DUP4 ADD DUP5 PUSH2 0x1C3 JUMP JUMPDEST SWAP3 SWAP2 POP POP JUMP JUMPDEST PUSH0 PUSH1 0xFF DUP3 AND SWAP1 POP SWAP2 SWAP1 POP JUMP JUMPDEST PUSH2 0x200 DUP2 PUSH2 0x1EB JUMP JUMPDEST DUP3 MSTORE POP POP JUMP JUMPDEST PUSH0 PUSH1 0x20 DUP3 ADD SWAP1 POP PUSH2 0x219 PUSH0 DUP4 ADD DUP5 PUSH2 0x1F7 JUMP JUMPDEST SWAP3 SWAP2 POP POP JUMP JUMPDEST PUSH0 PUSH0 REVERT JUMPDEST PUSH2 0x22C DUP2 PUSH2 0x187 JUMP JUMPDEST DUP2 EQ PUSH2 0x236 JUMPI PUSH0 PUSH0 REVERT JUMPDEST POP JUMP JUMPDEST PUSH0 DUP2 CALLDATALOAD SWAP1 POP PUSH2 0x247 DUP2 PUSH2 0x223 JUMP JUMPDEST SWAP3 SWAP2 POP POP JUMP JUMPDEST PUSH0 PUSH1 0x20 DUP3 DUP5 SUB SLT ISZERO PUSH2 0x262 JUMPI PUSH2 0x261 PUSH2 0x21F JUMP JUMPDEST JUMPDEST PUSH0 PUSH2 0x26F DUP5 DUP3 DUP6 ADD PUSH2 0x239 JUMP JUMPDEST SWAP2 POP POP SWAP3 SWAP2 POP POP JUMP JUMPDEST PUSH2 0x281 DUP2 PUSH2 0x1B8 JUMP JUMPDEST DUP2 EQ PUSH2 0x28B JUMPI PUSH0 PUSH0 REVERT JUMPDEST POP JUMP JUMPDEST PUSH0 DUP2 CALLDATALOAD SWAP1 POP PUSH2 0x29C DUP2 PUSH2 0x278 JUMP JUMPDEST SWAP3 SWAP2 POP POP JUMP JUMPDEST PUSH0 PUSH1 0x20 DUP3 DUP5 SUB SLT ISZERO PUSH2 0x2B7 JUMPI PUSH2 0x2B6 PUSH2 0x21F JUMP JUMPDEST JUMPDEST PUSH0 PUSH2 0x2C4 DUP5 DUP3 DUP6 ADD PUSH2 0x28E JUMP JUMPDEST SWAP2 POP POP SWAP3 SWAP2 POP POP JUMP JUMPDEST PUSH32 0x4E487B7100000000000000000000000000000000000000000000000000000000 PUSH0 MSTORE PUSH1 0x11 PUSH1 0x4 MSTORE PUSH1 0x24 PUSH0 REVERT JUMPDEST PUSH0 PUSH2 0x304 DUP3 PUSH2 0x1EB JUMP JUMPDEST SWAP2 POP PUSH1 0xFF DUP3 SUB PUSH2 0x317 JUMPI PUSH2 0x316 PUSH2 0x2CD JUMP JUMPDEST JUMPDEST PUSH1 0x1 DUP3 ADD SWAP1 POP SWAP2 SWAP1 POP JUMP INVALID LOG2 PUSH5 0x6970667358 0x22 SLT KECCAK256 SWAP4 PUSH3 0xD1C243 0xD5 SWAPN 0xAB SWAP4 0xA7 SLOAD 0xC0 LT 0xDE 0xD0 0xC0 0xEA SLOAD 0xAC STATICCALL SWAP3 0x4B 0xB2 CALLCODE 0xAA PUSH15 0xE2598C82433164736F6C634300081E STOP CALLER "
				},
				"gasEstimates": {
					"creation": {
						"codeDepositCost": "171200",
						"executionCost": "24478",
						"totalCost": "195678"
					},
					"external": {
						"incMyUint8()": "26695",
						"myBool()": "2487",
						"myUint()": "2403",
						"myUint8()": "2510",
						"setMyBool(bool)": "24760",
						"setMyUint(uint256)": "22581"
					}
				},
				"methodIdentifiers": {
					"incMyUint8()": "354b7f2f",
					"myBool()": "6deecdbe",
					"myUint()": "06540f7e",
					"myUint8()": "e2a4b2af",
					"setMyBool(bool)": "eb1b30d9",
					"setMyUint(uint256)": "e492fd84"
				}
			},
			"storageLayout": {
				"storage": [
					{
						"astId": 3,
						"contract": "contracts/ExampleUint.sol:DataTypes",
						"label": "myBool",
						"offset": 0,
						"slot": "0",
						"type": "t_bool"
					},
					{
						"astId": 15,
						"contract": "contracts/ExampleUint.sol:DataTypes",
						"label": "myUint",
						"offset": 0,
						"slot": "1",
						"type": "t_uint256"
					},
					{
						"astId": 18,
						"contract": "contracts/ExampleUint.sol:DataTypes",
						"label": "myUint8",
						"offset": 0,
						"slot": "2",
						"type": "t_uint8"
					}
				],
				"types": {
					"t_bool": {
						"encoding": "inplace",
						"label": "bool",
						"numberOfBytes": "1"
					},
					"t_uint256": {
						"encoding": "inplace",
						"label": "uint256",
						"numberOfBytes": "32"
					},
					"t_uint8": {
						"encoding": "inplace",
						"label": "uint8",
						"numberOfBytes": "1"
					}
				}
			},
			"userdoc": {
				"kind": "user",
				"methods": {},
				"version": 1
			}
		}
	}
}